:020000040000FA
:0600000002011A022E4568
:03002B000235C1DA
:03003300023599FA
:03005300022EBBBF
:03006B000235401B
:03007B00023568E3
:10008300022C9BE5C754F84401F5C779012200000F
:100093000080FB120086B90003020104E479217891
:1000A30008B800028004F709D8FCE479297802B87B
:1000B30000028004F709D8FCE49002817863791484
:1000C3008002F0A3D8FCD9FA781A90014A7A01BACF
:1000D30000028007E493A3F608DAF97AE37B15902C
:1000E300014B787879058015E493A3AD82AE838ABA
:1000F300828B83F0A3AA82AB838D828E83D8E9D9C6
:10010300E77582477583AA740412012C7582917571
:100113008300740012012C75D00075813F7518811E
:10012300751902759F00020096C09FF59FE473D076
:100133009F22D083D082C09FE493C0E0740193C018
:10014300E0740293F59F2201FF0000B40000280031
:100153002800283075A000A000A000A0000008001F
:1001630008E001F000100010001000100010001053
:100173000050005000500010001000D00700000095
:100183000000000F0001000500307507001000019A
:100193000081FF00000000FFFFFFE4070208EA07F9
:1001A3002608FF02020208025000A0000000E80334
:1001B30002648A010000418A02608A0100003E163F
:1001C30002588A010000BF0202608A0100003F1644
:1001D30002548A010000D50202608A010000401621
:1001E30002508A010000D70202608A010000411612
:1001F300024E8A080000D80202608A0100004216FB
:10020300024C8A0100004316FF0100FF2002648AAA
:10021300010000328A02608A010000A716024A8A9E
:100223000000000000025A8A03000006031700863C
:100233000E860E860E860E860E860E860E860E861B
:100243000E860E860E860E860E3E11501138111242
:10025300080802648A0100003B8A02608A010000E8
:10026300EA1610BD880100002507025A8A03000020
:100273002B0702608A010000EB16108D8802000034
:100283002D0702608A010000EC16109D8802000011
:1002930035070202023132333435363738393031DB
:1002A300320002302E322E4131382E31310002021B
:1002B30002020202010D000000100102648A010023
:1002C30000358A02608A0100002D17027A8A010034
:1002D30000360702608A0100002E1702788A0100A7
:1002E30000AE8902608A0100002F1702768A01009E
:1002F30000301702608A010000491702748A010066
:10030300004A8902608A0100004A1702728A0100CA
:1003130000B68902608A0100003D1702708A01005D
:10032300003E1702608A0100004B17026E8A01002B
:1003330000D98702608A0100004C17026C8A010011
:10034300003B88025C8A0100004C8802608A01003D
:10035300004D17026A8A010000DC8802608A0100EE
:10036300004E1702688A0100004F1701E803057762
:10037300100A01014856145C14621468146E147454
:10038300147A14801486148C14921498149E14A452
:1003930014AA14B014160C02648A010000388A02ED
:1003A300608A010000311802AA890200004B08028A
:1003B3005C8A0100000F8902608A01000030180284
:1003C300AC890300005E08025A8A03000071080228
:1003D3005C8A010000688968FFFFFF000130750334
:1003E3000201060000000000000000000000000001
:1003F300000000000000000000000000000000FFFB
:10040300FF0600800CE803037B034CCD6C03AB03B6
:1004130036567600680402CB47A202180400058B07
:10042300C1010C0400000000037F060CC92C979740
:1004330097038903264666006C02200002400400ED
:100443000000000244040000000002480400000011
:1004530000024C04000000000250040000000002EF
:1004630054040000000002580400000000025C0471
:100473000000000002BC040000000001EC040000C6
:100483004000037F060CC92C9797970402030D3590
:100493005D040904872D353D00A301000000000120
:1004A300078601FE074105F120283038077E013019
:1004B3000746019A074704F1283038076C04F128EE
:1004C3003038021602000101B202FFFF0190040955
:1004D30023A135016A020600016008000000000044
:1004E3000000000060044000000001620200000000
:1004F3006004004000000B0956756C747572654505
:100503006767051250006000020A00020106030239
:10051300F0FF56756C7475726545676700204E0071
:100523000070110100D0072A00101800001C1822C7
:1005330018104B657920507265737320537461747E
:10054300650002648A0100003E8A02608A0100009D
:10055300CC1902468A000000E015025A8A03000003
:10056300E115025C8A010000CD1930313233343594
:100573003637383941424344454600286E756C6C22
:1005830020706F696E7465722900303132333435EF
:1005930036373839616263646566003F3F3F000068
:1005A30000807F0000803F00000000F9021550B773
:1005B30043BA510000204100E7DB2E0000A04012A7
:1005C3000135D08304120135E38304120135148409
:1005D300041201354E8404120135A7840412013537
:1005E300EE84041201353685041201356585041243
:1005F3000135948504120135CB8504120135128629
:10060300041201352B86041201358086041201354C
:10061300998604120135E7860412013521870412F5
:1006230001357A9C031201357D9D03120135B69D78
:1006330003120135D99D03120135EB9D03120135D8
:10064300299E03120135A59E031201356D9F0312E6
:1006530001358F9F0312013526A00312013578A0BF
:1006630003120135A9A003120135B6A00312013507
:1006730020A10312013577A1031201357AA10312D8
:100683000135B3A103120135B6A103120135C0A18F
:100693000312013514A20312013555A203120135C9
:1006A30088A203120135C5A203120135C7A30312A1
:1006B30001356BA403120135D4A40312013512A52D
:1006C30003120135C5F603120135EDF603120135A8
:1006D3001AF70312013552F703120135B0F703126B
:1006E3000135FCF70312013563F803120135A3F852
:1006F30003120135E0F8031201350EF90312013537
:10070300B8F903120135C2F903120135CFF9031207
:10071300013502FA031201350EFA0312013526FAE6
:100723000312013530FA03120135A7A7041201356C
:10073300B5A704120135CDA704120135E4A70412AD
:100743000135008002120135AA8002120135BD81F4
:100753000212013539820212013557830212013523
:100763009383021201352E8402120135128502127F
:100773000135DE85021201356C8702120135DD87F2
:100783000212013597880212013589890212013557
:10079300C989021201357D8A02120135AF8A02121C
:1007A3000135A58C02120135E78C02120135058D46
:1007B300021201356B8D021201353A8E0212013598
:1007C300FE8E021201351D9102120135FDB4031292
:1007D3000135E7B50312013592B603120135E3B6CD
:1007E3000312013593B70312013504B8031201351F
:1007F300E9B8031201351DB90312013516BA031204
:10080300013553BA031201352FBB031201356EBBF9
:10081300031201358ABB03120135DF95041201353A
:100823006396041201358E9604120135A8970412BB
:100833000135BEFA03120135D4FA03120135F2FA77
:100843000312013503FC031201350DFC03120135BC
:1008530038FD031201352FFE031201359CFE0312EE
:100863000135FCD2031201352CD40312013563D4B4
:1008730003120135ADD40312013570D603120135CD
:100883006FCE01120135FBCE011201355FD001128B
:1008930001356BD001120135A6D00112013515D1F6
:1008A300011201351ED20112013527D30112013580
:1008B300EED3011201354BD50112013569D5011271
:1008C300013586D50112013533D601120135B0D673
:1008D30001120135D8D601120135A2D90112013511
:1008E300A7D901120135C0DB011201350EDC01125B
:1008F30001357EDC01120135BCDC0112013598DDC6
:100903000112013558DE01120135A4DE0112013551
:10091300A7DE01120135EBDE0112013533DF0112CF
:10092300013572DF0112013594DF01120135C8DF91
:10093300011201352BE001120135F2FA02120135E1
:1009430000FB0212013553FB0212013572FB021246
:100953000135B7FB02120135FBFC0212013596FD8E
:1009630002120135DAFD0212013504FE02120135CD
:1009730073FE02120135B9FE0212013530FF021275
:100983000135E1FF02120135F83500120135083651
:1009930000120135A9360012013505370012013561
:1009A300C23700120135DE3800120135103900124A
:1009B30001353F3900120135EC3A00120135633D30
:1009C30000120135D33F00120135C5400012013535
:1009D300BE4100120135C54300120135B94600126C
:1009E3000135E84700120135EC4900120135FC4A94
:1009F300001201358B4C001201357C4D001201357C
:100A0300CA4D00120135394E001201355D4E0012F8
:100A13000135AE4E001201354F53001201355054CB
:100A230000120135B15400120135DC5400120135B6
:100A3300A25500120135BCEE03120135C6EE0312B6
:100A430001350BEF031201351FEF03120135AFEF31
:100A530003120135E8EF0312013523F003120135C8
:100A63004CF003120135A0F003120135B5F0031267
:100A73000135D7F003120135ECF00312013500F113
:100A83000312013515F1031201354FF1031201353C
:100A93007BF10312013502F20312013545F2031211
:100AA30001356FF2031201359AF203120135BCA22C
:100AB3000412013593DC0212013576DD0212013591
:100AC300F1DD021201352CDE021201357DDF021247
:100AD30001350BE0021201359DE2021201354FE3AD
:100AE300021201355BE402120135CEE50212013533
:100AF30027E6021201352AE6031201356DE60312D9
:100B03000135F1E603120135C8E9031201356D938E
:100B1300041201351F94041201351B95041201358B
:100B23005A9504120135B49504120135BA99041289
:100B330001351D9A04120135BA9A04120135EF9A50
:100B4300041201351F9B041201355A9B041201350F
:100B53007A9B041201353FD803120135CBD8031217
:100B630001358AD903120135A2DA03120135BCDC3F
:100B730003120135D47300120135F97300120135E4
:100B8300C674001201359A750012013507760012FA
:100B93000135477600120135E376001201351778E7
:100BA30000120135F2780012013551790012013536
:100BB300DD79001201354B7A00120135D77A001224
:100BC30001351D7B001201358F7B00120135217C1D
:100BD30000120135C27C00120135E27C001201359E
:100BE3002A7D00120135737D001201358F7D0012BD
:100BF3000135B57D001201352F7E001201353D7E92
:100C030000120135CC7E00120135357F001201350B
:100C130094E10312013519E2031201355BE2031279
:100C230001353FE303120135ACE303120135F0E371
:100C33000312013534E40312013561E40312013573
:100C430089E403120135C1E403120135FFE4031201
:100C5300013526E503120135A0E503120135EAE566
:100C63000312013590A1021201352FA3021201359F
:100C730067A502120135BBA502120135E6A50212D2
:100C83000135C2A602120135F2A60212013521A7CF
:100C93000212013534A70212013575A7021201357C
:100CA300A2A702120135F0A7021201352CA80212E5
:100CB300013571A802120135BEA80212013538A907
:100CC3000212013579AB0212013563AD021201350F
:100CD3009FAD021201352EAF0212013573AF02121E
:100CE3000135E6AF021201353BB0021201359FB068
:100CF30002120135BEB102120135CFB10212013524
:100D03000080031201357980031201353386031203
:100D130001353E8703120135E788031201357589D2
:100D23000312013557BA01120135D8BA0112013540
:100D330005BB011201354EBB011201354FBC011237
:100D43000135A8BC0112013524BE01120135A6BE2E
:100D530001120135C1BE0112013532BF0112013545
:100D6300EFBF01120135B2C00112013540C10112BA
:100D73000135F7C1011201350AC201120135A3C2BF
:100D8300011201353AC30112013561C30112013564
:100D9300CAC30112013514C40112013562C4011220
:100DA300013509C501120135A7C50112013534C644
:100DB30001120135A5C601120135ECC60112013538
:100DC30044C70112013576C70112013537C8011234
:100DD30001353AC90112013583C901120135A0C990
:100DE30001120135BFC901120135F2CA01120135E1
:100DF300A9CB01120135CECB01120135E3CB011290
:100E0300013553CC0112013594CC01120135B8CD13
:100E13000112013539CE011201359F8903120135C3
:100E2300EA8903120135F68903120135CA8A0312CE
:100E33000135E18A031201351E8B031201354F8BF5
:100E430003120135878B03120135DD8B0312013544
:100E5300F38B031201352F8C03120135428C0312DD
:100E63000135698C031201359D8C03120135C38D45
:100E7300031201350D8F0312013509900312013559
:100E83001F9103120135F47F001201357FC0021256
:100E93000135AEC00212013500C40212013557C537
:100EA3000212013516C6021201357DC9021201353F
:100EB30069CA02120135BBCA02120135D5CA021230
:100EC300013507CB0212013512CB021201351BCBC0
:100ED30002120135CDCB021201359DCC0212013530
:100EE300E4CC021201354ACD02120135BCCD021207
:100EF300013503E10112013543E40112013549E4EF
:100F03000112013508EB011201352DEF01120135F4
:100F13008987041201351F880412013535880412AC
:100F230001358E8804120135D288041201350C89EB
:100F330004120135A48904120135138A0412013500
:100F43001C8A04120135288A04120135428A0412CC
:100F530001356C8A04120135818A04120135E38A52
:100F6300041201350A8B041201357AEA03120135A2
:100F730087EA03120135A1EA03120135D4EA031209
:100F8300013512EB0312013577EB031201358CEBBC
:100F93000312013597EB03120135A4EB031201355C
:100FA300BBEB03120135C9EB03120135D4EB03127A
:100FB3000135E0EB03120135EFEB03120135FAEBD8
:100FC300031201351DEC03120135C1EC0312013587
:100FD300D1EC03120135EBEC0312013508ED0312DA
:100FE300013523ED0312013548ED0312013553EDAD
:100FF3000312013568ED031201357CED031201354F
:10100300DDED03120135E3ED03120135E9ED0312C2
:101013000135EFED0312013507EE031201353AEE08
:101023000312013510CF02120135A7CF0212013589
:101033003FD0021201352FD10212013566D10212BF
:10104300013579D102120135E7D10212013582D37C
:1010530002120135A9D3021201354BD40212013514
:1010630080D40212013591D4021201350AD502123D
:1010730001352BD50212013543D5021201359BD61A
:1010830002120135A4D802120135F4DA0212013535
:10109300F7DB0212013546DC02120135F2B102120E
:1010A3000135EFB202120135DAB302120135E4B3AE
:1010B3000212013506B40212013512B402120135CF
:1010C30064B50212013593B502120135C3B602129B
:1010D300013505B70212013531B80212013507B9DE
:1010E3000212013559B902120135B8B9021201359C
:1010F300EFB9021201352ABA02120135C5BD021237
:101103000135DEBD0212013560BE021201356EBE2D
:1011130002120135C3BE02120135D1BE02120135DE
:101123003EBF02120135B0BF02120135F6BF0212F3
:10113300013583F201120135A5F2011201358FF455
:101143000112013534F80112013577F90112013525
:1011530051FA01120135889B04120135AD9B04122B
:1011630001351E9C0412013538A50312013541A532
:10117300031201354AA5031201357BA6031201357B
:101183009AA803120135D0A8031201350AA9031244
:10119300013540A9031201357AA903120135AEA91D
:1011A30003120135DAA90312013523AA031201350B
:1011B3005DAA03120135A5AA03120135FBAA031286
:1011C300013530AB031201358BAB03120135C5ABCF
:1011D3000312013516AC031201354CAC0312013571
:1011E30086AC03120135B4AC03120135D7AC03123C
:1011F300013574A804120135A0A804120135FBA817
:101203000412013505A90412013515A9041201358B
:10121300C2F203120135F9F20312013516F3031278
:101223000135FAF3031201357BF40312013552F54C
:1012330003120135C6C703120135EDC70312013589
:101243004BC803120135C2A9041201350E56001210
:1012530001351E5900120135B35A001201352E5BB8
:1012630000120135DA5B001201357D5C0012013595
:10127300155D00120135445D00120135DC61001279
:1012830001356E6200120135AA6300120135146440
:1012930000120135C864001201357E670012013562
:1012A300B867001201352268001201357F68001209
:1012B3000135DC6800120135396900120135246AF1
:1012C300001201356A6A00120135B56A0012013550
:1012D300D86A001201351F6C00120135336C0012FD
:1012E3000135A26D00120135E16D00120135216E49
:1012F30000120135746E00120135956E001201352E
:10130300D36E0012013511710012013552710012B2
:101313000135ED71001201355F7200120135A073C2
:101323000012013525C203120135CBC20312013568
:1013330010C40312013599C40312013586C5031283
:101343000135C5C5031201352FC6031201359DC6EC
:101353000312013564AB04120135D0A30412013525
:10136300E0A304120135EEA304120135D1A4041243
:101373000135388B04120135E08B04120135228EBE
:1013830004120135DCA50412013516A60412013539
:101393002AA60412013560A60412013572A60412AE
:1013A3000135A7A6041201353E9D041201358D9D1A
:1013B30004120135BF9D04120135519E04120135FB
:1013C300CD9E04120135EE7F00120135F17F00122C
:1013D3000135E7FF03120135F9FF03120135FCFF65
:1013E30003120135DF9E041201350D9F04120135EE
:1013F300329F04120135F99F04120135A8A104128A
:101403000135F7A1041201353CA204120135F87F1E
:1014130000120135D59004120135B392041201353F
:101423001F93041201356A93041201353C9303128E
:1014330001356793031201356795031201356797E9
:1014430003120135169803120135C89B03120135A7
:10145300339C0312013567CD03120135B1CD03125D
:10146300013501CE03120135A7CE0312013555CF45
:101473000312013574CF0312013593CF03120135E3
:10148300C1CF03120135F4CF031201356BD0031220
:101493000135EBD00312013585D1031201353AD260
:1014A300031201356BD2031201359BD203120135AE
:1014B300C9D203120135F3DC0312013560DD0312D7
:1014C300013543DE03120135F0DF031201351AE162
:1014D3000312013537E103120135D0E6021201355B
:1014E300F4E6021201351CE70212013544E7021249
:1014F30001356CE70212013590E702120135B4E7BA
:1015030002120135D8E702120135FCE70212013558
:101513002EE80212013552E8021201357CE802126C
:10152300013518E9021201353EE90212013564E979
:101533000212013589E902120135AEE902120135C1
:10154300D3E902120135F9E90212013521EA021247
:1015530001355FEA021201358BEA02120135B7EA5F
:1015630002120135DDEA0212013516EB02120135D2
:101573003EEB0212013577EB021201359FEB0212AB
:101583000135D8EB0212013500EC0212013526ECCD
:10159300021201354BEC021201358AEC02120135BD
:1015A300AEEC02120135D8EC02120135A7ED02129E
:1015B30001353FEF021201358FEF02120135A3F01F
:1015C30002120135C2F002120135E6F002120135B2
:1015D300D797041201350898041201353298041282
:1015E3000135F3980412013551990412013565ADA3
:1015F300031201357AAD03120135D6AD031201355D
:1016030041AE0312013589AE03120135FBAE03125D
:10161300013524AF0312013532AF0312013594AF04
:1016230003120135D2AF03120135EDAF03120135B9
:1016330088B00312013531B103120135B4B103127D
:101643000135EDB10312013578B203120135CFB282
:10165300031201352DB3031201353FB303120135D4
:1016630065B3031201356EB303120135C9B4031216
:10167300013593FD01120135FAFD01120135B7FE63
:101683000112013535FF01120135008004120135C5
:10169300338004120135658104120135A9810412D6
:1016A30001358582041201356EA0041201354CA167
:1016B300041201353D8E04120135828E0412013568
:1016C300C88E04120135919004120135CBA6041281
:1016D3000135E6A604120135F6A6041201355BA70F
:1016E300041201351FA9041201350AF10212013552
:1016F300E6F1021201352DF2021201356AF20212ED
:101703000135D8F20212013532F302120135A2F388
:101713000212013572F40212013561F5021201352C
:10172300D8F50212013574F70212013501F80212DD
:10173300013574F802120135F0F80212013507F988
:10174300021201352CFA0212013586FA0212013512
:10175300EBBB031201350BBC0312013511BD0312A0
:1017630001355DBD031201357DBD03120135D0BDC9
:10177300031201353DBE0312013583BE0312013549
:10178300E7BE0312013593C10312013514C20312DC
:1017930001353AA60112013567AB011201356AAE74
:1017A3000112013593AE01120135AAAE01120135C2
:1017B300D3AE0112013585AF011201356EB10112AD
:1017C3000135B9B201120135D2B20112013509B89E
:1017D3000112013542B80112013586B801120135F3
:1017E30097B901120135838A01120135D89001128C
:1017F30001359D9101120135C79301120135219BDA
:10180300011201354C9B01120135409C0112013537
:10181300829C011201354B9E01120135BD9E0112BE
:1018230001358A9F0112013518A0011201352CA040
:101833000112013503A401120135A6FE031201357D
:1018430018FF03120135D7A40412013583A504122E
:1018530001352A91021201353D96021201358DFFA1
:1018630001120135BBAA0412013538AB041201354C
:10187300587F00120135827F0012013501AB04123B
:101883000135D9FF01E066701008A3E066700A080D
:10189300A3E066700408A3E06622C008C3E096F5DF
:1018A3000808A3E096420808A3E096420808A3E0CC
:1018B300964208A2D265D033E5087001D3D008223E
:1018C300C3E7960809E7960809E7960809E7962209
:1018D300C3E09608A3E09608A3E09608A3E0962247
:1018E300C008C3E096F50808A3E096420808A3E001
:1018F30096420808A3E09645087001D3D008220851
:101903000808E630E7111221BC12191A080808C6A4
:101913004480C618181822181818E9799EC608CAF0
:10192300C608CBC608CCC6C370207996CACBCC7088
:1019330019798ECBCC70137986CC700EF9802ACAB4
:1019430033CACB33CBCC33CC331930E7F2CCCBCA4D
:101953003350147004EA30E00DE4CA3ACACB3BCBEF
:10196300CC3CCC500209C3E913C6CC182313C6CB15
:1019730018C6CA18C6F9221219BA20F01430E72B78
:1019830074FFFCFBFA747F8022E4FCFBFA74808012
:101993001AB48008BC00F2BB00EF800F50EBF9E4EF
:1019A300C39AFAE49BFBE49CFCE499C6CC18C6CB2F
:1019B30018C6CA18C6F922E4C9C608CAC608CBC6DF
:1019C300D3330308CCC63392F0C3947F402E9418CC
:1019D3004019C9B90704CACBCC225025C309CA335D
:1019E300CACB33CBCC33CC33D9F422F4600DC9CC7E
:1019F300C313CB13CBCA13CAD9F6CC22E4FCFBFA2C
:101A03002214FCFBFA22E62618461846184622E75B
:101A13002719471947194722181818E60846087066
:101A230009E626087005E633F4220822191919E796
:101A33000947097009E727097005E733F4220922EA
:101A4300E6084608C3134608336002E633F422E788
:101A5300094709C3134709336002E733F422121A13
:101A6300436025121A526020121A097003021A12D7
:101A7300080808E76670101819E766700A1819E76E
:101A83006670041819E76622F422121A43601C12C6
:101A93001A526017121A097007121A127001D32210
:101AA300C0D0121A127006D0D0B322C32233D0D0C2
:101AB300501430E0F6C3E7960809E7960809E7965D
:101AC3000809E796B32220E0D5E6970809E69708C8
:101AD30009E6970809E697B322121A43601B121A04
:101AE300526016121A097007121A12600CB322C040
:101AF300D0121A127005D0D022C32233D0D0501383
:101B030030E0EBC3E7960809E7960809E79608096A
:101B1300E7962220E0E4E6970809E6970809E697A6
:101B23000809E6972200121A43604F121A526012F4
:101B3300E7548066F6121A1B7011121A12703B09D1
:101B43000909F4F618F618F618F622121A2F70156A
:101B5300121A0908080860EAE6447FF61876801826
:101B6300E4F618F622121A096016121A127012E419
:101B7300F608F608F608E65480F609090918181855
:101B830022EAC0E0EBC0E0ECC0E0EDC0E0E687F0A5
:101B9300A4FBACF008E687F0A42CFCE435F0FA18BB
:101BA30009E687F0A42C4B60027401CA35F0FCE40B
:101BB30033FB09E687F0D2F7A42CCB35F0FC1908E8
:101BC300E687F0A42BCC35F0FBE433FD0819E68758
:101BD300F0D2E7A42C4ACB35F0CD3400FC09E687DC
:101BE300F0D2E7A42DCC35F0FDE433FA0918E687EB
:101BF300F0D2F7A42CCD35F0CA3400FC08E687F008
:101C0300D2E7D2F7A42ACC35F07A7E20E70B0ACBB1
:101C130033CBCD33CDCC33CC33CB3350147004ED35
:101C230030E00ED2F1E4CD3DCDCC3CCC3B5005DAD7
:101C330005C2F1EB547FC63308E63392F0FBE7337A
:101C430009E733C39A502D2B70190C0D4C4D7015A9
:101C53001806E608C333700D20F10AA2F013F6E468
:101C630018800B4024E4F630F002768018F618F65C
:101C730018F68024D33B14501074FFA2F013F61807
:101C83007680E418F618F6800FA2F013F618E63300
:101C930003F618ECF618EDF6D0E0FDD0E0FCD0E04A
:101CA300FBD0E0FA22121A526046121A43603DE951
:101CB300687008F618F618F618F622748067F7129B
:101CC3001CDC090909748067F722121A43601D128C
:101CD3001A527005191919801A121A1B701F121A39
:101CE3002FC37003E6673319191940071818182210
:101CF30008080874FFF618F618F618F622121A2FB9
:101D03006017121A12702192F0121A0970195017E3
:101D130020F014080808090909E7F61819E7F61866
:101D230019E7F61819E7F622121A0960E6E869704E
:101D33001F0808E62480F608E436F618547FB47FBB
:101D43000CE654806007F6E418F618F622181822F9
:101D5300E9C6CC08C6CD08C6CE08C6CFC0E0E8C0E9
:101D6300E0EAC0E0EBC0E009E9F809E7FA09E7FBBC
:101D7300E6F918E6F8C3EC98ED99EE9AEBC2E7F5AD
:101D8300F0EFC2E795F0500E600CEBCFFBEACEFA12
:101D9300E9CDF9E8CCF8EAA2E7D2E7FAEB33FB1393
:101DA300F5F0EEA2E7D2E7FEEF33FFC5F013A2E7AB
:101DB30030E601B313C5F0C3C0E0C0F07F00C39B9E
:101DC300FB605E9418600F401D14601AD0E023F985
:101DD300D0E0F8021EAE8AF0E9486003D2F0E4AF27
:101DE300F0FAF9F8803BEB30E40D89F0EA6003D2B6
:101DF300F0E4AFF0F9CAF8EB30E30D88F0EF6002DE
:101E0300D2F0AFF0E4CAC9F8EB54076014FBC3EA9D
:101E130013FAE913F9E813F8EF135002D2E0FFDBEA
:101E2300EDD0E0C0E030E739C3E49FFFF5F0EC9874
:101E3300FC42F0ED99FD42F0EE9AFE42F0D0E0F95B
:101E4300D0E0F8E5F0607AE923F9EE20E742D80222
:101E53008067C3EF33FFEC33FCED33FDEE33FE80DD
:101E6300EAEC28FCED39FDEE3AFED0E023F9D0E0B0
:101E7300F84002801BC3EE13FEED13FDEC13FCEFE1
:101E8300135002D2E0FF08B800067F7F74FF802E54
:101E9300EF3350178CF020F00260100CBC000C0DD7
:101EA300BD00080EBE000408E860DFE933E813FF55
:101EB300EE2313FE4F4D4C8008E95480FFE4FEFDF2
:101EC300FCEE33EF33F47004FCFD7E80D0E0FBD0F6
:101ED300E0FAD0E0F8D0E0CFC618CEC618CDC618C9
:101EE300CCC6F922121A43700418181822121A5277
:101EF300700D74FFF61819F61819F61819F622E77B
:101F0300548066F6121A09700F121A1270F014F642
:101F130008F608F608F680D1121A12700CF608F6C5
:101F230008768008E6447F80EC121A32700C121A8D
:101F33001E60BFE65480F6E480BB121A1E700519BA
:101F4300191980A5E869700C763F18768018F61881
:101F5300F6E8F922E6CDC0E018ECC0E0E633CD3375
:101F6300CDD313F6E719FCE7191933CC33C3947FA8
:101F7300400ECD9D502408E65480F6E418F6800FF9
:101F8300F4043D14501408E6447FF6187680E418F0
:101F9300F618F6D0E0FCD0E0FD22CCD313CCFD182C
:101FA300E4C6CBC0E018E4C6CAC0E00808ED08C622
:101FB30033E613F618E433C675F003C3CA97CA09A8
:101FC300CB97CB199C40047D08802EBD00030220D3
:101FD3009016B6FF050606081618C3CA33CACB33D4
:101FE300CB33CA27CA09CB37CB193CC37D08803E04
:101FF300187D0820E75CC633C6CA33CACB33CB335C
:10200300DDF1D5F0EB30E77BCA97CA09CB974ACB12
:10201300199C406F4B7025E620E0218066187D08EF
:10202300C3CA97CA09CB97CB199CD3C633C6CA3345
:10203300CACB33CB3350C9DDE7D5F0E1D3E4C636A1
:10204300C608C636C608C636C608C636C618181821
:102053008031C3CA97CA09CB97CB199CB34097C6A3
:1020630033C6CA33CACB33CB33DD34D5F02EC6A245
:10207300E0C640C8CA27CA09CB37194A70BECB3C51
:10208300B480B90808E63308E633601F181818D07F
:10209300E0FAD0E0FBD0E0FCD0E0FD22187D08CAD6
:1020A30027CA09CB37CB193CD3808013F618E4B683
:1020B3007F11F618B6FF0EF618C60470D20808761C
:1020C3008080CAF618F618F680C5080808EAC0E04A
:1020D300EBC0E086F0E7A4FA180986F0E7A42AFA31
:1020E300180986F0E7A42AFA180986F0E7A42AFA61
:1020F3001986F0E7A4FBE5F02AFA190886F0E7A4AD
:102103002BFBE5F03AFA190886F0E7A42BFBE5F080
:102113003AFA18180986F0E7A4C5F02BFBE43AFA5B
:102123001908E7C5F0C6A426F6E5F03BFBE43AFA46
:102133001886F0E7A4F6E5F00826F6E43B08F6E493
:102143003A08F6D0E0FBD0E0FA22E4CFC0E0E4CED8
:10215300C0E0E4CDC0E0E4CCC0E075F020E626F6B4
:1021630008E633F608E633F608E633F6181818ECF3
:1021730033FCED33FDEE33FEEF33FFC3EC9709ED94
:102183009709EE9709EF97191919400FFFEC97FC80
:1021930009ED97FD09EE97FE191906D5F0BFECF787
:1021A30009EDF709EEF709EFF7191919D0E0FCD09B
:1021B300E0FDD0E0FED0E0FF22181818E4C396F645
:1021C30008E496F608E496F608E496F62260160804
:1021D3000808C6C313C618C613C618C613C618C63E
:1021E30013C6D5E0EA2270090808082260161818F9
:1021F30018C6C333C608C633C608C633C608C633B3
:10220300C6D5E0EA22E627F60809E637F60809E626
:1022130037F60809E637F622E026F608A3E036F695
:1022230008A3E036F608A3E036F622E026F008A37A
:10223300E036F008A3E036F008A3E036F022C3E668
:1022430097F60809E697F60809E697F60809E69768
:10225300F622C3E096F008A3E096F008A3E096F018
:1022630008A3E096F022E056F608A3E056F608A38A
:10227300E056F608A3E056F622E056F008A3E0562F
:10228300F008A3E056F008A3E056F022E647F6086C
:1022930009E647F60809E647F60809E647F622E0A5
:1022A300F608A3E0F608A3E0F608A3E0F622E6F0BA
:1022B30008A3E6F008A3E6F008A3E6F022E0FAA3F9
:1022C300E0FBA3E0FCA3E0FD22EAF0A3EBF0A3EC28
:1022D300F0A3EDF022E0F8A3E0F9A3E0FAA3E0FB1A
:1022E30022E8F0A3E9F0A3EAF0A3EBF022CAC0E0EE
:1022F300E6F0A308DAFAD0E0FA22CAC0E0E0A3C508
:1023030082CCC582C583CDC583F0A3C582CCC582EB
:10231300C583CDC583DAE6D0E0CA22C3E498F8E4E6
:1023230099F912235F8026C3E49AFAE49BFBE92020
:10233300E7E912235FE498F8E499F922C3E498F8F3
:10234300E499F912235FE498F8E499F9C3E49AFA5B
:10235300E49BFB22EB20E7CFE920E7E0B90010BBC9
:102363000008E88AF084F8AAF022E4FBC8FA22EB1A
:1023730070227B10C833C8C933C9335007C39AC30B
:10238300DBF280069A50012ADBEAC833F4C8C9336A
:10239300F4C9FA2275F008E4C833C8C933C933C98C
:1023A3009AC99B5004C92AC93BD5F0ECFBC833F446
:1023B300C8E4C9FA22600D08C6A2E713C618C613FB
:1023C300C6D5E0F322600C08C6C313C618C613C6ED
:1023D300D5E0F422700422600D18C6C333C608C6C4
:1023E30033C6D5E0F41822251810AF08F518400CB1
:1023F30015198008F51840021519D2AF2200C0D074
:10240300251810AF08F518500C05198008F5185059
:10241300020519D2AFD0D0222518F58210AF08F5E6
:1024230018400C15198008F51840021519D2AF850C
:102433001983222518F582E43519F583222518F826
:10244300E43519F9222518FAE43519FB222518FC7D
:10245300E43519FD22E4732518C582C0E0E519347B
:10246300FFC583C0E0E518C3958224F810AF088543
:1024730083198582188008858319858218D2AFCE87
:10248300F0A3E520F0A37808E608F0A3DEFAEFF066
:10249300A3E58124FAF8E608F0A3E608F0A3E6082A
:1024A300F0A30808E608F0A3E608F0A31581158158
:1024B300D0E0FED0E0F8158115811581E8C0E0EE8B
:1024C300C0E0222518C582C0E0E51934FFC583C0EA
:1024D300E0E518C3958224F910AF08858319858236
:1024E300188008858319858218D2AFCEF0A3E52022
:1024F300F0A37808E608F0A3DEFAEFF0A3E5812461
:10250300FBF8E608F0A3E608F0A30808E608F0A342
:10251300E608F0A315811581D0E0FED0E0F815811F
:102523001581E8C0E0EEC0E022851983851882E0BA
:10253300A3FEE0A3F5207808E0A3F608DFFAE0A302
:10254300FFE0A3C0E0E0A3C0E0E0A3C0E0E0A3C0DD
:10255300E0E0A3C0E010AF088582188583198008E6
:10256300858218858319D2AFD083D0820201328548
:102573001983851882E0A3FEE0A3F5207808E0A381
:10258300F608DFFAE0A3FFE0A3C0E0E0A3C0E0E0C9
:10259300A3C0E0E0A3C0E010AF08858218858319CB
:1025A3008008858218858319D2AFD083D08222C058
:1025B300D02518C582C0E0E51934FFC583C0E0E526
:1025C30018C3958224F310AF088583198582188078
:1025D30008858319858218D2AFC8F0A3E9F0A3EA6E
:1025E300F0A3EBF0A37908E709F0A3D8FAECF0A382
:1025F300EDF0A3EEF0A3EFF0A3D0E0F0A3D0E0F072
:10260300A3D0E0F0A3E520F0A3E5F0F0A322851921
:1026130083851882E0C0E0A3E0F9A3E0FAA3E0FB1E
:10262300A37808E0F608A3DFFAE0FCA3E0FDA3E04B
:10263300FEA3E0FFA3E0C0E0A3E0C0E0A3E0F5D089
:10264300A3E0F520A3E0A3F5F010AF088583198577
:1026530082188008858319858218D2AFD082D083EF
:10266300D0E0F8D0E0327404800674028002740172
:10267300C0E0F40412241BD0E01222F02274048080
:102683000474028000CCC0E0EDC0E0E518C39CCC2C
:10269300AD1950011D10AF068C188D1980068C18CA
:1026A3008D19D2AF1222FDD0E0FDD0E0FC22D08301
:1026B300D082E9C0E0E493A3C386F0C5F095F0F9B6
:1026C30008E493A386F0C5F095F0700BE493A3C3DD
:1026D300994005E9048002A3E475F002A42582F57C
:1026E30082E5F03583F583D0E0F9E493A3C0E0E419
:1026F30093C0E022D083D082ECC0E0EDC0E0E4934D
:10270300A3FCE493A3FDED4C600D122743EC24FFDF
:10271300FCED34FFFD80EFE493A3FCE493A3FDED14
:102723004C600D122782EC24FFFCED34FFFD80EF9B
:10273300D0E0FDD0E0FCE493A3C0E0E493C0E0224A
:10274300C0E0C3E49396087401939618400FE49392
:1027530066700808740193661870007019A3A3C308
:10276300E49396087401939618A3A3400DD0E0D088
:10277300E0D0E0022733A3A3A3A3A3A3D0E022C006
:10278300E0C0F088F0E4936670080874019366185B
:102793007000A8F0A3A3700BD0F0D0E0D0E0D0E09D
:0A27A300022733A3A3D0F0D0E022F8
:1027B00074F61224C6EAFEEBFF8C088D09EE243471
:1027C000F8E43FF9E8FCE9FDEE2435122AEAFAEED6
:1027D0002437122AEAF88508F0A4C885F00A85098A
:1027E000F0A4250AF9EA28F8E439F97A257B0012E1
:1027F000235FEA8C828D83F0FA131313541FF8EED3
:1028000028F8E43FF9E8245DF582E439F583E0C077
:10281000E074075AF8D0E0B800028004C313D8FC73
:10282000A2E0EE50082434F582E43F8018243612EA
:102830002AEAF5F0EA84A8F0EE28F8E43FF9E82463
:1028400038F582E439F583E0F97F0302257274F7E5
:102850001224C6EAFEEBFFEE2434122AEAC0E0EEB0
:102860002435F582E43FF583D0E0F08E828F83A398
:10287000A3A3A3A3A3A3C082C0838E828F83A3A399
:10288000A3A3A3122953D083D082E0C398F508A351
:10289000E099F509EE247F122AEA6401705DEE24C6
:1028A0008012294D8E828F83A3A3A3A3A3A3A31277
:1028B0002C8D8E828F83A3A3A3A3A3E0FAA3E0FBB6
:1028C000C3EA9CEB9D5010C3EC98ED99402DC3EAF0
:1028D00098EB995026800EC3EA98EB994007C3EC19
:1028E00098ED9940167CB07D04EEFAEFFB120DC610
:1028F000EE247FF582E43FF583E4F0AC08AD09EE09
:10290000FAEFFB1227B0E9F91235327F0202257285
:10291000C082C083851882851983122953C3EA9C1B
:10292000EB9D5010C3EC98ED99401BC3EA98EB99CE
:102930005014800EC3EA98EB994007C3EC98ED99C8
:102940004004790180027900D083D08222F582E4AC
:102950003FF583E0F8A3E0F922EAC39CFAEB9DFB84
:102960002274EF1224C6900376E064086005E064E8
:1029700007702A9061C8E060249003A4E0F4601D11
:10298000E0F875F00AA4C8AAF02AF974A628FE7423
:102990000339FF8E828F83A3A3A3E07003022A6F03
:1029A000906060E0C0E0EE2468F582E43FF583D0FB
:1029B000E0F0750C20750D05750800750900E5D966
:1029C00014F50AE5D95403F50E60127403650E6020
:1029D00043E50A600AEE2467122AEA7002807590C5
:1029E000051BE06401601F122AE760047A0480027C
:1029F0007A00E50AC39AFA95E0FB120C768A088BF6
:102A000009EA450970051210068064122AE770046D
:102A10008A0C8B0DE50A6012850C82850D83F50BFF
:102A2000E5D9F0A3150BE50B70F6122AE7604474A4
:102A3000FC250AF50A780C12266DAC0AA90EEEFAEE
:102A4000EFFB120E807402122400E97026AA08AB74
:102A500009121678793D8E828F83A3A3A3A3E0FA8F
:102A60007B00120AD8EEFAEFFB120DEA120E9279F1
:102A700000806F7403650E6051850A10751100782F
:102A80001012266DAC0CAD0DAA08AB09120E4474E1
:102A900002122400EE2468122AEA64807004747F13
:102AA0008001E0F50C780C122671E50EF50C780C1F
:102AB000122671A90AAC08AD099003A4E0FA7B00C4
:102AC000120AAE74021224008013900376E06408A8
:102AD000600BAC0CAD0DEEFAEFFB120F04121012EE
:102AE00079017F0A022572EE2482F582E43FF583A4
:102AF000E02274F21224C674FC1223EAEAFEEBFF11
:102B00008909A2AFE433F508C2AF022BAEE0601B27
:102B1000780C12266DAC0BA90EEEFAEFFB120E7AB2
:102B200074021224007404250BF50B7401250BF5B7
:102B3000D9850ED9E50B6018F50A850C82850D83C1
:102B4000E0F5D9A385820C85830D150AE50A70EAA4
:102B500075E195EE2463F8E43FF97A007B00A2AFBB
:102B6000E433F50BC2AF122C89EC4D6032888289B8
:102B700083E0FAA3E0FB8A828B83122C8D88828902
:102B800083ECF0A3EDF08A828B83E4F0A3F0122CA7
:102B900089EC4D700A88828983A3A3E4F0A3F0E551
:102BA0000BA2E092AF1216789004B7E004F0EE2486
:102BB0006312294DE8496064EE2463122AEA240274
:102BC000F8A3E03400F988828983E5822402F50CB9
:102BD000E43583F50DE0F50BA3E0F50EEE2462126B
:102BE0002AEA640170369061D0E0F8122AE76004A6
:102BF0007C0480027C007480C398FA95E0FBE50BAE
:102C00002CF8E43400F9E82402F8500109C3EA98EA
:102C1000EB99A2D265D0334003022B0D9004B7E0AC
:102C2000604D9004B8E0F89004B7E0C398500C747D
:102C3000026509703A9004B9E060348E828F83A3F4
:102C4000A3A3A3E0851882851983122C7F74021236
:102C50002436E8122C7F9004B6E028F07402122487
:102C600050AA18AB197901120B029004B7E4F0E5F1
:102C700008A2E092AF74041224007F07022572F0CC
:102C8000A3E4F09004B7E0F82288828983E0FCA3F3
:102C9000E0FD22008521878522C622C0E074EB1268
:102CA00025B2A2AFE433F508C2AF759B00906182F4
:102CB000E0A2E05030E591A2E0502A7591FE740147
:102CC00065217021122E2E120F52122E1C122680F8
:102CD0001232DC7404122400E964017005790112D7
:102CE0000F9A122961906182E0A2E5505DE591A200
:102CF000E550577591DF900376E064076005E06466
:102D000008702F122E2E74016521703E120F521280
:102D10002E1C1226801232DC7404122400E9640195
:102D200070057901120F9A7901EEFAEFFB122AF27F
:102D30008018E0640D7013900398E004F06428702C
:102D400002E4F07A00E0F9121018906182E0A2E645
:102D50004003022DF1E591A2E64003022DF17591A9
:102D6000BF900376E064057008120F3A120F468098
:102D700003120F40752100120FA6E9900377F07936
:102D800000120F9A120D367A017B00900375E0F95C
:102D9000121648907803E06442705690051FE014C4
:102DA000F0704EC2AF122DA800782AD0E0F618D0ED
:102DB000E0F6E59F5407F87005750DFF8003750D6B
:102DC0007FC4C0E07829E6F50A08E6550DF50B74D6
:102DD0000B780A1223C8D0E0250AF8906270E0A2AE
:102DE000E740F8E8C333906272F0906270E0D2E09E
:102DF000F0906181E0A2E35009E5E9A2E350037598
:102E0000E9F7A3E0A2E75009E591A2E75003759125
:102E10007FE508A2E092AF7F080226118E828F83A1
:102E2000E0F8A3E0C82416F582E438F58322900385
:102E3000A4E0F875F00AA4C8AAF02AF974A628FE3E
:102E4000740339FF22C0E0C0D0C082C08390618388
:102E5000E0A2E05009E5BFA2E0500375BFFEE0A28A
:102E6000E15009E5BFA2E1500375BFFDE0A2E250C9
:102E700009E5BFA2E2500375BFFBE0A2E35009E5FC
:102E8000BFA2E3500375BFF7E0A2E45009E5BFA27B
:102E9000E4500375BFEFE0A2E55009E5BFA2E5509D
:102EA0000375BFDFE0A2E65009E5BFA2E650037557
:102EB000BFBFD083D082D0D0D0E032C0E074F21255
:102EC00025B2E5A7A2E6500FE5A1A2E6500953A757
:102ED000BF75A1BF122F0FE5A7A2E5500CE5A1A277
:102EE000E5500653A7DF75A1DFE5A7A2E15009E58C
:102EF000A1A2E1500375A1FDE5A7A2E2500CE5A156
:102F0000A2E2500653A7FB75A1FB7F0102261174B4
:102F1000F71224C6752101900376E064067015123D
:102F20000EB68A828B83A3A3A3A3A3A3E0FAA3E094
:102F3000FB120F28A2AFE433FED2AF90037CE06413
:102F40000170187A207B00900375E0F91217747AEB
:102F5000207B00900375E0F912164E906182E0D25A
:102F6000E6F090051CE0602185C622801690037B68
:102F7000E064017008E5C654F84405F5C653BEFC8C
:102F8000122C947401652160E4EEA2E092AF7F02FE
:102F9000022572008E238F24858228858327851839
:102FA00082851983E0CEA3E0CF852882852783EB35
:102FB000C9EAC8EDCBECCA75F010C3E833C8E933F1
:102FC000C9EA33CAEB33CBC3EA9EF526EB9FF5255E
:102FD000B35004AB25AA26EC33CCED33CDD5F0DAD3
:102FE000AE23AF242274E91224C674FA1223EAEA4B
:102FF000FEEBFF8C0A8D0B120F5EEAF8EBF9ECFA90
:10300000EDFB8E828F831222E4900376E024F7C3D7
:103010009405500675140102314C120EB68A088BC5
:1030200009EA45097003023149EEFCEFFDAA18AB2D
:1030300019120F58850882850983A3A3780C1222E0
:10304000A29089F2780C12226985188285198378FA
:10305000101222A29089F27810122269780C79104D
:103060001218C3501F780C79101222419089B2783F
:103070000C1218E34047850C14850D15850E168536
:103080000F1780459089B285101485111585121689
:103090008513177814790C12224178141218E35012
:1030A0001C751400751500751600751701781479D4
:1030B000101222417814790C122208800C75140128
:1030C000751500751600751700740978141221E93A
:1030D000908996780C1222A27814790C12214D85D1
:1030E0000882850983A3A3A3A3A3A312316A122391
:1030F0005F880C890DE4F50EF50F7814790C122217
:1031000008740412243612316A12235FE8FA8A0C1A
:10311000E4F50D7814790C1218C350077814790C63
:10312000122241900376E06408600AE064066005BC
:10313000E06405702090897A78141218E350169094
:103140008972781412221B800C7514007515007595
:103150001600751700850A82850B8378141222B138
:1031600074061224007F10022572E0F8A3E0F97AB9
:10317000D07B032274F71224C6120F7090051AE058
:1031800064017010906245E4F0A3F053F4F343FE41
:103190000C5390F3120F16E5C654B84441F5C6E53A
:1031A0009E5447644170F8906185740FF090051843
:1031B000E0F47002A3E0604E900519E0600814602E
:1031C0001B14602E8040750801750900900518E0F9
:1031D00078081223D7E508F45280802A7508017513
:1031E0000900900518E078081223D7E508F45290FA
:1031F0008014750801750900900518E078081223FD
:10320000D7E508F452A079007F0202257274F71204
:1032100024C6E9FEEAFF120F7074016E700C7A800A
:103220007B00900375E0F91216489035F0E493F4B2
:103230006008E493F9120D2A800953C6B8E59E543C
:103240004770FA120F1C90051AE064017003120D0A
:1032500048900518E0F47002A3E0604B900519E077
:10326000600814601A14602C803D7508017509000F
:10327000900518E078081223D7E508428080287569
:103280000801750900900518E078081223D7E508B1
:1032900042908013750801750900900518E07808C0
:1032A0001223D7E50842A0120EB68A088B09A80897
:1032B000A909E8496014E5E170FCE82414F582E40A
:1032C00039F583E0F46003E0F5E174016F700A7A88
:1032D00001900375E0F91216D802320874F1122435
:1032E000C68A088B098C0A8D0B9089F27808122205
:1032F00069740F122436780C1222A29089F2780C8D
:103300001222697808790C1218C39089B25010788B
:1033100008790C12224178081218E34014800E78C4
:103320000C7908122241780C1218E35004790180BC
:103330000279007F0802257274ED1224C68A088B78
:10334000098C0A8D0B9089F2780812226974131285
:103350002436780C1222A29089F2780C1222697815
:103360000C79081218C340117808790C122241AA6E
:1033700008AB09AC0AAD0B80227510007511007501
:1033800012007513017810790C1222417810790817
:10339000122208AA10AB11AC12AD137F0C022572D9
:1033A0009089F278081222A28A828B8378081222EE
:1033B0007C7F0402257274F51224C68C828D83787A
:1033C000081222A28A828B83780812225512340EA8
:1033D000C3E09CF0A3E09D1234004022908A06785E
:1033E000081222A28A828B83780812222E8A828B6C
:1033F00083A3A3A3A3E02420F0A3E0344EF080A095
:10340000F088828983C3E09420A3E0944E22EA24CA
:1034100004F8E43BF98C828D83A3A3A3A3E0FCA36F
:10342000E0FD888289832274F51224C6E9FE9004A7
:10343000D2E0FAA3E0FBEE29F8E433F9745D28F555
:1034400082748839F583E02AF508A3E03BF5097812
:103450000812266D9089D21222C0122F9474021283
:1034600024008A088B098C0A8D0B741078081221AD
:10347000D0AA08AB097F0402257274F11224C68A0F
:103480000C8B0D8C0E8D0F74111224361226847441
:1034900011122436E02401F508A3E03400F509E414
:1034A000F50AF50B780C79081220CD90896E780812
:1034B0001222A2780C79081220CDAA0CAB0DAC0E0A
:1034C000AD0F122F9474021224008B09EA45096093
:1034D000047A0180027A00EC2AFCE43DFD741312A8
:1034E0002436E0F8A3E0F9E8FEE9FFECF8EDF97A1C
:1034F000717B0212235F88088909E4F50AF50B8EB7
:10350000828F8378081222B1ECF8EDF97A717B0290
:1035100012235F8A088B09740578081223D78E82DC
:103520008F83A3A3A3A3E508F0A3E509F07F080216
:103530002572C082C083E9906000F0D083D08222DF
:10354000C0E074F21225B2A2AFE433FED2AFE58937
:10355000A2E050031213CC758900C2C5EEF8EEA2AA
:10356000E092AF7F01022611C0E074F21225B2A2F0
:10357000AFE433FED2AFE58AA2E64006E58AA2E7D1
:1035800050031213CC758A00758A00C2EBEEF8EE78
:10359000A2E092AF7F01022611C0E0C0D0E8C0E0F7
:1035A000E9C0E0A2AFE433F8D2AF758B00C2E8E81F
:1035B000F9E8A2E092AFD0E0F9D0E0F8D0D0D0E0C6
:1035C00032C0E0C0D0E8C0E0E9C0E0A2AFE433F828
:1035D000D2AFC2C7751A00E8F9E8A2E092AFD0E016
:0F35E000F9D0E0F8D0D0D0E032C2AF0200002224
:1035F000FFFFFFFFFFFFFFFFC082C083E99016A619
:10360000F0D083D08202013274F612245AE990027B
:10361000E8F0900348E0F508750900740278081294
:1036200023D7AA08AB091216C09002E9123FBB903B
:1036300002E91243A8606F900348E075F003A4FA12
:10364000ABF01216C0900306123FBB900306124364
:10365000A8700B9002E91243791216C680489003B5
:103660000612530D7AFF7BFF1213247A0080198A09
:1036700008750900740278081223D7124DB574FF3B
:103680001237BBE4F0A3F00A900348E0F8EAC398CD
:1036900040DD79051209A09002E8E0F912088C7A61
:1036A0002A7B0A120C16024E5874F412245A8A0805
:1036B0008B09EB548060479002E8E0F91216308ADB
:1036C0000A8B0BAE0AAF0BEE4F602A8E828F83E01F
:1036D00064B0701A1209B2E960148E828F83A3A3BA
:1036E000A3A3E0F9EE2405FAE43FFB120982EEFA07
:1036F000EFFB12161EAA08E5096480FB80047A001D
:103700007B0002390B74F212245A74FB1223EAEA8A
:10371000FEEBFFEE4F60457403122436EEF0A3EF8C
:10372000F0851882851983ECF0A3EDF07402122461
:1037300036E9F0AA18AB19120886E9F50870757415
:1037400013122436E0F50AA3E0F50BE50A450B60F9
:10375000638E828F83123D44EE4F700575080280A0
:10376000537A067B001216C08A0C8B0DA80CA90D8B
:10377000E8497005750813803B88828983E4123715
:10378000BBEEF0A3EF1238D7E50AF0A3E50BF090FB
:1037900002EC1238D09002EC6017E0FCA3E080034A
:1037A000EAFCEBFD8C828D831238D070F38C828D15
:1037B000831249D0A908740502558DF0A31252EF67
:1037C000A32274F212245A8908890C750D0074031F
:1037D000780C1223D7850C0A850D0B9002EBF09024
:1037E00002E91247DB1238CE602E1216C67900802D
:1037F0001D890C750D007402780C1223D79002E914
:10380000124C748882F583A3A3E4F0A3F00990031B
:1038100048E0F8E9C39840D9900348E0FA850AF0F7
:10382000A4CAA8F0850BF0A428FB1216C08A0C8B42
:103830000DAE0CAF0DEE4F70030238C4900348E09C
:10384000FC850AF0A4CCA8F0850BF0A428FD790033
:1038500012160C7C0080318D0C750D007403780CF1
:103860001223D78A828B831238C988828983E4F035
:103870001238D6A3A3F0A3F00DEDC3950840D8EEFF
:10388000250AFEEF350BFF0C900348E0F8ECC398D7
:1038900050288C0C750D007402780C1223D79002FE
:1038A000E91238C9E82402500109FAE9FB8A828B3F
:1038B00083EEF0A3EFF07D0080BFE5089002EBF00F
:1038C000790080027913025590124C78F922A3A353
:1038D00012437DEA4B22A31252EFA3A3A32274F456
:1038E00012245A7900EAA2E0501F75085075098920
:1038F000780812266D79107C047D007AA87B161258
:10390000099A7402122400E9F980007F0402252C30
:10391000C082C0839002EC1243A8601C8882898315
:10392000A3A3E06A7003A3E06B8882898370E8A395
:10393000A3A3A312437980047A007B0002360174AA
:10394000F212245A74FD1223EAEAFEEBFF85188274
:10395000851983E4F0A3F074021224367401F01286
:1039600043A57014120B501216C09002EF123FBB09
:103970001243A57003023AD11240BBEE2404F50AAB
:10398000E43FF50B850A82F583E024FE603C24FCCD
:10399000607424FE607E24FE7003023A2124FE70CF
:1039A00003023A2E24FE7003023A3B24FE70030207
:1039B0003A4824FE7003023A5524FC7003023A761A
:1039C00024FE7003023A8E023ACA120B509002F1A2
:1039D000EAF0A3EB123ADD1205CEE96003023ACA1F
:1039E0009002F11226848E828F83A3A3A3A3A31235
:1039F000530D85088285098312437912096A74027E
:103A0000122400023ACAAC18AD19EEFAEFFB120903
:103A1000B8023A99AC18AD19EEFAEFFB1209BE8064
:103A200078AC18AD19EEFAEFFB1209C4806BAC1834
:103A3000AD19EEFAEFFB1209CA805EAC18AD19EEB3
:103A4000FAEFFB1209D08051AC18AD19EEFAEFFB7A
:103A50001209D680447402122440880C890D780C17
:103A600012266D7402122450EEFAEFFB1209DC7478
:103A7000021224008023AC18AD19EEFAEFFB1209F4
:103A8000E2E9F870167402122436E4F0803CAC18B7
:103A9000AD19EEFAEFFB1209E8E9F8E8602C8E8226
:103AA0008F83A3E064146022850A82850B83E090F3
:103AB00002F1F08518828519831243799002F2127F
:103AC0003FBBE8A3123ADD1205C8EEFAEFFB12097C
:103AD000407402122436E0F9740302558DF07CF133
:103AE0007D0285088285098312437D2274E81224B1
:103AF0005A74FA1223EA7404122436ECF0A3EDF09F
:103B00008A128B13EA2405F50EE43513F50FEA2427
:103B100002F510E43513F511851082F5831243790F
:103B20001206BE8A0A8B0B7508007C037D007900A3
:103B30007AF17B0212160CE50E2402F516E4350F1D
:103B4000F5177402122440880C890D780C12266D2A
:103B5000850E82850F83A3A3A3A3E0F50C750D004A
:103B6000780C12266DE50E2405F50CE4350FF50DE5
:103B7000780C12266D8516828517831246801208EE
:103B8000A474061224008A0C8B0DE50C450D7003FD
:103B9000023D0D8020851882851983E08882898303
:103BA000F00508851882851983A3E0C0E0123D4E18
:103BB000D0E0F00508E50A24FBFAE50B34FFFBC36F
:103BC000E5089AE49B4003023D0D7E007F008512CC
:103BD00082851383A3A3A3A3E0F5097809122671B4
:103BE000E4F514F515781412266D7514EE751502AA
:103BF000781412266D9002EF12268474091224366E
:103C0000122684E50A24F9F9AC0CAD0D85108285E5
:103C10001183124379120A127409122400E9600315
:103C2000023CAE850E82850F83A3A3A3A3A3A3A307
:103C3000E0F89002EEE0687075E0F5148E157814E7
:103C400012266D12530A850E82850F83A3A3A3A3A8
:103C5000A3A3A3A31243791216067402122400E947
:103C6000604C9002F21243A8703BE4F514781412F1
:103C7000266D7CFF7DFF79078510828511831243B5
:103C80007912097C74021224001243AE7017850E5B
:103C900082850F831254A77404122436124D6812C1
:103CA00046B1023D41850C82850D83123D44A81822
:103CB000A91988148915781412266D7404122436F3
:103CC000122684851682851783123FB11208B074BC
:103CD000041224008A0C8B0DEE4F7003023B8A12F3
:103CE0003D4EEE123D59124667EF123D59F8A3E0E2
:103CF0003400F9E50C450D6003023B958882898309
:103D000074FFF00508123D4E74FFF00508E50860E9
:103D10001A1313543F123FC11205DAE960099002E9
:103D2000F212437912167879008016850E82850F7B
:103D3000831254A77404122436124D681249D079A4
:103D40000A02463AA3A3A3A3E0FEA3E0FF22A80829
:103D50009002F2E02812466722F00508089002F26D
:103D6000E0282274E812245A74FA1223EA74021228
:103D70002436123FBB7404122436ECF0A3EDF07429
:103D800002122436E02405124650E0F50CA3E0F5BB
:103D90000D7402122436E02402F510A3E03400F57D
:103DA00011851082F5831243791206BE75080075DD
:103DB0000900EA24FCFEEB34FFFF8008050CE50C4B
:103DC0007002050DA808C3EE98EF94005003023F5F
:103DD0006DA818A919880E890F780E12266D851402
:103DE00082851583A3A3A3A312531112266DE51494
:103DF0002405F50EE43515F50F780E12266D8514A1
:103E000082851583123FAF1208A474061224008A1B
:103E10000E8B0FEA450F7003023F6DEA2404F5167E
:103E2000E4350FF517851682F583E0F50CA3E0F570
:103E30000D85188285198312530D8A828B83A3A363
:103E4000A3E0F9851082851183124379120892E963
:103E5000F5096003023F6D7402122436124677F5AD
:103E6000097809122671E4F512F513781212266DFD
:103E70007512EE751302781212266D9002EF12265B
:103E8000847407122436122684EEF9AC0EAD0F8529
:103E90001082851183124379120A127409122400C8
:103EA000E9F5096003023F6DE508703FE4F50EF5A2
:103EB0000F780E12266D7CFF7DFF790985108285B3
:103EC000118312437912097C740212240012469D58
:103ED000700D7404122436123FA47911023FA19090
:103EE00002EEE024029002F2F080149002F2E0FA76
:103EF0009002EEE0790024025001096A497072A82C
:103F0000089002EEE0FAE82AFAE43400FBEE9AEFB9
:103F10009B405A851682851783E0C0E09002F31219
:103F20003D53D0E0F00508851682851783A3E0C0D5
:103F3000E0089002F3123D53D0E0F005089002EE45
:103F400012531112266D12530AA808124644121574
:103F5000F474021224009002EEE02508F50874FFC4
:103F6000650C700474FF650D6003023DBCE50860DC
:103F70001F9002F2E0F5F0E50884123FC11205E05F
:103F8000E960099002F312437912167879008011E2
:103F9000E509700375090A7404122436123FA4A9B6
:103FA0000902463A1247DFE50CF0A3E50DF022A323
:103FB000A312559CAA0CAB0D22A3A3EAF0A3EBF02D
:103FC000229002F1F07CF17D02851082851183122E
:103FD000437D2274EC12245A74FC1223EA124AE044
:103FE00074021224501243731208AA8A0C8B0DEA31
:103FF000450D70030240AB1240BBA818A9198810E8
:104000008911781012266D7CFF7DFF790B8508825F
:1040100085098312437912097C740212240012412B
:10402000B1700C850A82850B831246AE0240B88EB1
:10403000828F83A3A3A3A3E0F5127812122671E462
:10404000F512F513781212266D7512F175130278B8
:104050001212266D781012266D740912243612265B
:10406000847409122436E0F9AC0CAD0D8508828504
:104070000983124379120A127409122400E9FE70AE
:10408000157CF17D0285088285098312437912052A
:10409000E6E97009802074166E70027E009002F2CC
:1040A000124379121678EE7004800B7E01850A8225
:1040B000850B831249CDEEF90249E2EE2402F508A0
:1040C000E43FF5092274EC12245A74FC1223EAEA44
:1040D000FEEBFF8C0E8D0FEE2405F508E43FF5098D
:1040E00074021224508508828509831243791208CC
:1040F000AA8A0C8B0DEA450D70030241A1EE240241
:10410000F50AE43FF50BA818A91988108911781051
:1041100012266D7CFF7DFF790D12437312097C74AA
:10412000021224001241B1700B85088285098312A6
:1041300046AE807A8E828F83A3A3A3A3E0F5127884
:1041400012122671850882850983A3A3122684751D
:1041500012F1751302781212266D781012266D7402
:10416000091224361226847409122436E0F9124307
:104170006F120A127409122400E9FE700F7CF17D9F
:10418000021243731205ECE97009802074166E70F8
:10419000027E009002F2124379121678EE700480CB
:1041A0000B7E018508828509831249CDEEF902490B
:1041B000E21243B8F510A3E0F511EA45112274E8C4
:1041C00012245A74FE1223EA8A168B178C148D154A
:1041D000EA2405F50CE43517F50DEA2402F50EE4A2
:1041E0003517F50F850E82F5831243791206BE8AC4
:1041F000088B09750B007C037D0079007AF17B0246
:1042000012160C750A00E50814F5100424FFF508D1
:10421000E50934FFF50980549002F1E0FA9002EECE
:10422000E0F8EA28F8E43400F9E50898E50999503F
:104230000D9002F1E0F8E510C3989002EEF0E0F581
:1042400012751300781212266D12530A9002F2E0D2
:104250002AFAA3E03400FB1215F474021224009031
:1042600002EEE0F89002F1E028F0050A850C828564
:104270000D83A3A3124C8440030243549002F1E047
:10428000C39508E495094003024354AE0AEE2EFE9E
:10429000E433FF124393AC18AD19125325E439FBF4
:1042A0001208AA8A128B13AC12AD13EC4D701B7559
:1042B0000B011243831249D19002F21238D06003ED
:1042C000121678A90B740202463C85168285178364
:1042D000A3A3A3A3E0F50B780B122671E4F512F566
:1042E00013781212266D7512EE75130278121226CB
:1042F0006D9002EF1226847407122436122684A9C8
:1043000010850E82850F83124379120A12740912E6
:104310002400E9F50B709B9002F21243A86003029F
:104320004218E4F512F513781212266D7CFF7DFF1A
:10433000790F850E82850F8312437912097C7402EE
:104340001224001243AE6003024218124383124645
:10435000B20242C57CF17D02850E82850F83124335
:10436000791205F2E960030242B879000242C5AC55
:104370000CAD0D850A82850B8312437D22E0FAA3E2
:10438000E0FB22124393E0FAA3E0F9EA8514828568
:10439000158322850C82850D83E02EF8A3E03FF97A
:1043A00088828983229002EF1254ABE8492212439B
:1043B000B8F8A3E0F9E849229002F2EAF0A3EBF0A2
:1043C0009002F2E02274E812245A74FA1223EA747A
:1043D00004122436123FBB8C168D17740412243637
:1043E000E02405F50EA3E03400F50F740412243622
:1043F000E024021246501243791206BE8A0A8B0B41
:104400007F007E00A818A919880889097808122653
:104410006D850E82850F83A3A3A3A3E0F5088E0903
:10442000780812266DE50E2405F508E4350FF50928
:10443000780812266D850E82850F83A3A31246800D
:104440001208A474061224008A0C8B0D80291246CF
:1044500071F00F124671F00F9002EE1249BC122655
:104460006D12530AEFF81246441215F47402122426
:10447000009002EEE02FFFE50C450D7003024500B1
:10448000851882851983124AF2A3A3A3E0F9851443
:1044900082851583124379120892E9FEE50C240403
:1044A000F510E4350DF511EE705074041224361237
:1044B0004677F5087808122671E4F508F5097808BA
:1044C00012266D7508EE750902780812266D9002A5
:1044D000EF1226847407122436122684E50A24FA81
:1044E000F9AC0CAD0D851482851583124379120A3F
:1044F000127409122400E9FE603912468D1249D067
:10450000EF70030246279002F2E0F5F0EF8490028C
:10451000F1F07CF17D0285148285158312437912B6
:1045200005F8E960099002F31243791216787900D0
:1045300002463A8F08EF703BE4F512F51378121239
:10454000266D7CFF7DFF79118514828515831243CA
:104550007912097C740212240012469D70091246D9
:104560008D1246B102463A9002EEE024049002F227
:10457000F080359002EEE0F89002F2E0FAE82404D0
:10458000FCE43400FDEC6A4D6003024506E50A24B4
:10459000FAFAE50B34FFFBE50828F8E43400F9EA01
:1045A00098EB995003024506851082851183E0C07F
:1045B000E09002F3E02FF8A3E034008882F583D086
:1045C000E0F00F851082851183A3E0C0E012465E03
:1045D000D0E0F00F7402122440880889097808128C
:1045E000266D7402122436122684850E82850F836E
:1045F000123FAF1208B074041224008A0C8B0DEA2B
:10460000450D700302444E7402122436E0C0E012DD
:10461000465ED0E0F00F7402122436A3E0C0E01230
:10462000465ED0E0024456EE70027E0A850E828518
:104630000F831246931249D0EEF974061224007FBC
:104640001002252C9002F3E028FAA3E03400FB22AC
:10465000F514A3E03400F515851482F58322124683
:1046600062229002F3E02FFAA3E034008A82F583FD
:104670002212466274FF221247DFA3A3A3A3E02203
:1046800012559C850E82850F8312437D22851082F0
:104690008511831254AB851682851783229002F30D
:1046A000EAF0A3EBF09002F31254ABE8492212496E
:1046B000D6E8F0A3E9F079112274EA12245A74FEC4
:1046C0001223EA8A088B098C128D13EA2405FEE472
:1046D0003509FFAC18AD198E828F83124379120809
:1046E000AA8A0C8B0DEE2406F50EE43FF50FEA4581
:1046F0000D70030247B1E5082402F50AE43509F517
:104700000B8A828B83A3A3A3E0A2E550288518829D
:10471000851983124379120A068A108B11EA451112
:104720006020791212436F851082851183122458FC
:10473000E9F50C707F850E82850F83E06009795260
:104740008011750C0E806D850882850983A3A3A353
:10475000A3E0F9E4F508F509780812266D8E828F3A
:1047600083A3A3E0F508780812266D8E828F83A3B9
:10477000A3A31226848E828F8312530D12437312C9
:104780000A187406122400E9F50C7011850E828552
:104790000F83E0702D1243731205FE802574166599
:1047A0000C7011750C0074181224361247DBE4806B
:1047B00010750C011254A3851282851383E8F0A3AF
:1047C000E9F0850E82850F83E0600479008002A9FC
:1047D0000C74021224007F0E02252C1247DF22E007
:1047E000F8A3E0F58388822274EC12245A74F7123D
:1047F00023EA8A0A8B0B8C108D11EA2405FEE4351E
:104800000BFF750C00AC18AD198E828F83124379A3
:104810001208AA8A088B09EA450970030249A7E52C
:104820000A2402F50A5002050B8A828B83A3A3A3F4
:10483000E0A2E5502F851882851983124379120A68
:10484000068A0C8B0DEA450D604F7912AC08AD0954
:10485000124373850C82850D83122458E9F50C6090
:10486000030249AA850A82850B83E0F508A3E0F5D7
:1048700009AA08FB1209FAEA4B70197AFF7BFF12AA
:1048800009FAEA4B700302499D8A828B83E508F09E
:10489000A3E509F07508008008750C0E0249AA0509
:1048A000089002EBE0F8E508C398400302499D85B3
:1048B000080E750F007403780E1223D78A828B833B
:1048C000A3A3E0250EF8A3E0350F124D7170D08E32
:1048D000828F831249C5123FBB8E828F83A3A3129E
:1048E00049C5123FB9EE2404F508E43FF5098508EF
:1048F00082F583E088828983A3A3A3A3F0A3E4F0D5
:10490000EE2405F50EE43FF50F850E82F58312497E
:10491000C5A3A3A3A3123FB975120775130078129C
:1049200012266DEEFCEFFD74041224481215F47487
:1049300002122400E4F512781212266D8508828591
:104940000983E0FC7D00791712437312097C74021D
:104950001224007407122436123FBB740712243647
:10496000E0FA4B603D8508828509831249BC122616
:104970006D850E82850F8312530D1215F474021289
:1049800024007402122450124373120604E96026B4
:1049900074071224361243791216788019750C099F
:1049A0008008750C118003750C011254A3851082C8
:1049B0008511831249D0A90C74098028E0F5087587
:1049C000090078082212437D88828983221249D601
:1049D000E8F0A3E9F022E0F8A3E0F9850E82850F64
:1049E000832274041224007F0C02252C74EC122400
:1049F0005A124AE0751000EE2402F50CE43FF50D62
:104A0000850C82F5831243791209FA8A088B09EA28
:104A100045097003024AC4850A82850B83E064015C
:104A20006003024AB9AC08AD09AA0AAB0B1209EE41
:104A3000E9606E850882850983123D46EE2406F5FD
:104A40000AE43FF50B8E828F83A3A31226848E8205
:104A50008F83A3A3A3A3122684850A82850B8312C6
:104A6000268479188E828F83124AF2124379120AB1
:104A7000187406122400E9F8741668700B850A820F
:104A8000850B83E4F0A38014E860128E828F83127A
:104A90004379850E82850F83EAF0A3EBF0881080BE
:104AA00018780E12266DAC08AD09EEFAEFFB12096C
:104AB000F47402122400E9F510AA08AB09120A00E6
:104AC000E510700E850C82850D8312437912060A5B
:104AD0008009741665107003751000A9100249E76B
:104AE000EAFEEBFF8C0E8D0FEE2405F50AE43FF590
:104AF0000B2212559C850C82850D832274EA1224A8
:104B00005A7508007509007E007F00750A00EC24C4
:104B100002F510E43DF5118035EC65087003ED6594
:104B2000096003024BB188828983A3A3E06A700302
:104B3000A3E06B707C88828983A3A3A3A31254A7EC
:104B4000EE28FEEF39FFEA28FAEB39FB050A124C92
:104B500081503A850A0C750D007403780C1223D726
:104B6000851082851183124C74124D71601FE50807
:104B7000450970A58C088D0988828983123D448877
:104B8000828983A3A3E02EFAA3E03F80BEE50AC397
:104B900094025003024C6F750800750900EE4F60D7
:104BA00010EEFAEFFB1216728A0E8B0FEA450F70A9
:104BB000057900024C71750B00024C44850B0C7595
:104BC0000D007403780C1223D7851082851183E0C1
:104BD000250CF50CA3E0350DF50DE50C2406F514B8
:104BE000E4350DF515851482F583124D766042E5A6
:104BF0000C2404F512E4350DF513851282F58312A9
:104C00002684E50E2508FAE50F3509FB1215F47424
:104C100002122400851282851383E02508F508A37B
:104C2000E03509F50985148285158312437912163A
:104C300078E50B600D7C087D007900AA0CAB0D12A5
:104C4000160C050BE50BC3950A5003024BBC8510EF
:104C5000828511831254A788828983A3A3A3A3A367
:104C6000A3E50EF0A3E50F1238D7EEF0A3EFF0792D
:104C7000010247D6124C7822E0250CF8A3E0350D4E
:104C8000229002EBE0F8E50AC3982274F012245A4D
:104C90008A0E8B0F8C0A8D0B750D00750C008050E1
:104CA0007916EE2406F508E43FF5098E828F83A37A
:104CB000A31226848E828F83A3A3A3A312268485A6
:104CC0000882850983122684850E82850F83A3A31B
:104CD000124379120A187406122400E9F50D7416AD
:104CE000650D706C850882850983E4F0A3F0050CDE
:104CF0009002EBE0F8E50CC3985066AA0C8A0875A0
:104D00000900740378081223D7850A82850B83A3D0
:104D1000A3124DC0E8FEE9FF8E828F83124D7660AC
:104D200040EA2401F508E43400F5099002EBE0655F
:104D3000087002E509601488828983A3A3A3A3A352
:104D4000A3A3A31243A86003024CA07918024CA2AB
:104D5000E9609B1254A37410122436124D68124954
:104D6000D0A90D7F0802252CE0FAA3E0F5838A8202
:104D700022F98882898312559CEC4D2274F6122404
:104D80005A7C0080010C900348E0F8ECC398501E58
:104D90008C08750900740278081223D7124DB5E00B
:104DA0006A7003A3E06B70DDE8FAE9FB80047A0027
:104DB0007B00024E589002E9124DC08882898322FE
:104DC000E02508F8A3E03509F92274F212245A8A82
:104DD000088B09750A0080278E828F83A3A3A3A363
:104DE0001238CE60031216787C087D007900EEFA46
:104DF000EFFB12160C8E828F83E4F0A3F0050A12EB
:104E00004C815027850A0C750D007403780C122311
:104E1000D7850882850983A3A3E0250CFEA3E0358E
:104E20000DFF8E828F831243A870AD85088285099D
:104E30008374FFF0A3F002559074F612245A1209FD
:104E4000AC8A828B83E582458370067A007B008082
:104E500007A3A3A3A31243797F0202252C74F412A3
:104E6000245A89088C828D83E06402703C12544677
:104E7000FEA3E0F9EEF874026870037429697029E2
:104E8000750A02750B00780A12266D74101224360A
:104E90001226847410122436122684A9081213369E
:104EA0007406122400E9F98002790102390B74E8D2
:104EB00012245A74FB1223EAE9851882851983F0BB
:104EC0008A168B17ECFEEDFF7510008E828F83A380
:104ED000A3A3E0A2E4502D741D12243612437912CC
:104EE0000A068A828B83E582458370030252E57944
:104EF0000AEEFCEFFDAA16AB17122458E9F5106074
:104F0000030252E8741F122436E0F508A3E0F50905
:104F10007421122436E0F50AA3E0F50B7423122461
:104F200036E0F50EA3E0F50F8E828F83E064026019
:104F300003025286A31254A7850882850983A3859C
:104F40008212858313EE2406F50CE43FF50D88826A
:104F50008983125325F514E439F51578141226F7D0
:104F6000010000280128884F070002284D5003281F
:104F7000BB4F00297C510129A7510229485103291F
:104F80007C51042920528652E50E450F60030252DF
:104F900081850C82850D831254A7E8FAE9FB8A8289
:104FA0008B83E0850A82850B8312533012266D8A2B
:104FB000828B83A3E0FCA3E002520AE50E450F605A
:104FC00003025281850A82850B837401F012531A01
:104FD000850882850983F07C007D008E828F83A303
:104FE000A3A3A3E02401FAA3E03400FB1208AAEA79
:104FF0004B60408A828B83E02402F8850A82850B0D
:1050000083E028F0EA2404F8E43BF988828983E00D
:1050100085128285138312533E12533012266D8AF5
:10502000828B83A312530DE5082403FAE43509FBB0
:1050300002520F850A82850B83E02404F07C047DF4
:10504000007900AA12AB1312160C0252E8E50E45C5
:105050000F600302528112531AFEA3E0FF850A82F9
:10506000850B837404F0EE850882850983F0EF8553
:105070001282851383F07403122450EEFAEFFB12B0
:1050800008AA8A0C8B0DEA450D700302512B8A8207
:105090008B83A3A3123D447401122440880E890F10
:1050A000780E12266D74051224361226847CFF7D3C
:1050B000FF1208B074041224008B0FEA450F7033FE
:1050C000850C82850D8312531112266D850C828505
:1050D0000D83A31226847C027D007A627B8A1206ED
:1050E000AC7404122400E9700A740112243674FFAF
:1050F000F0A3F08E828F83E064027039750C027524
:105100000D00780C12266D8E828F83A312530DE54D
:10511000082404FAE43509FB1215F4740212240081
:10512000850A82850B83E0240280097401122436EB
:10513000EEF0A3EFF074011224361252FF74011244
:1051400024361252F602527BE50E450F60030252DE
:1051500081850C82850D83125595AA16AB17121303
:105160003C850A82850B837402F085088285098359
:10517000EAF0851282851383EB02527EE50E450F1D
:10518000600302528112531AF8A3E0F9850A82855E
:105190000B837402F0E8850882850983F0E98512A3
:1051A0008285138302527E850C82850D831243799A
:1051B0001215EEEAFAF8C3950EE4950F405CE86527
:1051C0000E450F70047A008021851882851983E0CE
:1051D000FCE50E2CFCE4350FFDC3EC98ED9400507B
:1051E00003E08005E50ECAC39AFAEA850A82850BB8
:1051F00083F08A0A750B00780A12266D850C828569
:105200000D83E0250EFCA3E0350FFDAA08AB0912C3
:1052100015F474021224000252E87510070252E8D5
:10522000E50E450F705B850C82850D831254A785B2
:105230000A82850B837407F0888289831252F712E1
:1052400052EFE0851282851383F0E82402FAE439F4
:10525000FB8A828B831252FF8A828B831252F6A3BF
:10526000A31238D6125304F0E82405F85001098837
:10527000828983125304A312533EA3A3A3A3F080F5
:105280006775100B8062741D12243612437912095F
:10529000AC8A828B83E5824583604A1254A7880CCE
:1052A000890DE8450D603E7425122436E0F510782E
:1052B00010122671780E12266D780A12266D780863
:1052C00012266D7407122436E0F9EEFCEFFDAA16E3
:1052D000AB17850C82850D831224587407122400A5
:1052E000E9F510800375100EA910740502463CF014
:1052F00088828983A322A3E08508828509832212FC
:105300005345F022125345A3A3229002EF12559C5D
:1053100022E0F50E750F00780E22850C82850D8334
:105320001247DFE022E0FAA3E0F8E4C8F9EA282215
:10533000F08A828B83E0F50A750B00780A221252FC
:10534000EF12534522E0850882850983A3A32274C6
:10535000EE12245A74FE1223EA8A088B09ECFEED41
:10536000FF890AAC18AD19EEFAEFFB1208AA8A0CF5
:105370008B0DEA450D700302543785188285198319
:105380001243791209AC8A828B83E58245837003CC
:10539000025432A3A31254A7880E890FE8450F7058
:1053A000030254327414122436E0F510A3E0F51110
:1053B000E50AF50B780B12267174191224361226A1
:1053C00084781012266D741B122436E0F9AC0CADF3
:1053D0000DAA08AB09850E82850F83122458740527
:1053E000122400E9F50B705274FE650A604C850CBE
:1053F00082850D83E064027041125446FAA3E0F9FD
:10540000EAF87402687003742969702E8510828529
:105410001183125325F50CE439F50D780C12266D25
:10542000EEFCEFFDAA08AB09120A30740212240048
:105430008008750B0E8003750B01A90B74021224F2
:10544000007F0A02252CA31254AB88828983E022B4
:1054500074F612245A74FE1223EA740C12243612C3
:1054600054A7E8851882851983F07401122436E95F
:10547000F0E4F508F509780812266D750802780839
:1054800012266D74041224408808890978081226AF
:105490006D79FE120A187406122400740212240098
:1054A000024E588E828F831254AB22E0F8A3E0F9AB
:1054B0002274F712245AEAFEEBFF890890030612C1
:1054C000530D12133CEA5402600BA908EEFAEFFBED
:1054D00012089E800279017F0102252C74F21224A9
:1054E0005A74FE1223EAEAFEEBFF890A7401650A88
:1054F00060147402650A600302558B7901120C3442
:10550000E9600302558BEEFAEFFB1209FAEA4B60F1
:1055100003120A00A818A919880889097808122610
:105520006D750802750900780812266D75085A75A0
:10553000098A780812266D7CFF7DFF7A017B0012B4
:1055400008A474061224008038850882850983A384
:10555000A3A3A3A3A3125595EEFAEFFB121324E421
:10556000F50CF50D780C12266D74021224361226F5
:10557000847CFF7DFFAA08AB091208B074041224D2
:10558000008A088B09E508450970BE7402122400E0
:105590007F0602252C1247DF12559C22E0FCA3E077
:1055A000FD2274F412245A8A088B09ECFEEDFF9058
:1055B00016A6E0F4604B7A097B00121618EA4B60DD
:1055C000408A828B8374B1F0A3E4125604F08A827D
:1055D0008B83A3A3E508F0A3E509125604A3EEF01C
:1055E000A3EFF0740C1224361254A78A828B83A383
:1055F000A3A3A3A3A3A31249D09016A6E0F9121661
:105600002402390BF08A828B83A3A3A3A32274EE16
:1056100012245A74FA1223EA8A0A8B0BE9FF8C08C7
:105620008D097E00850A0C850B0D780C1226B100C1
:105630000410EA58565679569856BB56DE5601570E
:10564000325755576C579C574B586E589158BF5806
:10565000EA58EA58C55774016F70198508828509A0
:1056600083E0C39403500D850882850983E0901878
:1056700006F080027E1802591274026F70158508B8
:1056800082850983E0F8A3E0F9901807E8F0A3E920
:10569000F080027E1802591274016F701985088219
:1056A000850983E0C39402500D850882850983E053
:1056B00090073FF080027E1802591274016F701932
:1056C000850882850983E0C39405500D850882858D
:1056D0000983E0900740F080027E1802591274019D
:1056E0006F7019850882850983E0C39402500D8587
:1056F0000882850983E0900741F080027E180259F4
:105700001274106F7027750C10750D00780C12262E
:105710006DAC08AD097A427B071215F474021224AD
:10572000008A0C8B0D850C82850D8380027E180209
:10573000591274016F7019850882850983E0C3943A
:1057400002500D850882850983E0900752F080029F
:105750007E1802591274016F700D850882850983C5
:10576000E090180AF080027E1802591274046F70DB
:10577000269089D2780C1222A28508828509837826
:105780000C1218D350118508828509831222D890F3
:1057900007541222E480027E18025912EF7021127F
:1057A0000844E970131212CAE9F50D795012174A2C
:1057B000E9F50C1212B8800A9007E77401F0800234
:1057C0007E1802591274076F707C750E06750F00F3
:1057D000780E12266D850882850983A3AC82AD837D
:1057E00074021224481215FA74021224008A108BD3
:1057F0001185100E85110F7C007D00AA18AB19854C
:105800000882850983E0F912125EE9F50CE50CC304
:10581000940A502E120844E97015A90C1212D0E90E
:10582000F50E795012174AE9F50D1212B88019A831
:105830000C790074E828F582740739F5837401F057
:1058400080067E0280027E1802591274016F701960
:10585000850882850983E0C39402500D85088285FE
:105860000983E0900753F080027E180259127401F8
:105870006F7019850882850983E0C3940A500D85ED
:105880000882850983E0901809F080027E18025989
:105890001274016F7025850882850983E0C394071F
:1058A0004019850882850983E0C39411500D85084D
:1058B00082850983E090180BF080577E188053741E
:1058C000016F70229007E6E0F50C85088285098358
:1058D000E09007E6F0E50C70399007E6E0640170AF
:1058E000311212B8802C7E188028C3E50A9427E56F
:1058F0000B9400501B74026F701685088285098313
:10590000E0FCA3E0FDAA0AAB0B1206C4E9FE80028C
:105910007E02EEF974061224007F0A02252C74EC34
:1059200012245A74DA1223EA890D8A128B138C0A14
:105930008D0B743A122436E0F50C908962AC18ADE8
:105940001974061222FDAC18AD19AA12AB13A90DD9
:1059500012125EE9FEEEC3940A4003025A92EEF977
:1059600012129AE9FF901806E06402700474018034
:10597000027400F5087808122671AD0CEFFCEEF900
:10598000AA0AAB0B12130C74011224007C147D00C4
:105990007900741212244812160C8A0E8B0F850E91
:1059A00008850F0974121224507A1075F006EEA4BF
:1059B0002424F9121744E9703C7C1079FF74121208
:1059C000244812166CE9702D7422122436AC82AD74
:1059D000837A0475F006EEA42425F9121744E9F53C
:1059E000087412122450EFA2E0E433F9AA0AAB0BB8
:1059F00012074EE9F874061224507A0C74702EF9CE
:105A0000121744E97079740612244812128E750E2A
:105A100000E50EC394045067A80E7900E875F00302
:105A2000A4C8AAF075F000A42AFA75F003E9A42A24
:105A3000F97406122436E58228F508E58339F5095C
:105A4000850882850983E0F8A3E0F9E849602C85A0
:105A50000882850983A3A3E0F51075110078101260
:105A6000266D850882850983E0FCA3E0FDAA0AABC8
:105A70000B120A1E7402122400E9F8050E8092EF40
:105A8000A2E1500E90073EE0F9AA0AAB0B120A24DD
:105A9000E9F87404650C700F901806E06402700752
:105AA000AA0AAB0B121306790074261224007F0C8D
:105AB00002252C74F712245AEAFEEBFF120844E97F
:105AC00070679007E7E06401701B1212CAE9F508DD
:105AD0009007E77400F07C0A7D0079007AE87B0784
:105AE00012160C8039750800E508C3940A502FA8D7
:105AF00008790074E828F582740739F583E06401B9
:105B00007018A9081212D0E9FAA808790074E828D8
:105B1000F582740739F5837400F0050880CA79505E
:105B200012174AE9F5081212B87F0102252C74F207
