:020000040000FA
:0600000002011A02262194
:03002B00022D9D06
:03003300022D7526
:03005300022697EB
:03006B00022D1C47
:03007B00022D440F
:10008300022477E5C754F84401F5C779012200003B
:100093000080FB120086B90003020104E479217891
:1000A30008B800028004F709D8FCE479297802B87B
:1000B30000028004F709D8FCE490028178AD79143A
:1000C3008002F0A3D8FCD9FA781A90014A7A01BACF
:1000D30000028007E493A3F608DAF97A2D7B1690E1
:1000E300014B783079058015E493A3AD82AE838A02
:1000F300828B83F0A3AA82AB838D828E83D8E9D9C6
:10010300E775820C758395740412012C75829175C1
:100113008300740012012C75D00075813F7518811E
:10012300751902759F00020096C09FF59FE473D076
:100133009F22D083D082C09FE493C0E0740193C018
:10014300E0740293F59F2201FF0000B40000280031
:100153002800283075A000A000A000A0000008001F
:1001630008E001F000100010001000100010001053
:100173000050005000500010001000D00700000095
:100183000000000F0001000500307507001000019A
:100193000081FF00000000FFFFFF9C07BA07A207D2
:1001A300DE07FF02020208025000A0000000E8037D
:1001B30002528A0100003A8A024C8A010000881622
:1001C30002468A010000BF02024C8A010000891620
:1001D30002428A010000D502024C8A0100008A16FD
:1001E30002588A010000D702024C8A0100008B16D4
:1001F300025C8A080000D802024C8A0100008C16B7
:1002030002768A0100008D16FF0100FF2002528A48
:10021300010000318A024C8A010000F11602788A3B
:10022300000000000002488A030000060317003E96
:100233000E3E0E3E0E3E0E3E0E3E0E3E0E3E0E3E5B
:100243000E3E0E3E0E3E0E3E0EF6100811F010123C
:10025300080802528A010000348A024C8A01000015
:100263003417108888010000250702488A0300001C
:100273002B07024C8A010000351710B888020000D2
:100283002D07024C8A010000361710A888020000CF
:1002930035070202023132333435363738393031DB
:1002A300320002020202020202010D0000001001EC
:1002B30002528A010000378A024C8A010000771734
:1002C30002728A0100003607024C8A010000781787
:1002D30002708A010000B289024C8A01000079177A
:1002E300026E8A0100007A17024C8A010000881707
:1002F300026C8A0100006489024C8A01000089179C
:10030300026A8A010000BE89024C8A010000871735
:1003130002688A0100005088024C8A0100008A1793
:1003230002668A0100000188024C8A0100008B17D3
:1003330002648A0100007788024A8A010000668805
:10034300024C8A0100008C1702628A010000F888BF
:10035300024C8A0100008D17025E8A0100008E178D
:1003630001E8030577100A01014844144A145014A4
:1003730056145C14621468146E1474147A14801482
:1003830086148C14921498149E14100C02528A0131
:1003930000003D8A024C8A010000701802FE8902A7
:1003A30000007708024A8A0100002189024C8A0171
:1003B30000006F1802008A0200009F0802488A03A7
:1003C3000000C708024A8A010000528968FFFFFF44
:1003D3000001307503020106000000000000000068
:1003E300000000000000000000000000000000000A
:1003F30000000000FFFF0600800CE803037B034CB2
:10040300CD6C03AB0336567600680402CB47A202D9
:10041300180400058BC1010C0400000000037F06D3
:100423000CC92C979797038903264666006C022014
:100433000002400400000000024404000000000227
:10044300480400000000024C0400000000025004B5
:1004530000000000025404000000000258040000E1
:100463000000025C040000000002BC040000000065
:1004730001EC0400004000037F060CC92C979797FA
:100483000402030D355D040904872D353D00A301E6
:100493000000000001078601FE074105F120283016
:1004A30038077E01300746019A074704F1283038A0
:1004B300076C04F1283038021602000101B202FF72
:1004C300FF0190040923A135016A020600016008B7
:1004D3000000000000000000006004400000000174
:1004E30062020000006004004000000B0956756CB6
:1004F30074757265456767051218012801020A00C1
:100503000201061BFF4C000215FDA50693A4E24F52
:10051300B1AFCFC6EB0764782527186A7FC5BB56F2
:10052300756C7475726545676700204E0000701125
:100533000100D0072A00FE17000010181618104BF0
:10054300657920507265737320537461746500027A
:10055300528A0100002E8A024C8A010000231A02EB
:100563004E8A0000002A1602488A0300002B160256
:100573004A8A010000241A12013509E703120135E2
:100583001CE7031201354DE70312013587E7031218
:100593000135E0E70312013527E8031201356FE85F
:1005A300031201359EE803120135CDE8031201352C
:1005B30004E9031201354BE90312013564E903121F
:1005C3000135B9E903120135D2E90312013520EAF5
:1005D300031201355AEA0312013500800312013573
:1005E3000381031201353C81031201355F8103123C
:1005F3000135718103120135AF81031201352B825D
:1006030003120135F38203120135158303120135F9
:10061300AC8303120135FE83031201352F840312C9
:1006230001353C8403120135A68403120135FD8490
:100633000312013500850312013539850312013593
:100643003C85031201354685031201359A85031251
:100653000135DB85031201350E86031201354B8606
:10066300031201354D8703120135F187031201355A
:100673005A880312013598880312013540DF0312AB
:10068300013568DF0312013595DF03120135CDDF34
:10069300031201352BE00312013577E00312013514
:1006A300DEE0031201351EE1031201355BE10312A3
:1006B300013589E10312013533E2031201353DE2CD
:1006C300031201354AE2031201357DE203120135BB
:1006D30089E203120135A1E203120135ABE20312F1
:1006E30001356C92041201357A920412013592920B
:1006F30004120135A992041201355CDD01120135A2
:1007030006DE0112013519DF0112013595DF0112F1
:100713000135B3E001120135EFE0011201358AE141
:10072300011201356EE2011201353AE3011201357E
:10073300C8E40112013539E501120135F3E501126F
:100743000135E5E60112013525E701120135D9E747
:10075300011201350BE80112013501EA01120135DD
:1007630043EA0112013561EA01120135C7EA0112B8
:10077300013596EB011201355AEC0112013579EE80
:10078300011201358398031201356D990312013566
:10079300189A03120135699A03120135199B031242
:1007A30001358A9B031201356F9C03120135A39C0B
:1007B300031201359C9D03120135D99D03120135A6
:1007C300B59E03120135F49E03120135109F0312E7
:1007D3000135008004120135848004120135AF8095
:1007E30004120135C981041201350EFC02120135D0
:1007F30024FC0212013542FC0212013553FD0212A0
:1008030001355DFD0212013588FE021201357FFFBD
:1008130002120135ECFF0212013582B603120135D3
:10082300B2B703120135E9B70312013533B8031226
:100833000135F6B90312013548B901120135D4B9AE
:100843000112013538BB0112013544BB01120135D8
:100853007FBB01120135EEBB01120135F7BC01125A
:10086300013500BE01120135C7BE0112013524C096
:100873000112013542C0011201355FC00112013579
:100883000CC10112013589C101120135B1C1011237
:1008930001357BC40112013580C40112013599C6AB
:1008A30001120135E7C60112013557C7011201359F
:1008B30095C70112013571C80112013531C9011201
:1008C30001357DC90112013580C901120135C4C941
:1008D300011201350CCA011201354BCA011201354F
:1008E3006DCA01120135A1CA0112013504CB0112EF
:1008F3000135C5BB03120135D3BB0312013526BC39
:100903000312013545BC031201358ABC03120135BC
:10091300CEBD0312013569BE03120135ADBE03120C
:100923000135D7BE0312013546BF031201358CBF13
:100933000312013503C003120135B4C0031201359C
:10094300D42D00120135E42D00120135852E00123D
:100953000135E12E001201359E2F00120135BA3008
:1009630000120135EC30001201351B310012013544
:10097300C832001201353F3500120135AF3700127E
:100983000135A138001201359A3900120135A13B16
:1009930000120135953E00120135C43F00120135A6
:1009A300C84100120135D8420012013567440012D4
:1009B3000135584500120135A6450012013515468B
:1009C300001201353946001201358A4600120135FD
:1009D3002B4B001201352C4C001201358D4C0012AB
:1009E3000135B84C001201357E4D0012013537D761
:1009F3000312013541D70312013586D7031201359E
:100A03009AD7031201352AD80312013563D803128A
:100A130001359ED803120135C7D8031201351BD9FE
:100A23000312013530D90312013552D903120135AE
:100A330067D9031201357BD90312013590D903120B
:100A43000135CAD903120135F6D9031201357DDA0E
:100A530003120135C0DA03120135EADA0312013554
:100A630015DB03120135888E0412013535C10212DC
:100A7300013518C20212013593C202120135CEC2EA
:100A8300021201351FC402120135ADC40212013531
:100A93003FC702120135F1C702120135FDC8021228
:100AA300013570CA02120135C9CA02120135A5CE39
:100AB30003120135E8CE031201356CCF0312013561
:100AC30043D20312013518FA03120135CAFA03128D
:100AD3000135C6FB0312013505FC031201355FFC2A
:100AE30003120135DB83041201353E840412013500
:100AF300DB8404120135108504120135408504128C
:100B030001357B85041201359B8504120135C6C06E
:100B13000312013552C10312013511C2031201350B
:100B230029C30312013543C503120135A1AA0212D9
:100B33000135C6AA0212013593AB0212013567AC27
:100B430002120135D4AC0212013514AD0212013583
:100B5300B0AD02120135E4AE02120135BFAF02128D
:100B630001351EB002120135AAB00212013518B1C7
:100B730002120135A4B102120135EAB102120135A4
:100B83005CB202120135EEB2021201358FB30212CA
:100B93000135AFB302120135F7B30212013540B488
:100BA300021201355CB40212013582B4021201351E
:100BB300FCB4021201350AB50212013599B50212CD
:100BC300013502B6021201357AC503120135FFC59C
:100BD3000312013541C60312013525C7031201353E
:100BE30092C703120135D6C7031201351AC803127F
:100BF300013547C8031201356FC803120135A7C871
:100C030003120135E5C8031201350CC9031201357E
:100C130086C903120135D0C90312013586EE0112CC
:100C2300013525F0011201355DF201120135B1F2F2
:100C330001120135DCF201120135B8F3011201355D
:100C4300E8F30112013517F4011201352AF40112F8
:100C530001356BF40112013598F401120135E6F404
:100C63000112013522F50112013567F50112013533
:100C7300B4F5011201352EF6011201356FF8011298
:100C8300013559FA0112013595FA0112013524FC97
:100C93000112013569FC01120135DCFC0112013539
:100CA30031FD0112013595FD01120135B4FE01122A
:100CB3000135C5FE0112013594DF021201350DE045
:100CC30002120135C7E502120135D2E602120135DF
:100CD3007BE80212013509E90212013530A5011240
:100CE3000135B1A501120135DEA50112013527A693
:100CF3000112013528A70112013581A7011201351F
:100D0300FDA8011201357FA9011201359AA901122B
:100D130001350BAA01120135C8AA011201358BABAB
:100D23000112013519AC01120135D0AC01120135A4
:100D3300E3AC011201357CAD0112013513AE011292
:100D430001353AAE01120135A3AE01120135EDAE04
:100D5300011201353BAF01120135E2AF011201353A
:100D630080B0011201350DB1011201357EB10112BE
:100D73000135C5B1011201351DB2011201354FB262
:100D83000112013510B30112013513B401120135FB
:100D93005CB40112013579B40112013598B4011222
:100DA3000135CBB50112013582B601120135A7B663
:100DB30001120135BCB6011201352CB70112013500
:100DC3006DB70112013591B80112013512B9011243
:100DD300013533E9021201357EE9021201358AE950
:100DE300021201355EEA0212013575EA021201357B
:100DF300B2EA02120135E3EA021201351BEB0212D9
:100E0300013571EB0212013587EB02120135C3EB99
:100E130002120135D6EB02120135FDEB0212013548
:100E230031EC0212013557ED02120135A1EE021227
:100E330001359DEF02120135B3F002120135FCFFBB
:100E4300011201358D8E02120135BC8E021201355D
:100E53000E92021201356593021201352494021297
:100E630001358B9702120135779802120135C99823
:100E730002120135E3980212013515990212013568
:100E8300209902120135299902120135DB990212C8
:100E93000135AB9A02120135F29A02120135589BC1
:100EA30002120135CA9B02120135DCCB0112013556
:100EB3001CCF0112013522CF01120135E1D50112F8
:100EC300013506DA01120135C2EA0312013558EB86
:100ED300031201356EEB03120135C7EB0312013523
:100EE3000BEC0312013545EC03120135DDEC031263
:100EF30001354CED0312013555ED0312013561ED5A
:100F0300031201357BED03120135A5ED0312013503
:100F1300BAED031201351CEE0312013543EE031241
:100F23000135F5D20312013502D3031201351CD367
:100F3300031201354FD3031201358DD3031201354B
:100F4300F2D30312013507D40312013512D403126D
:100F530001351FD40312013536D40312013544D4AD
:100F6300031201354FD4031201355BD4031201354B
:100F73006AD40312013575D40312013598D40312D0
:100F830001353CD5031201354CD50312013566D525
:100F93000312013583D5031201359ED503120135A2
:100FA300C3D503120135CED503120135E3D50312A0
:100FB3000135F7D50312013558D6031201355ED634
:100FC3000312013564D6031201356AD603120135C3
:100FD30082D603120135B5D6031201351E9D0212C6
:100FE3000135B59D021201354D9E021201353D9F1B
:100FF30002120135749F02120135879F02120135D7
:10100300F59F0212013590A102120135B7A1021218
:10101300013559A2021201358EA2021201359FA297
:101023000212013518A30212013539A30212013548
:1010330051A302120135A9A402120135B2A602126C
:10104300013502A90212013505AA0212013554AA7B
:1010530002120135008002120135FD8002120135B2
:10106300E88102120135F281021201351482021263
:101073000135208202120135728302120135A183E8
:1010830002120135D1840212013513850212013592
:101093003F86021201351587021201356787021256
:1010A3000135C68702120135FD87021201353888E2
:1010B30002120135D38B02120135EC8B021201357A
:1010C3006E8C021201357C8C02120135D18C021216
:1010D3000135DF8C021201354C8D02120135BE8DB4
:1010E30002120135048E0212013525B602120135B2
:1010F30047B60212013531B802120135D6BB0212CE
:10110300013519BD02120135F3BD02120135A9855E
:1011130004120135CE85041201353F8604120135D0
:10112300BE8803120135C78803120135D088031224
:101133000135018A03120135208C03120135568CC7
:1011430003120135908C03120135C68C031201354D
:10115300008D03120135348D03120135608D0312A6
:101163000135A98D03120135E38D031201352B8E51
:1011730003120135818E03120135B68E0312013538
:10118300118F031201354B8F031201359C8F03120C
:101193000135D28F031201350C90031201353A90B9
:1011A300031201355D9003120135399304120135A1
:1011B300659304120135C09304120135CA930412D6
:1011C3000135DA93041201353DDB0312013574DB7B
:1011D3000312013591DB0312013575DC031201356E
:1011E300F6DC03120135CDDD03120135ABA5031285
:1011F3000135D2A50312013530A6031201358794B8
:1012030004120135EA4D00120135FA50001201357E
:101213008F52001201350A5300120135B6530012E2
:101223000135595400120135F1540012013520558E
:1012330000120135B859001201354A5A001201351E
:10124300865B00120135F05B00120135A45C0012CD
:1012530001355A5F00120135945F00120135FE5FBC
:10126300001201355B6000120135B86000120135D0
:101273001561001201350062001201354662001249
:101283000135916200120135B46200120135FB632E
:10129300001201350F64001201357E65001201351D
:1012A300BD6500120135FD6500120135506600125F
:1012B3000135716600120135AF6600120135ED6824
:1012C300001201352E6900120135C969001201357A
:1012D3003B6A001201357C6B001201354CAB0312E3
:1012E3000135F2AB0312013537AD03120135C0AD41
:1012F30003120135ADAE03120135ECAE0312013515
:1013030056AF03120135C4AF031201355C960412C4
:101313000135568D04120135668D041201357A8D1F
:1013230004120135828E04120135DBF103120135FB
:1013330083F203120135C5F403120135A19004129F
:101343000135DB9004120135EF900412013525912C
:10135300041201353791041201356C9104120135E1
:101363005F8704120135AE8704120135E08704124A
:101373000135728804120135EE88041201358F8A13
:1013830004120135C28A041201353E8B0412013561
:101393005E8B04120135C38B041201350B8C0412CE
:1013A30001350E8C0412013510CA0312013529CA06
:1013B30003120135BFCA03120135B0CB0312013545
:1013C30005CE0312013545CE0312013587CE031234
:1013D30001350089041201352E8904120135538920
:1013E300041201351A8A04120135E8FE011201358F
:1013F30037FF011201357CFF01120135F87F00121E
:101403000135E0F403120135C6F60312013532F754
:10141300031201357DF703120135D0F202120135B3
:10142300FBF202120135FBF402120135FBF6021244
:101433000135AAF7021201355CFB02120135C7FB25
:1014430002120135EDB00312013537B10312013534
:1014530087B1031201352DB203120135DBB203123A
:101463000135FAB20312013519B30312013547B33B
:10147300031201357AB303120135F1B303120135B7
:1014830071B4031201350BB503120135C0B5031254
:101493000135F1B50312013521B6031201354FB6FB
:1014A3000312013571EE03120135DEEE031201352D
:1014B300FFEE0312013537F00312013561F1031218
:1014C30001357EF10312013572CB0212013596CB41
:1014D30002120135BECB02120135E6CB02120135F1
:1014E3000ECC0212013532CC0212013556CC021257
:1014F30001357ACC021201359ECC02120135D0CCD3
:1015030002120135F4CC021201351ECD021201354F
:10151300BACD02120135E0CD0212013506CE021218
:1015230001352BCE0212013550CE0212013575CE94
:10153300021201359BCE02120135C3CE02120135D0
:1015430001CF021201352DCF0212013559CF0212FC
:1015530001357FCF02120135B8CF02120135E0CF3A
:101563000212013519D00212013541D002120135A0
:101573007AD002120135A2D002120135C8D002126C
:101583000135EDD0021201352CD10212013550D1B3
:10159300021201357AD10212013549D20212013504
:1015A300E1D30212013531D40212013545D50212BD
:1015B300013564D50212013588D502120135F8814F
:1015C30004120135298204120135538204120135B4
:1015D300148304120135728304120135EB90031254
:1015E30001350091031201355C9103120135C79156
:1015F300031201350F920312013581920312013553
:10160300AA9203120135B892031201351A930312F9
:1016130001355893031201357393031201350E9468
:1016230003120135B794031201353A9503120135BC
:10163300739503120135FE95031201355596031276
:101643000135B39603120135C59603120135EB96A6
:1016530003120135F496031201354F980312013535
:101663008AFC03120135F1FC03120135AEFD0312AE
:1016730001352CFE0312013539E3031201356CE306
:10168300031201359EE403120135E2E4031201352E
:10169300BEE5031201351C8C04120135FA8C0412C9
:1016A300013580F703120135C5F7031201350BF835
:1016B30003120135D4F90312013590910412013557
:1016C300AB9104120135BB9104120135209204122F
:1016D3000135E49304120135ACD50212013588D6E5
:1016E30002120135CFD6021201350CD70212013591
:1016F3007AD702120135D4D70212013544D8021227
:10170300013514D90212013503DA021201357ADAEE
:101713000212013516DC02120135A3DC0212013577
:1017230016DD0212013592DD02120135A9DD021226
:101733000135CEDE0212013528DF02120135719F19
:1017430003120135919F0312013597A0031201354E
:10175300E3A00312013503A10312013556A10312BD
:101763000135C3A10312013509A2031201356DA28C
:101773000312013519A5031201359AA50312013588
:10178300B06B00120135DD7000120135E0730012F9
:1017930001350974001201352074001201354974B2
:1017A30000120135FB7400120135E4760012013595
:1017B3002F78001201354878001201357F7D001221
:1017C3000135B87D00120135FC7D001201350D7F16
:1017D30000120135818A01120135B19001120135E0
:1017E300769101120135A093011201353B9A011242
:1017F3000135669A011201355A9B011201359C9BF2
:1018030001120135689D01120135DA9D011201357E
:10181300AB9E01120135789F0112013506A001121A
:1018230001351AA001120135F9A20112013584FE16
:1018330003120135F6FE031201359C8F04120135A4
:10184300489004120135809504120135CC95041299
:101853000135129604120135C5FF03120135CD7F00
:10186300001201353E9604E066701008A3E066702E
:101873000A08A3E066700408A3E06622C3E796089B
:1018830009E7960809E7960809E79622C3E0960850
:10189300A3E09608A3E09608A3E09622C008C3E05D
:1018A30096F50808A3E096420808A3E096420808C4
:1018B300A3E09645087001D3D00822080808EAC0BF
:1018C300E0EBC0E086F0E7A4FA180986F0E7A42A63
:1018D300FA180986F0E7A42AFA180986F0E7A42A79
:1018E300FA1986F0E7A4FBE5F02AFA190886F0E76F
:1018F300A42BFBE5F03AFA190886F0E7A42BFBE5E5
:10190300F03AFA18180986F0E7A4C5F02BFBE43A7D
:10191300FA1908E7C5F0C6A426F6E5F03BFBE43A5E
:10192300FA1886F0E7A4F6E5F00826F6E43B08F695
:10193300E43A08F6D0E0FBD0E0FA22E4CFC0E0E4DA
:10194300CEC0E0E4CDC0E0E4CCC0E075F020E626F4
:10195300F608E633F608E633F608E633F618181801
:10196300EC33FCED33FDEE33FEEF33FFC3EC9709AD
:10197300ED9709EE9709EF97191919400FFFEC97A7
:10198300FC09ED97FD09EE97FE191906D5F0BFEC9A
:10199300F709EDF709EEF709EFF7191919D0E0FC8C
:1019A300D0E0FDD0E0FED0E0FF226016080808C6B4
:1019B300C313C618C613C618C613C618C613C6D58E
:1019C300E0EA227009080808226016181818C6C32E
:1019D30033C608C633C608C633C608C633C6D5E001
:1019E300EA22E627F60809E637F60809E637F60895
:1019F30009E637F622E026F608A3E036F608A3E068
:101A030036F608A3E036F622E026F008A3E036F027
:101A130008A3E036F008A3E036F022C3E697F60801
:101A230009E697F60809E697F60809E697F622C34A
:101A3300E096F008A3E096F008A3E096F008A3E090
:101A430096F022E056F608A3E056F608A3E056F611
:101A530008A3E056F622E056F008A3E056F008A3E8
:101A6300E056F008A3E056F022E647F60809E647F9
:101A7300F60809E647F60809E647F622E0F608A362
:101A8300E0F608A3E0F608A3E0F622E6F008A3E6F2
:101A9300F008A3E6F008A3E6F022E0FAA3E0FBA334
:101AA300E0FCA3E0FD22EAF0A3EBF0A3ECF0A3ED4E
:101AB300F022E0F8A3E0F9A3E0FAA3E0FB22E8F0C8
:101AC300A3E9F0A3EAF0A3EBF022CAC0E0E6F0A397
:101AD30008DAFAD0E0FA22CAC0E0E0A3C582CCC596
:101AE30082C583CDC583F0A3C582CCC582C583CD12
:101AF300C583DAE6D0E0CA22C3E498F8E499F91280
:101B03001B3C8026C3E49AFAE49BFBE920E7E91235
:101B13001B3CE498F8E499F922C3E498F8E499F9B2
:101B2300121B3CE498F8E499F9C3E49AFAE49BFBAA
:101B330022EB20E7CFE920E7E0B90010BB0008E87B
:101B43008AF084F8AAF022E4FBC8FA22EB70227B25
:101B530010C833C8C933C9335007C39AC3DBF280F3
:101B6300069A50012ADBEAC833F4C8C933F4C9FA28
:101B73002275F008E4C833C8C933C933C99AC99B6D
:101B83005004C92AC93BD5F0ECFBC833F4C8E4C9F7
:101B9300FA22600D08C6A2E713C618C613C6D5E01D
:101BA300F322600C08C6C313C618C613C6D5E0F4E7
:101BB30022700422600D18C6C333C608C633C6D5C7
:101BC300E0F41822251810AF08F518400C151980F9
:101BD30008F51840021519D2AF2200C0D0251810FD
:101BE300AF08F518500C05198008F51850020519AF
:101BF300D2AFD0D0222518F58210AF08F518400CCB
:101C030015198008F51840021519D2AF85198322DA
:101C13002518F582E43519F583222518F8E43519DA
:101C2300F9222518FAE43519FB222518FCE43519A5
:101C3300FD22E4732518C582C0E0E51934FFC5838E
:101C4300C0E0E518C3958224F810AF088583198591
:101C530082188008858319858218D2AFCEF0A3E558
:101C630020F0A37808E608F0A3DEFAEFF0A3E581FD
:101C730024FAF8E608F0A3E608F0A3E608F0A308C0
:101C830008E608F0A3E608F0A315811581D0E0FE6D
:101C9300D0E0F8158115811581E8C0E0EEC0E0229F
:101CA3002518C582C0E0E51934FFC583C0E0E518F7
:101CB300C3958224F910AF0885831985821880089B
:101CC300858319858218D2AFCEF0A3E520F0A378DF
:101CD30008E608F0A3DEFAEFF0A3E58124FBF8E6BB
:101CE30008F0A3E608F0A30808E608F0A3E608F066
:101CF300A315811581D0E0FED0E0F815811581E8A8
:101D0300C0E0EEC0E022851983851882E0A3FEE0DF
:101D1300A3F5207808E0A3F608DFFAE0A3FFE0A329
:101D2300C0E0E0A3C0E0E0A3C0E0E0A3C0E0E0A324
:101D3300C0E010AF08858218858319800885821852
:101D4300858319D2AFD083D082020132851983856E
:101D53001882E0A3FEE0A3F5207808E0A3F608DFED
:101D6300FAE0A3FFE0A3C0E0E0A3C0E0E0A3C0E08B
:101D7300E0A3C0E010AF0885821885831980088529
:101D83008218858319D2AFD083D08222C0D0251880
:101D9300C582C0E0E51934FFC583C0E0E518C395EB
:101DA3008224F310AF088583198582188008858300
:101DB30019858218D2AFC8F0A3E9F0A3EAF0A3EB28
:101DC300F0A37908E709F0A3D8FAECF0A3EDF0A3A8
:101DD300EEF0A3EFF0A3D0E0F0A3D0E0F0A3D0E0C7
:101DE300F0A3E520F0A3E5F0F0A32285198385187D
:101DF30082E0C0E0A3E0F9A3E0FAA3E0FBA3780844
:101E0300E0F608A3DFFAE0FCA3E0FDA3E0FEA3E015
:101E1300FFA3E0C0E0A3E0C0E0A3E0F5D0A3E0F5BA
:101E230020A3E0A3F5F010AF0885831985821880FD
:101E330008858319858218D2AFD082D083D0E0F889
:101E4300D0E03274048006740280027401C0E0F4AE
:101E530004121BF8D0E0121ACD2274048004740219
:101E63008000CCC0E0EDC0E0E518C39CCCAD1950B8
:101E7300011D10AF068C188D1980068C188D19D290
:101E8300AF121ADAD0E0FDD0E0FC22D083D082E991
:101E9300C0E0E493A3C386F0C5F095F0F908E4939A
:101EA300A386F0C5F095F0700BE493A3C3994005A6
:101EB300E9048002A3E475F002A42582F582E5F02B
:101EC3003583F583D0E0F9E493A3C0E0E493C0E065
:101ED30022D083D082ECC0E0EDC0E0E493A3FCE425
:101EE30093A3FDED4C600D121F20EC24FFFCED3499
:101EF300FFFD80EFE493A3FCE493A3FDED4C600DA1
:101F0300121F5FEC24FFFCED34FFFD80EFD0E0FDFA
:101F1300D0E0FCE493A3C0E0E493C0E022C0E0C3BC
:101F2300E49396087401939618400FE4936670083F
:101F330008740193661870007019A3A3C3E4939601
:101F4300087401939618A3A3400DD0E0D0E0D0E02D
:101F5300021F10A3A3A3A3A3A3D0E022C0E0C0F059
:101F630088F0E4936670080874019366187000A8FB
:101F7300F0A3A3700BD0F0D0E0D0E0D0E0021F10AC
:071F8300A3A3D0F0D0E0227F
:101F8C0074F6121CA3EAFEEBFF8C088D09EE2434C8
:101F9C00F8E43FF9E8FCE9FDEE24351222C6FAEE2E
:101FAC0024371222C6F88508F0A4C885F00A8509E2
:101FBC00F0A4250AF9EA28F8E439F97A257B00120D
:101FCC001B3CEA8C828D83F0FA131313541FF8EE2A
:101FDC0028F8E43FF9E8245DF582E439F583E0C0A4
:101FEC00E074075AF8D0E0B800028004C313D8FCA0
:101FFC00A2E0EE50082434F582E43F801824361217
:10200C0022C6F5F0EA84A8F0EE28F8E43FF9E824BB
:10201C0038F582E439F583E0F97F03021D4F74F73C
:10202C00121CA3EAFEEBFFEE24341222C6C0E0EE33
:10203C002435F582E43FF583D0E0F08E828F83A3C4
:10204C00A3A3A3A3A3A3C082C0838E828F83A3A3C5
:10205C00A3A3A312212FD083D082E0C398F508A3A9
:10206C00E099F509EE247F1222C66401705DEE241E
:10207C00801221298E828F83A3A3A3A3A3A3A312CF
:10208C0024698E828F83A3A3A3A3A3E0FAA3E0FB0E
:10209C00C3EA9CEB9D5010C3EC98ED99402DC3EA1C
:1020AC0098EB995026800EC3EA98EB994007C3EC45
:1020BC0098ED9940167CB07D04EEFAEFFB120D7E84
:1020CC00EE247FF582E43FF583E4F0AC08AD09EE35
:1020DC00FAEFFB121F8CE9F9122D0E7F02021D4F35
:1020EC00C082C08385188285198312212FC3EA9C74
:1020FC00EB9D5010C3EC98ED99401BC3EA98EB99FB
:10210C005014800EC3EA98EB994007C3EC98ED99F4
:10211C004004790180027900D083D08222F582E4D8
:10212C003FF583E0F8A3E0F922EAC39CFAEB9DFBB0
:10213C002274EF121CA3900376E064086005E0643F
:10214C0007702A9061C8E060249003A4E0F4601D3D
:10215C00E0F875F00AA4C8AAF02AF974A628FE744F
:10216C000339FF8E828F83A3A3A3E0700302224B5B
:10217C00906060E0C0E0EE2468F582E43FF583D027
:10218C00E0F0750C20750D05750800750900E5D992
:10219C0014F50AE5D95403F50E60127403650E604C
:1021AC0043E50A600AEE24671222C670028075901D
:1021BC00051BE06401601F1222C360047A048002D4
:1021CC007A00E50AC39AFA95E0FB120C2E8A088B6A
:1021DC0009EA45097005120FBE80641222C370040F
:1021EC008A0C8B0DE50A6012850C82850D83F50B2C
:1021FC00E5D9F0A3150BE50B70F61222C3604474FD
:10220C00FC250AF50A780C121E4AAC0AA90EEEFA45
:10221C00EFFB120E387402121BDDE97026AA08AB14
:10222C0009121666793D8E828F83A3A3A3A3E0FACD
:10223C007B00120A90EEFAEFFB120DA2120E4A79F5
:10224C0000806F7403650E6051850A10751100785B
:10225C0010121E4AAC0CAD0DAA08AB09120DFC7481
:10226C0002121BDDEE24681222C664807004747F97
:10227C008001E0F50C780C121E4EE50EF50C780C76
:10228C00121E4EA90AAC08AD099003A4E0FA7B001B
:10229C00120A667402121BDD8013900376E0640848
:1022AC00600BAC0CAD0DEEFAEFFB120EBC120FCAAC
:1022BC0079017F0A021D4FEE2482F582E43FF583FB
:1022CC00E02274F2121CA374FC121BC7EAFEEBFF93
:1022DC008909A2AFE433F508C2AF02238AE0601B80
:1022EC00780C121E4AAC0BA90EEEFAEFFB120E3252
:1022FC007402121BDD7404250BF50B7401250BF510
:10230C00D9850ED9E50B6018F50A850C82850D83ED
:10231C00E0F5D9A385820C85830D150AE50A70EAD0
:10232C0075E195EE2463F8E43FF97A007B00A2AFE7
:10233C00E433F50BC2AF122465EC4D603288828910
:10234C0083E0FAA3E0FB8A828B831224698882895A
:10235C0083ECF0A3EDF08A828B83E4F0A3F01224DB
:10236C0065EC4D700A88828983A3A3E4F0A3F0E5A1
:10237C000BA2E092AF1216669004B7E004F0EE24C4
:10238C0063122129E8496064EE24631222C62402F8
:10239C00F8A3E03400F988828983E5822402F50CE5
:1023AC00E43583F50DE0F50BA3E0F50EEE24621297
:1023BC0022C6640170369061D0E0F81222C360042A
:1023CC007C0480027C007480C398FA95E0FBE50BDA
:1023DC002CF8E43400F9E82402F8500109C3EA9817
:1023EC00EB99A2D265D03340030222E99004B7E006
:1023FC00604D9004B8E0F89004B7E0C398500C74AA
:10240C00026509703A9004B9E060348E828F83A320
:10241C00A3A3A3E085188285198312245B7402128E
:10242C001C13E812245B9004B6E028F07402121C12
:10243C002DAA18AB197901120ABA9004B7E4F0E589
:10244C0008A2E092AF7404121BDD7F07021D4FF04F
:10245C00A3E4F09004B7E0F82288828983E0FCA31F
:10246C00E0FD22008521878522C622C0E074EB1294
:10247C001D8FA2AFE433F508C2AF759B009061824B
:10248C00E0A2E05030E591A2E0502A7591FE740173
:10249C006521702112260A120F0A1225F8121E5DF0
:1024AC00122AB87404121BDDE9640170057901125B
:1024BC000F5212213D906182E0A2E5505DE591A2A0
:1024CC00E550577591DF900376E064076005E06492
:1024DC0008702F12260A74016521703E120F0A1221
:1024EC0025F8121E5D122AB87404121BDDE9640172
:1024FC0070057901120F527901EEFAEFFB1222CE20
:10250C008018E0640D7013900398E004F064287058
:10251C0002E4F07A00E0F9120FD0906182E0A2E6BA
:10252C0040030225CDE591A2E640030225CD75912D
:10253C00BF900376E064057008120EF2120EFE8056
:10254C0003120EF8752100120F5EE9900377F079F3
:10255C0000120F52120CEE7A017B00900375E0F919
:10256C00121636907803E06442705690051FE01402
:10257C00F0704EC2AF12258400782AD0E0F618D045
:10258C00E0F6E59F5407F87005750DFF8003750D97
:10259C007FC4C0E07829E6F50A08E6550DF50B7402
:1025AC000B780A121BA5D0E0250AF8906270E0A205
:1025BC00E740F8E8C333906272F0906270E0D2E0CA
:1025CC00F0906181E0A2E35009E5E9A2E3500375C4
:1025DC00E9F7A3E0A2E75009E591A2E75003759152
:1025EC007FE508A2E092AF7F08021DEE8E828F83FA
:1025FC00E0F8A3E0C82416F582E438F583229003B2
:10260C00A4E0F875F00AA4C8AAF02AF974A628FE6A
:10261C00740339FF22C0E0C0D0C082C083906183B4
:10262C00E0A2E05009E5BFA2E0500375BFFEE0A2B6
:10263C00E15009E5BFA2E1500375BFFDE0A2E250F5
:10264C0009E5BFA2E2500375BFFBE0A2E35009E528
:10265C00BFA2E3500375BFF7E0A2E45009E5BFA2A7
:10266C00E4500375BFEFE0A2E55009E5BFA2E550C9
:10267C000375BFDFE0A2E65009E5BFA2E650037583
:10268C00BFBFD083D082D0D0D0E032C0E074F21281
:10269C001D8FE5A7A2E6500FE5A1A2E6500953A7AE
:1026AC00BF75A1BF1226EBE5A7A2E5500CE5A1A2D0
:1026BC00E5500653A7DF75A1DFE5A7A2E15009E5B8
:1026CC00A1A2E1500375A1FDE5A7A2E2500CE5A182
:1026DC00A2E2500653A7FB75A1FB7F01021DEE740D
:1026EC00F7121CA3752101900376E0640670151295
:1026FC000E6E8A828B83A3A3A3A3A3A3E0FAA3E009
:10270C00FB120EE0A2AFE433FED2AF90037CE06488
:10271C000170187A207B00900375E0F91217627A29
:10272C00207B00900375E0F912163C906182E0D298
:10273C00E6F090051CE0602185C622801690037B94
:10274C00E064017008E5C654F84405F5C653BEFCB8
:10275C001224707401652160E4EEA2E092AF7F0256
:10276C00021D4F008E238F24858228858327851890
:10277C0082851983E0CEA3E0CF852882852783EB61
:10278C00C9EAC8EDCBECCA75F010C3E833C8E9331D
:10279C00C9EA33CAEB33CBC3EA9EF526EB9FF5258A
:1027AC00B35004AB25AA26EC33CCED33CDD5F0DAFF
:1027BC00AE23AF242274E9121CA374FA121BC7EACD
:1027CC00FEEBFF8C0A8D0B120F16EAF8EBF9ECFA04
:1027DC00EDFB8E828F83121AC1900376E024F7C32F
:1027EC0094055006751401022928120E6E8A088B66
:1027FC0009EA45097003022925EEFCEFFDAA18AB86
:10280C0019120F10850882850983A3A3780C121A5C
:10281C007F908976780C121A4685188285198378F0
:10282C0010121A7F9089767810121A46780C79104B
:10283C0012187F501F780C7910121A1E9089BA78D2
:10284C000C12189F4047850C14850D15850E1685A6
:10285C000F1780459089BA851014851115851216AD
:10286C008513177814790C121A1E781412189F50AD
:10287C001C75140075150075160075170178147900
:10288C0010121A1E7814790C1219E5800C751401AB
:10289C00751500751600751700740978141219C691
:1028AC00908A1A780C121A7F7814790C12193E85BA
:1028BC000882850983A3A3A3A3A3A3122946121BF1
:1028CC003C880C890DE4F50EF50F7814790C12196F
:1028DC00E57404121C13122946121B3CE8FA8A0CEC
:1028EC00E4F50D7814790C12187F50077814790CD4
:1028FC00121A1E900376E06408600AE06406600514
:10290C00E0640570209089B6781412189F501690C8
:10291C0089AE78141219F8800C75140075150075B1
:10292C001600751700850A82850B837814121A8E8F
:10293C007406121BDD7F10021D4FE0F8A3E0F97A3C
:10294C00D07B032274F7121CA3120F2890051AE0F7
:10295C0064017010906245E4F0A3F053F4F343FE6D
:10296C000C5390F3120ECEE5C654B84441F5C6E5AF
:10297C009E5447644170F8906185740FF09005186F
:10298C00E0F47002A3E0604E900519E0600814605A
:10299C001B14602E8040750801750900900518E025
:1029AC007808121BB4E508F45280802A750801756A
:1029BC000900900518E07808121BB4E508F4529051
:1029CC008014750801750900900518E07808121B31
:1029DC00B4E508F452A079007F02021D4F74F7127F
:1029EC001CA3E9FEEAFF120F2874016E700C7A80AA
:1029FC007B00900375E0F9121636902DCCE493F41D
:102A0C006008E493F9120CE2800953C6B8E59E54B1
:102A1C004770FA120ED490051AE064017003120D7F
:102A2C0000900518E0F47002A3E0604B900519E0EB
:102A3C00600814601A14602C803D7508017509003B
:102A4C00900518E07808121BB4E5084280802875C0
:102A5C000801750900900518E07808121BB4E50808
:102A6C0042908013750801750900900518E07808EC
:102A7C00121BB4E50842A0120E6E8A088B09A80836
:102A8C00A909E8496014E5E170FCE82414F582E436
:102A9C0039F583E0F46003E0F5E174016F700A7AB4
:102AAC0001900375E0F91216C60229E474F1121CA8
:102ABC00A38A088B098C0A8D0B9089767808121AD8
:102ACC0046740F121C13780C121A7F908976780CAE
:102ADC00121A467808790C12187F9089BA5010781F
:102AEC0008790C121A1E780812189F4014800E7860
:102AFC000C7908121A1E780C12189F500479018058
:102B0C000279007F08021D4F74ED121CA38A088BFA
:102B1C00098C0A8D0B9089767808121A4674131258
:102B2C001C13780C121A7F908976780C121A46783E
:102B3C000C790812187F40117808790C121A1EAA09
:102B4C0008AB09AC0AAD0B8022751000751100752D
:102B5C0012007513017810790C121A1E781079086E
:102B6C001219E5AA10AB11AC12AD137F0C021D4F5C
:102B7C009089767808121A7F8A828B837808121AC9
:102B8C00597F04021D4F74F5121CA38C828D83781F
:102B9C0008121A7F8A828B837808121A32122BEA57
:102BAC00C3E09CF0A3E09D122BDC40229089E678D8
:102BBC0008121A7F8A828B837808121A0B8A828BEE
:102BCC0083A3A3A3A3E02420F0A3E0344EF080A0C1
:102BDC00F088828983C3E09420A3E0944E22EA24F7
:102BEC0004F8E43BF98C828D83A3A3A3A3E0FCA39C
:102BFC00E0FD888289832274F5121CA3E9FE9004FF
:102C0C00D2E0FAA3E0FBEE29F8E433F974D828F506
:102C1C0082748839F583E02AF508A3E03BF509783E
:102C2C0008121E4A9089DA121A9D12277074021229
:102C3C001BDD8A088B098C0A8D0B7410780812190D
:102C4C00ADAA08AB097F04021D4F74F1121CA38AB4
:102C5C000C8B0D8C0E8D0F7411121C13121E6174C3
:102C6C0011121C13E02401F508A3E03400F509E46B
:102C7C00F50AF50B780C79081218BE90899678082D
:102C8C00121A7F780C79081218BEAA0CAB0DAC0E78
:102C9C00AD0F1227707402121BDD8B09EA45096017
:102CAC00047A0180027A00EC2AFCE43DFD741312D4
:102CBC001C13E0F8A3E0F9E8FEE9FFECF8EDF97A73
:102CCC00717B02121B3C88088909E4F50AF50B8E0E
:102CDC00828F837808121A8EECF8EDF97A717B02E8
:102CEC00121B3C8A088B0974057808121BB48E825F
:102CFC008F83A3A3A3A3E508F0A3E509F07F080243
:102D0C001D4FC082C083E9906000F0D083D0822236
:102D1C00C0E074F2121D8FA2AFE433FED2AFE5898E
:102D2C00A2E05003121396758900C2C5EEF8EEA20C
:102D3C00E092AF7F01021DEEC0E074F2121D8FA273
:102D4C00AFE433FED2AFE58AA2E64006E58AA2E7FD
:102D5C005003121396758A00758A00C2EBEEF8EEDA
:102D6C00A2E092AF7F01021DEEC0E0C0D0E8C0E04F
:102D7C00E9C0E0A2AFE433F8D2AF758B00C2E8E84B
:102D8C00F9E8A2E092AFD0E0F9D0E0F8D0D0D0E0F2
:102D9C0032C0E0C0D0E8C0E0E9C0E0A2AFE433F854
:102DAC00D2AFC2C7751A00E8F9E8A2E092AFD0E042
:0F2DBC00F9D0E0F8D0D0D0E032C2AF0200002250
:102DCC00FFFFFFFFFFFFFFFFC082C083E99016F0FB
:102DDC00F0D083D08202013274F6121C37E99002D3
:102DEC00E8F0900348E0F5087509007402780812C1
:102DFC001BB4AA08AB091216AE9002E912379790D1
:102E0C0002E9123B84606F900348E075F003A4FA6A
:102E1C00ABF01216AE900306123797900306123BD6
:102E2C0084700B9002E9123B551216B48048900343
:102E3C0006124AE97AFF7BFF1212DC7A0080198AAB
:102E4C000875090074027808121BB412459174FFBE
:102E5C00122F97E4F0A3F00A900348E0F8EAC39825
:102E6C0040DD79051209589002E8E0F91208447A1D
:102E7C00E27B09120BCE02463474F4121C378A081A
:102E8C008B09EB548060479002E8E0F912161E8A19
:102E9C000A8B0BAE0AAF0BEE4F602A8E828F83E04B
:102EAC0064B0701A12096AE960148E828F83A3A32E
:102EBC00A3A3E0F9EE2405FAE43FFB12093AEEFA7B
:102ECC00EFFB12160CAA08E5096480FB80047A005B
:102EDC007B000230E774F2121C3774FB121BC7EA3A
:102EEC00FEEBFFEE4F60457403121C13EEF0A3EFE4
:102EFC00F0851882851983ECF0A3EDF07402121C96
:102F0C0013E9F0AA18AB1912083EE9F508707574AC
:102F1C0013121C13E0F50AA3E0F50BE50A450B6050
:102F2C00638E828F83123520EE4F700575080280F8
:102F3C00537A067B001216AE8A0C8B0DA80CA90DC9
:102F4C00E8497005750813803B88828983E4122F49
:102F5C0097EEF0A3EF1230B3E50AF0A3E50BF09077
:102F6C0002EC1230AC9002EC6017E0FCA3E08003A2
:102F7C00EAFCEBFD8C828D831230AC70F38C828D6D
:102F8C00831241ACA9087405024D69F0A3124ACB17
:102F9C00A32274F2121C378908890C750D00740376
:102FAC00780C121BB4850C0A850D0B9002EBF0907B
:102FBC0002E9123FB71230AA602E1216B4790080C3
:102FCC001D890C750D007402780C121BB49002E96B
:102FDC001244508882F583A3A3E4F0A3F009900374
:102FEC0048E0F8E9C39840D9900348E0FA850AF024
:102FFC00A4CAA8F0850BF0A428FB1216AE8A0C8B81
:10300C000DAE0CAF0DEE4F70030230A0900348E0F4
:10301C00FC850AF0A4CCA8F0850BF0A428FD79005F
:10302C001215FA7C0080318D0C750D007403780C30
:10303C00121BB48A828B831230A588828983E4F0B8
:10304C001230B2A3A3F0A3F00DEDC3950840D8EE57
:10305C00250AFEEF350BFF0C900348E0F8ECC39803
:10306C0050288C0C750D007402780C121BB4900255
:10307C00E91230A5E82402500109FAE9FB8A828B97
:10308C0083EEF0A3EFF07D0080BFE5089002EBF03B
:10309C00790080027913024D6C124454F922A3A3D7
:1030AC00123B59EA4B22A3124ACBA3A3A32274F4DA
:1030BC00121C377900EAA2E0501F75085E75098969
:1030CC007808121E4A79107C047D007AF27B161265
:1030DC0009527402121BDDE9F980007F04021D09FC
:1030EC00C082C0839002EC123B84601C888289836E
:1030FC00A3A3E06A7003A3E06B8882898370E8A3C2
:10310C00A3A3A3123B5580047A007B00022DDD742F
:10311C00F2121C3774FD121BC7EAFEEBFF851882F6
:10312C00851983E4F0A3F07402121C137401F012DD
:10313C003B817014120B081216AE9002EF123797E7
:10314C00123B8170030232AD123897EE2404F50A5B
:10315C00E43FF50B850A82F583E024FE603C24FCF9
:10316C00607424FE607E24FE70030231FD24FE7028
:10317C000302320A24FE700302321724FE7003028B
:10318C00322424FE700302323124FC7003023252CA
:10319C0024FE700302326A0232A6120B089002F16E
:1031AC00EAF0A3EB1232B9120586E960030232A6EB
:1031BC009002F1121E618E828F83A3A3A3A3A3128C
:1031CC004AE9850882850983123B5512092274024B
:1031DC00121BDD0232A6AC18AD19EEFAEFFB120988
:1031EC0070023275AC18AD19EEFAEFFB120976804D
:1031FC0078AC18AD19EEFAEFFB12097C806BAC18A9
:10320C00AD19EEFAEFFB120982805EAC18AD19EE27
:10321C00FAEFFB1209888051AC18AD19EEFAEFFBEE
:10322C0012098E80447402121C1D880C890D780CB6
:10323C00121E4A7402121C2DEEFAEFFB1209947442
:10324C0002121BDD8023AC18AD19EEFAEFFB12094C
:10325C009AE9F870167402121C13E4F0803CAC1856
:10326C00AD19EEFAEFFB1209A0E9F8E8602C8E829A
:10327C008F83A3E064146022850A82850B83E0901F
:10328C0002F1F0851882851983123B559002F212D7
:10329C003797E8A31232B9120580EEFAEFFB120849
:1032AC00F87402121C13E0F97403024D69F07CF1FE
:1032BC007D02850882850983123B592274E8121C11
:1032CC003774FA121BC77404121C13ECF0A3EDF044
:1032DC008A128B13EA2405F50EE43513F50FEA2454
:1032EC0002F510E43513F511851082F583123B5568
:1032FC001206768A0A8B0B7508007C037D00790018
:10330C007AF17B021215FAE50E2402F516E4350F5C
:10331C00F5177402121C1D880C890D780C121E4AAC
:10332C00850E82850F83A3A3A3A3E0F50C750D0076
:10333C00780C121E4AE50E2405F50CE4350FF50D3C
:10334C00780C121E4A851682851783123E5C120871
:10335C005C7406121BDD8A0C8B0DE50C450D70039D
:10336C000234E98020851882851983E0888289835C
:10337C00F00508851882851983A3E0C0E012352A70
:10338C00D0E0F00508E50A24FBFAE50B34FFFBC39B
:10339C00E5089AE49B40030234E97E007F00851225
:1033AC0082851383A3A3A3A3E0F5097809121E4E0B
:1033BC00E4F514F5157814121E4A7514EE75150201
:1033CC007814121E4A9002EF121E617409121C131B
:1033DC00121E61E50A24F9F9AC0CAD0D851082853D
:1033EC001183123B551209CA7409121BDDE96003E3
:1033FC0002348A850E82850F83A3A3A3A3A3A3A360
:10340C00E0F89002EEE0687075E0F5148E15781413
:10341C00121E4A124AE6850E82850F83A3A3A3A32C
:10342C00A3A3A3A3123B551215F47402121BDDE9DE
:10343C00604C9002F2123B84703BE4F51478141249
:10344C001E4A7CFF7DFF7907851082851183123B14
:10345C00551209347402121BDD123B8A7017850E4B
:10346C0082850F83124C837404121C131245441270
:10347C003E8D02351D850C82850D83123520A818D2
:10348C00A919881489157814121E4A7404121C1375
:10349C00121E6185168285178312378D1208687487
:1034AC0004121BDD8A0C8B0DEE4F70030233661277
:1034BC00352AEE123535123E43EF123535F8A3E0BE
:1034CC003400F9E50C450D60030233718882898361
:1034DC0074FFF0050812352A74FFF00508E5086042
:1034EC001A1313543F12379D120592E9600990028A
:1034FC00F2123B5512166679008016850E82850FE6
:10350C0083124C837404121C131245441241AC797F
:10351C000A023E16A3A3A3A3E0FEA3E0FF22A80881
:10352C009002F2E028123E4322F00508089002F2C5
:10353C00E0282274E8121C3774FA121BC7740212AA
:10354C001C131237977404121C13ECF0A3EDF074D7
:10355C0002121C13E02405123E2CE0F50CA3E0F53E
:10356C000D7402121C13E02402F510A3E03400F5D4
:10357C0011851082F583123B55120676750800757D
:10358C000900EA24FCFEEB34FFFF8008050CE50C77
:10359C007002050DA808C3EE98EF94005003023793
:1035AC0049A818A919880E890F780E121E4A85147D
:1035BC0082851583A3A3A3A3124AED121E4AE51418
:1035CC002405F50EE43515F50F780E121E4A8514F8
:1035DC008285158312378B12085C7406121BDD8AE8
:1035EC000E8B0FEA450F7003023749EA2404F516D7
:1035FC00E4350FF517851682F583E0F50CA3E0F59D
:10360C000D851882851983124AE98A828B83A3A3BC
:10361C00A3E0F9851082851183123B5512084AE903
:10362C00F50960030237497402121C13123E53F55C
:10363C00097809121E4EE4F512F5137812121E4A7F
:10364C007512EE7513027812121E4A9002EF121EBA
:10365C00617407121C13121E61EEF9AC0EAD0F85CE
:10366C001082851183123B551209CA7409121BDD95
:10367C00E9F5096003023749E508703FE4F50EF5FA
:10368C000F780E121E4A7CFF7DFF7909851082850A
:10369C001183123B551209347402121BDD123E7950
:1036AC00700D7404121C13123780791102377D903F
:1036BC0002EEE024029002F2F080149002F2E0FAA2
:1036CC009002EEE0790024025001096A497072A858
:1036DC00089002EEE0FAE82AFAE43400FBEE9AEFE6
:1036EC009B405A851682851783E0C0E09002F31246
:1036FC00352FD0E0F00508851682851783A3E0C02E
:10370C00E0089002F312352FD0E0F005089002EE9D
:10371C00124AED121E4A124AE6A808123E20121551
:10372C00E27402121BDD9002EEE02508F50874FF2E
:10373C00650C700474FF650D6003023598E5086034
:10374C001F9002F2E0F5F0E5088412379D120598FF
:10375C00E960099002F3123B55121666790080114C
:10376C00E509700375090A7404121C13123780A939
:10377C0009023E16123FBBE50CF0A3E50DF022A3A7
:10378C00A3124D78AA0CAB0D22A3A3EAF0A3EBF085
:10379C00229002F1F07CF17D02851082851183125A
:1037AC003B592274EC121C3774FC121BC71242BC1E
:1037BC007402121C2D123B4F1208628A0C8B0DEAFC
:1037CC00450D7003023887123897A818A91988106C
:1037DC0089117810121E4A7CFF7DFF790B850882B7
:1037EC00850983123B551209347402121BDD123900
:1037FC008D700C850A82850B83123E8A0238948E5A
:10380C00828F83A3A3A3A3E0F5127812121E4EE4B9
:10381C00F512F5137812121E4A7512F1751302780F
:10382C0012121E4A7810121E4A7409121C13121E10
:10383C00617409121C13E0F9AC0CAD0D850882857E
:10384C000983123B551209CA7409121BDDE9FE707B
:10385C00157CF17D02850882850983123B55120582
:10386C009EE97009802074166E70027E009002F240
:10387C00123B55121666EE7004800B7E01850A828F
:10388C00850B831241A9EEF90241BEEE2402F50824
:10389C00E43FF5092274EC121C3774FC121BC7EAC6
:1038AC00FEEBFF8C0E8D0FEE2405F508E43FF509B9
:1038BC007402121C2D850882850983123B5512084F
:1038CC00628A0C8B0DEA450D700302397DEE2402E1
:1038DC00F50AE43FF50BA818A9198810891178107E
:1038EC00121E4A7CFF7DFF790D123B4F1209347476
:1038FC0002121BDD12398D700B850882850983122B
:10390C003E8A807A8E828F83A3A3A3A3E0F51278DC
:10391C0012121E4E850882850983A3A3121E61759F
:10392C0012F17513027812121E4A7810121E4A7484
:10393C0009121C13121E617409121C13E0F9123BBC
:10394C004B1209CA7409121BDDE9FE700F7CF17D64
:10395C0002123B4F1205A4E97009802074166E7098
:10396C00027E009002F2123B55121666EE70048035
:10397C000B7E018508828509831241A9EEF902416B
:10398C00BE123B94F510A3E0F511EA45112274E840
:10399C00121C3774FE121BC78A168B178C148D15CC
:1039AC00EA2405F50CE43517F50DEA2402F50EE4CE
:1039BC003517F50F850E82F583123B551206768A64
:1039CC00088B09750B007C037D0079007AF17B0272
:1039DC001215FA750A00E50814F5100424FFF50811
:1039EC00E50934FFF50980549002F1E0FA9002EEFB
:1039FC00E0F8EA28F8E43400F9E50898E50999506C
:103A0C000D9002F1E0F8E510C3989002EEF0E0F5AD
:103A1C00127513007812121E4A124AE69002F2E056
:103A2C002AFAA3E03400FB1215E27402121BDD909B
:103A3C0002EEE0F89002F1E028F0050A850C828590
:103A4C000D83A3A31244604003023B309002F1E0CB
:103A5C00C39508E495094003023B30AE0AEE2EFEF6
:103A6C00E433FF123B6FAC18AD19124B01E439FB78
:103A7C001208628A128B13AC12AD13EC4D701B75CD
:103A8C000B01123B5F1241AD9002F21230AC60039D
:103A9C00121666A90B7402023E18851682851783CE
:103AAC00A3A3A3A3E0F50B780B121E4EE4F512F5BD
:103ABC00137812121E4A7512EE7513027812121E2A
:103ACC004A9002EF121E617407121C13121E61A998
:103ADC0010850E82850F83123B551209CA74091288
:103AEC001BDDE9F50B709B9002F2123B8460030224
:103AFC0039F4E4F512F5137812121E4A7CFF7DFF9F
:103B0C00790F850E82850F83123B5512093474028E
:103B1C00121BDD123B8A60030239F4123B5F123E2A
:103B2C008E023AA17CF17D02850E82850F83123BB9
:103B3C00551205AAE96003023A947900023AA1AC45
:103B4C000CAD0D850A82850B83123B5922E0FAA33A
:103B5C00E0FB22123B6FE0FAA3E0F9EA85148285C0
:103B6C00158322850C82850D83E02EF8A3E03FF9A6
:103B7C0088828983229002EF124C87E84922123BFB
:103B8C0094F8A3E0F9E849229002F2EAF0A3EBF0F2
:103B9C009002F2E02274E8121C3774FA121BC774FC
:103BAC0004121C131237978C168D177404121C13E5
:103BBC00E02405F50EA3E03400F50F7404121C1379
:103BCC00E02402123E2C123B551206768A0A8B0B0D
:103BDC007F007E00A818A919880889097808121E88
:103BEC004A850E82850F83A3A3A3A3E0F5088E0953
:103BFC007808121E4AE50E2405F508E4350FF50980
:103C0C007808121E4A850E82850F83A3A3123E5C90
:103C1C0012085C7406121BDD8A0C8B0D8029123E77
:103C2C004DF00F123E4DF00F9002EE124198121E05
:103C3C004A124AE6EFF8123E201215E27402121BE9
:103C4C00DD9002EEE02FFFE50C450D7003023CDC2D
:103C5C008518828519831242CEA3A3A3E0F985149B
:103C6C0082851583123B5512084AE9FEE50C2404A3
:103C7C00F510E4350DF511EE70507404121C13128E
:103C8C003E53F5087808121E4EE4F508F50978083D
:103C9C00121E4A7508EE7509027808121E4A900227
:103CAC00EF121E617407121C13121E61E50A24FA2E
:103CBC00F9AC0CAD0D851482851583123B55120998
:103CCC00CA7409121BDDE9FE6039123E691241AC5F
:103CDC00EF7003023E039002F2E0F5F0EF849002E5
:103CEC00F1F07CF17D02851482851583123B55120F
:103CFC0005B0E960099002F3123B55121666790083
:103D0C00023E168F08EF703BE4F512F51378121291
:103D1C001E4A7CFF7DFF7911851482851583123B29
:103D2C00551209347402121BDD123E797009123ED1
:103D3C0069123E8D023E169002EEE024049002F2CF
:103D4C00F080359002EEE0F89002F2E0FAE82404FC
:103D5C00FCE43400FDEC6A4D6003023CE2E50A240D
:103D6C00FAFAE50B34FFFBE50828F8E43400F9EA2D
:103D7C0098EB995003023CE2851082851183E0C0D8
:103D8C00E09002F3E02FF8A3E034008882F583D0B2
:103D9C00E0F00F851082851183A3E0C0E0123E3A5B
:103DAC00D0E0F00F7402121C1D88088909780812E3
:103DBC001E4A7402121C13121E61850E82850F831B
:103DCC0012378B1208687404121BDD8A0C8B0DEAF7
:103DDC00450D7003023C2A7402121C13E0C0E01261
:103DEC003E3AD0E0F00F7402121C13A3E0C0E012B4
:103DFC003E3AD0E0023C32EE70027E0A850E82859D
:103E0C000F83123E6F1241ACEEF97406121BDD7F6C
:103E1C0010021D099002F3E028FAA3E03400FB2203
:103E2C00F514A3E03400F515851482F58322123EB7
:103E3C003E229002F3E02FFAA3E034008A82F5834D
:103E4C0022123E3E74FF22123FBBA3A3A3A3E02287
:103E5C00124D78850E82850F83123B592285108274
:103E6C00851183124C87851682851783229002F365
:103E7C00EAF0A3EBF09002F3124C87E849221241CE
:103E8C00B2E8F0A3E9F079112274EA121C3774FE3F
:103E9C00121BC78A088B098C128D13EA2405FEE4C9
:103EAC003509FFAC18AD198E828F83123B55120861
:103EBC00628A0C8B0DEE2406F50EE43FF50FEA45F5
:103ECC000D7003023F8DE5082402F50AE43509F56F
:103EDC000B8A828B83A3A3A3E0A2E55028851882CA
:103EEC00851983123B551209BE8A108B11EA4511B4
:103EFC0060207912123B4B851082851183121C3580
:103F0C00E9F50C707F850E82850F83E0600979528C
:103F1C008011750C0E806D850882850983A3A3A37F
:103F2C00A3E0F9E4F508F5097808121E4A8E828F91
:103F3C0083A3A3E0F5087808121E4A8E828F83A310
:103F4C00A3A3121E618E828F83124AE9123B4F1279
:103F5C0009D07406121BDDE9F50C7011850E8285F3
:103F6C000F83E0702D123B4F1205B6802574166539
:103F7C000C7011750C007418121C13123FB7E480EE
:103F8C0010750C01124C7F851282851383E8F0A307
:103F9C00E9F0850E82850F83E0600479008002A928
:103FAC000C7402121BDD7F0E021D09123FBB22E0B6
:103FBC00F8A3E0F58388822274EC121C3774F71294
:103FCC001BC78A0A8B0B8C108D11EA2405FEE43575
:103FDC000BFF750C00AC18AD198E828F83123B55FC
:103FEC001208628A088B09EA45097003024183E5CD
:103FFC000A2402F50A5002050B8A828B83A3A3A321
:10400C00E0A2E5502F851882851983123B551209C1
:10401C00BE8A0C8B0DEA450D604F7912AC08AD09C8
:10402C00123B4F850C82850D83121C35E9F50C6013
:10403C0003024186850A82850B83E0F508A3E0F52F
:10404C0009AA08FB1209B2EA4B70197AFF7BFF121E
:10405C0009B2EA4B70030241798A828B83E508F03E
:10406C00A3E509F07508008008750C0E0241860561
:10407C00089002EBE0F8E508C3984003024179850B
:10408C00080E750F007403780E121BB48A828B8392
:10409C00A3A3E0250EF8A3E0350F12454D70D08E8A
:1040AC00828F831241A11237978E828F83A3A31222
:1040BC0041A1123795EE2404F508E43FF509850873
:1040CC0082F583E088828983A3A3A3A3F0A3E4F001
:1040DC00EE2405F50EE43FF50F850E82F5831241B3
:1040EC00A1A3A3A3A3123795751207751300781219
:1040FC00121E4AEEFCEFFD7404121C251215E2741C
:10410C0002121BDDE4F5127812121E4A8508828514
:10411C000983E0FC7D007917123B4F1209347402BD
:10412C00121BDD7407121C131237977407121C1321
:10413C00E0FA4B603D850882850983124198121E76
:10414C004A850E82850F83124AE91215E274021217
:10415C001BDD7402121C2D123B4F1205BCE96026AC
:10416C007407121C13123B551216668019750C0934
:10417C008008750C118003750C01124C7F85108220
:10418C008511831241ACA90C74098028E0F50875DF
:10419C000900780822123B5988828983221241B285
:1041AC00E8F0A3E9F022E0F8A3E0F9850E82850F90
:1041BC0083227404121BDD7F0C021D0974EC121C8B
:1041CC00371242BC751000EE2402F50CE43FF50DDD
:1041DC00850C82F583123B551209B28A088B09EAC9
:1041EC00450970030242A0850A82850B83E06401B5
:1041FC006003024295AC08AD09AA0AAB0B1209A6E2
:10420C00E9606E850882850983123522EE2406F555
:10421C000AE43FF50B8E828F83A3A3121E618E825C
:10422C008F83A3A3A3A3121E61850A82850B83121D
:10423C001E6179188E828F831242CE123B55120961
:10424C00D07406121BDDE9F8741668700B850A82AF
:10425C00850B83E4F0A38014E860128E828F8312A6
:10426C003B55850E82850F83EAF0A3EBF088108016
:10427C0018780E121E4AAC08AD09EEFAEFFB1209C3
:10428C00AC7402121BDDE9F510AA08AB091209B8CF
:10429C00E510700E850C82850D83123B551205C2FC
:1042AC008009741665107003751000A9100241C3C3
:1042BC00EAFEEBFF8C0E8D0FEE2405F50AE43FF5BC
:1042CC000B22124D78850C82850D832274EA121C08
:1042DC00377508007509007E007F00750A00EC2414
:1042EC0002F510E43DF5118035EC65087003ED65C1
:1042FC0009600302438D88828983A3A3E06A70035B
:10430C00A3E06B707C88828983A3A3A3A3124C8344
:10431C00EE28FEEF39FFEA28FAEB39FB050A1244C6
:10432C005D503A850A0C750D007403780C121BB4A1
:10433C0085108285118312445012454D601FE5088B
:10434C00450970A58C088D098882898312352088CF
:10435C00828983A3A3E02EFAA3E03F80BEE50AC3C3
:10436C009402500302444B750800750900EE4F602F
:10437C0010EEFAEFFB1216608A0E8B0FEA450F70E7
:10438C0005790002444D750B00024420850B0C7519
:10439C000D007403780C121BB4851082851183E018
:1043AC00250CF50CA3E0350DF50DE50C2406F514E4
:1043BC00E4350DF515851482F5831245526042E5FE
:1043CC000C2404F512E4350DF513851282F58312D5
:1043DC001E61E50E2508FAE50F3509FB1215E2748E
:1043EC0002121BDD851282851383E02508F508A3D4
:1043FC00E03509F509851482851583123B55121693
:10440C0066E50B600D7C087D007900AA0CAB0D12E3
:10441C0015FA050BE50BC3950A500302439885105A
:10442C0082851183124C8388828983A3A3A3A3A3BF
:10443C00A3E50EF0A3E50F1230B3EEF0A3EFF07985
:10444C0001023FB212445422E0250CF8A3E0350DD2
:10445C00229002EBE0F8E50AC3982274F0121C37A4
:10446C008A0E8B0F8C0A8D0B750D00750C0080500D
:10447C007916EE2406F508E43FF5098E828F83A3A6
:10448C00A3121E618E828F83A3A3A3A3121E618528
:10449C000882850983121E61850E82850F83A3A372
:1044AC00123B551209D07406121BDDE9F50D74167A
:1044BC00650D706C850882850983E4F0A3F0050C0A
:1044CC009002EBE0F8E50CC3985066AA0C8A0875CC
:1044DC00090074037808121BB4850A82850B83A328
:1044EC00A312459CE8FEE9FF8E828F831245526031
:1044FC0040EA2401F508E43400F5099002EBE0658C
:10450C00087002E509601488828983A3A3A3A3A37E
:10451C00A3A3A3123B84600302447C791802447E5B
:10452C00E9609B124C7F7410121C1312454412410B
:10453C00ACA90D7F08021D09E0FAA3E0F5838A827D
:10454C0022F988828983124D78EC4D2274F6121C64
:10455C00377C0080010C900348E0F8ECC398501EA7
:10456C008C0875090074027808121BB4124591E08E
:10457C006A7003A3E06B70DDE8FAE9FB80047A0053
:10458C007B000246349002E912459C888289832282
:10459C00E02508F8A3E03509F92274F2121C378AD9
:1045AC00088B09750A0080278E828F83A3A3A3A38F
:1045BC001230AA60031216667C087D007900EEFAB0
:1045CC00EFFB1215FA8E828F83E4F0A3F0050A122A
:1045DC00445D5027850A0C750D007403780C121B72
:1045EC00B4850882850983A3A3E0250CFEA3E035DE
:1045FC000DFF8E828F83123B8470AD8508828509F6
:10460C008374FFF0A3F0024D6C74F6121C37120980
:10461C00648A828B83E582458370067A007B0080F6
:10462C0007A3A3A3A3123B557F02021D0974F41226
:10463C001C3789088C828D83E06402703C124C22FA
:10464C00FEA3E0F9EEF8740268700374296970290E
:10465C00750A02750B00780A121E4A7410121C138C
:10466C00121E617410121C13121E61A9081212EE94
:10467C007406121BDDE9F9800279010230E774E857
:10468C00121C3774FB121BC7E9851882851983F03D
:10469C008A168B17ECFEEDFF7510008E828F83A3AC
:1046AC00A3A3E0A2E4502D741D121C13123B55124F
:1046BC0009BE8A828B83E58245837003024AC179E5
:1046CC000AEEFCEFFDAA16AB17121C35E9F51060CB
:1046DC0003024AC4741F121C13E0F508A3E0F50989
:1046EC007421121C13E0F50AA3E0F50B7423121CC1
:1046FC0013E0F50EA3E0F50F8E828F83E064026069
:10470C0003024A62A3124C83850882850983A38520
:10471C008212858313EE2406F50CE43FF50D888296
:10472C008983124B01F514E439F5157814121ED453
:10473C0001000028012864470700022829480328A3
:10474C0097470029584901298349022924490329FB
:10475C0058490429FC49624AE50E450F6003024A98
:10476C005D850C82850D83124C83E8FAE9FB8A8205
:10477C008B83E0850A82850B83124B0C121E4A8AAE
:10478C00828B83A3E0FCA3E00249E6E50E450F60B3
:10479C0003024A5D850A82850B837401F0124AF686
:1047AC00850882850983F07C007D008E828F83A32F
:1047BC00A3A3A3E02401FAA3E03400FB120862EAED
:1047CC004B60408A828B83E02402F8850A82850B39
:1047DC0083E028F0EA2404F8E43BF988828983E03A
:1047EC00851282851383124B1A124B0C121E4A8AA5
:1047FC00828B83A3124AE9E5082403FAE43509FB0A
:10480C000249EB850A82850B83E02404F07C047D4D
:10481C00007900AA12AB131215FA024AC4E50E4530
:10482C000F6003024A5D124AF6FEA3E0FF850A827E
:10483C00850B837404F0EE850882850983F0EF857F
:10484C001282851383F07403121C2DEEFAEFFB1207
:10485C0008628A0C8B0DEA450D70030249078A82A7
:10486C008B83A3A31235207401121C1D880E890F93
:10487C00780E121E4A7405121C13121E617CFF7DE9
:10488C00FF1208687404121BDD8B0FEA450F70339E
:10489C00850C82850D83124AED121E4A850C828589
:1048AC000D83A3121E617C027D007A507B8A120656
:1048BC00647404121BDDE9700A7401121C1374FF7A
:1048CC00F0A3F08E828F83E064027039750C027550
:1048DC000D00780C121E4A8E828F83A3124AE9E5D2
:1048EC00082404FAE43509FB1215E27402121BDDEC
:1048FC00850A82850B83E0240280097401121C1343
:10490C00EEF0A3EFF07401121C13124ADB740112C7
:10491C001C13124AD2024A57E50E450F6003024A95
:10492C005D850C82850D83124D71AA16AB17121280
:10493C00F4850A82850B837402F0850882850983CD
:10494C00EAF0851282851383EB024A5AE50E450F75
:10495C006003024A5D124AF6F8A3E0F9850A8285E3
:10496C000B837402F0E8850882850983F0E98512CF
:10497C0082851383024A5A850C82850D83123B551E
:10498C001215DCEAFAF8C3950EE4950F405CE86565
:10499C000E450F70047A008021851882851983E0FA
:1049AC00FCE50E2CFCE4350FFDC3EC98ED940050A7
:1049BC0003E08005E50ECAC39AFAEA850A82850BE4
:1049CC0083F08A0A750B00780A121E4A850C8285C0
:1049DC000D83E0250EFCA3E0350FFDAA08AB0912F0
:1049EC0015E27402121BDD024AC4751007024AC498
:1049FC00E50E450F705B850C82850D83124C83850B
:104A0C000A82850B837407F088828983124AD31239
:104A1C004ACBE0851282851383F0E82402FAE4394C
:104A2C00FB8A828B83124ADB8A828B83124AD2A343
:104A3C00A31230B2124AE0F0E82405F850010988BC
:104A4C00828983124AE0A3124B1AA3A3A3A3F0807A
:104A5C006775100B8062741D121C13123B551209E2
:104A6C00648A828B83E5824583604A124C83880C6E
:104A7C00890DE8450D603E7425121C13E0F5107885
:104A8C0010121E4E780E121E4A780A121E4A780810
:104A9C00121E4A7407121C13E0F9EEFCEFFDAA1665
:104AAC00AB17850C82850D83121C357407121BDD28
:104ABC00E9F510800375100EA9107405023E18F06C
:104ACC0088828983A322A3E0850882850983221228
:104ADC004B21F022124B21A3A3229002EF124D780E
:104AEC0022E0F50E750F00780E22850C82850D8361
:104AFC00123FBBE022E0FAA3E0F8E4C8F9EA28226E
:104B0C00F08A828B83E0F50A750B00780A22124A30
:104B1C00CB124B2122E0850882850983A3A3227442
:104B2C00EE121C3774FE121BC78A088B09ECFEEDC3
:104B3C00FF890AAC18AD19EEFAEFFB1208628A0C69
:104B4C008B0DEA450D7003024C1385188285198371
:104B5C00123B551209648A828B83E582458370036C
:104B6C00024C0EA3A3124C83880E890FE8450F70DC
:104B7C0003024C0E7414121C13E0F510A3E0F51193
:104B8C00E50AF50B780B121E4E7419121C13121E2B
:104B9C00617810121E4A741B121C13E0F9AC0CAD98
:104BAC000DAA08AB09850E82850F83121C3574057E
:104BBC00121BDDE9F50B705274FE650A604C850C16
:104BCC0082850D83E064027041124C22FAA3E0F955
:104BDC00EAF87402687003742969702E8510828556
:104BEC001183124B01F50CE439F50D780C121E4AA9
:104BFC00EEFCEFFDAA08AB091209E87402121BDDEA
:104C0C008008750B0E8003750B01A90B7402121B27
:104C1C00DD7F0A021D09A3124C8788828983E0225A
:104C2C0074F6121C3774FE121BC7740C121C131270
:104C3C004C83E8851882851983F07401121C13E9E2
:104C4C00F0E4F508F5097808121E4A750802780890
:104C5C00121E4A7404121C1D880889097808121E39
:104C6C004A79FE1209D07406121BDD7402121BDD88
:104C7C000246348E828F83124C8722E0F8A3E0F92F
:104C8C002274F7121C37EAFEEBFF89089003061218
:104C9C004AE91212F4EA5402600BA908EEFAEFFB8F
:104CAC00120856800279017F01021D0974F2121C50
:104CBC003774FE121BC7EAFEEBFF890A7401650A02
:104CCC0060147402650A6003024D677901120BECE3
:104CDC00E96003024D67EEFAEFFB1209B2EA4B6092
:104CEC00031209B8A818A919880889097808121E8E
:104CFC004A7508027509007808121E4A750848752D
:104D0C00098A7808121E4A7CFF7DFF7A017B00120B
:104D1C00085C7406121BDD8038850882850983A324
:104D2C00A3A3A3A3A3124D71EEFAEFFB1212DCE4C2
:104D3C00F50CF50D780C121E4A7402121C13121E7F
:104D4C00617CFF7DFFAA08AB091208687404121B72
:104D5C00DD8A088B09E508450970BE7402121BDD5B
:104D6C007F06021D09123FBB124D7822E0FCA3E026
:104D7C00FD2274F4121C378A088B09ECFEEDFF90AF
:104D8C0016F0E0F4604B7A097B00121606EA4B60D1
:104D9C00408A828B8374B1F0A3E4124DE0F08A82D6
:104DAC008B83A3A3E508F0A3E509124DE0A3EEF075
:104DBC00A3EFF0740C121C13124C838A828B83A306
:104DCC00A3A3A3A3A3A31241AC9016F0E0F912166F
:104DDC00120230E7F08A828B83A3A3A3A32274EE82
:104DEC00121C3774FA121BC78A0A8B0BE9FF8C084A
:104DFC008D097E00850A0C850B0D780C121E8E0019
:104E0C000410C650324E554E744E974EBA4EDD4E6F
:104E1C000E4F314F484F784F27504A506D509B5092
:104E2C00C650C650A14F74016F7019850882850950
:104E3C0083E0C39403500D850882850983E09018A4
:104E4C0045F080027E180250EE74026F70158508D2
:104E5C0082850983E0F8A3E0F9901846E8F0A3E90D
:104E6C00F080027E180250EE74016F701985088272
:104E7C00850983E0C39402500D850882850983E07F
:104E8C0090073FF080027E180250EE74016F70198B
:104E9C00850882850983E0C39405500D85088285B9
:104EAC000983E0900740F080027E180250EE7401F6
:104EBC006F7019850882850983E0C39402500D85B3
:104ECC000882850983E0900741F080027E18025029
:104EDC00EE74106F7027750C10750D00780C121E87
:104EEC004AAC08AD097A427B071215E27402121B18
:104EFC00DD8A0C8B0D850C82850D8380027E180259
:104F0C0050EE74016F7019850882850983E0C39493
:104F1C0002500D850882850983E0900752F08002CB
:104F2C007E180250EE74016F700D8508828509831E
:104F3C00E0901849F080027E180250EE74046F70F5
:104F4C00269089DA780C121A7F8508828509837875
:104F5C000C12188F5011850882850983121AB5908E
:104F6C000754121AC180027E180250EEEF70211203
:104F7C0007FCE97013121282E9F50D7950121738FB
:104F8C00E9F50C121270800A9007E77401F08002A8
:104F9C007E180250EE74076F707C750E06750F004C
:104FAC00780E121E4A850882850983A3AC82AD83D4
:104FBC007402121C251215E87402121BDD8A108B68
:104FCC001185100E85110F7C007D00AA18AB198578
:104FDC000882850983E0F9121216E9F50CE50CC379
:104FEC00940A502E1207FCE97015A90C121288E9CC
:104FFC00F50E7950121738E9F50D1212708019A8B8
:10500C000C790074E828F582740739F5837401F083
:10501C0080067E0280027E180250EE74016F7019B9
:10502C00850882850983E0C39402500D850882852A
:10503C000983E0900753F080027E180250EE740151
:10504C006F7019850882850983E0C3940A500D8519
:10505C000882850983E0901848F080027E1802507F
:10506C00EE74016F7025850882850983E0C394076F
:10507C004019850882850983E0C39411500D850879
:10508C0082850983E090184AF080577E188053740B
:10509C00016F70229007E6E0F50C85088285098384
:1050AC00E09007E6F0E50C70399007E6E0640170DB
:1050BC0031121270802C7E188028C3E50A9427E5E3
:1050CC000B9400501B74026F70168508828509833F
:1050DC00E0FCA3E0FDAA0AAB0B12067CE9FE800201
:1050EC007E02EEF97406121BDD7F0A021D0974ECB8
:1050FC00121C3774DA121BC7890D8A128B138C0A97
:10510C008D0B743A121C13E0F50C908946AC18AD5B
:10511C00197406121ADAAC18AD19AA12AB13A90D30
:10512C00121216E9FEEEC3940A400302526EEEF917
:10513C00121252E9FF901845E06402700474018069
:10514C00027400F5087808121E4EAD0CEFFCEEF957
:10515C00AA0AAB0B1212C47401121BDD7C147D0065
:10516C0079007412121C251215FA8A0E8B0F850EFB
:10517C0008850F097412121C2D7A1075F006EEA416
:10518C002424F9121732E9703C7C1079FF74121246
:10519C001C2512165AE9702D7422121C13AC82AD08
:1051AC00837A0475F006EEA42425F9121732E9F57A
:1051BC00087412121C2DEFA2E0E433F9AA0AAB0B0F
:1051CC00120706E9F87406121C2D7A0C74702EF96D
:1051DC00121732E970797406121C25121246750EDC
:1051EC0000E50EC394045067A80E7900E875F0032F
:1051FC00A4C8AAF075F000A42AFA75F003E9A42A51
:10520C00F97406121C13E58228F508E58339F509B3
:10521C00850882850983E0F8A3E0F9E849602C85CC
:10522C000882850983A3A3E0F5107511007810128C
:10523C001E4A850882850983E0FCA3E0FDAA0AAB1F
:10524C000B1209D67402121BDDE9F8050E8092EFE1
:10525C00A2E1500E90073EE0F9AA0AAB0B1209DC52
:10526C00E9F87404650C700F901845E0640270073F
:10527C00AA0AAB0B1212BE79007426121BDD7F0C2E
:10528C00021D0974F7121C37EAFEEBFF1207FCE94A
:10529C0070679007E7E06401701B121282E9F50851
:1052AC009007E77400F07C0A7D0079007AE87B07B0
:1052BC001215FA8039750800E508C3940A502FA816
:1052CC0008790074E828F582740739F583E06401E5
:1052DC007018A908121288E9FAA808790074E8284D
:1052EC00F582740739F5837400F0050880CA79508B
:1052FC00121738E9F5081212707F01021D0974F2B9
:10530C00121C37890BEAFEEBFF8C088D09750A0A13
:10531C00E50B600C1460091460441460640253AF14
:10532C00EEFAEFFB121264E9F50AE50AC3940A508F
:10533C0072E5084509606C750C06750D00780C1249
:10534C001E4AEEFCEFFDAA08AB091215E27402121C
:10535C001BDD8A0C8B0D850C82850D838045EEFA46
:10536C00EFFB12125EE9F50AE50AC3940A5034E524
:10537C00084509602EAA08AB09A90A121258E9803F
:10538C0022EEFAEFFB12126AE9F50AE50AC3940A57
:10539C005011E5084509600BAA08AB09A90A1212BD
:1053AC0058E9F8A90A7F06021D0974F2121C378A03
:1053BC000C8B0DE9FF7E1574FF650C700474FF6592
:1053CC000D702A750800E508C3940A5014EFFC7A96
:1053DC00027B00A908121234E960027E00050880E5
:1053EC00E5EF60627AAC7B12120C108059AA0CAB00
:1053FC000D120BE08A0A8B0B850A08850B09E50850
:10540C00450960407C007D00E5082405FAE4350977
:10541C00FB850882850983A3A3A3A3E0F9121216C6
:10542C00E9F50AE50AC3940A500EEFFC7A027B00F8
:10543C00A90A121234E97E00EF600BAA08AB09121C
:10544C0012AC80027E14EEF97F06021D0974EE1276
:10545C001C378A0E8B0F8C0A8D0B7412121C13E0E6
:10546C00F50CA3E0F50D75081574FF650E7004744A
:10547C00FF650F701E7E00EEC3940A5061AC0CAD3C
:10548C000DAA0AAB0BEEF912123AE960037508008B
:10549C000E80E4AA0EAB0F120BE08A108B11AE102B
:1054AC00AF11EE4F60357C007D00EE2405FAE43F31
:1054BC00FB8E828F83A3A3A3A3E0F9121216E9F546
:1054CC0009E509C3940A5016AC0CAD0DAA0AAB0B36
:1054DC00A90912123AE97508008003750814A90885
:1054EC007F0A021D0974F7121C37EAFEEBFF9007C6
:1054FC0058EEF0A3EFF090073EE0FC7D007A267B9F
:10550C000012067CE9F50890073EE0F91209407F8D
:10551C0001021D0974F0121C3774EC121BC78A0CA3
:10552C008B0D850C82850D83A3A3E024FA700302F6
:10553C00599924FD700302580E147003025610146E
:10554C00601024FD70030257B614700302584D020C
:10555C0059ACAE0CAF0D900758E0F8A3E0F9E84950
:10556C006066900758E0F8A3E0F5838882E0F8A322
:10557C00E0F9E8496052EE240CF582E43FF583E053
:10558C00F5087808121E4EEE240BF582E43FF583E5
:10559C00E0F98E828F83A3A3A3A3A3A3A3A3A3E069
:1055AC00FCA3E0FDEE2403FAE43FFB900758E0F87F
:1055BC00A3E0F5838882E0F8A3E0F5838882121CCF
:1055CC00357401121BDD80398E828F83A3A3A3A3B4
:1055DC00A3A3A3A3A3121E61900754121A9D120732
:1055EC00187402121BDDE9601879018E828F83A377
:1055FC00A3A3A3A3A3A3A3A3E0FAA3E0FB12071204
:10560C00E90259ACAE0CAF0D7508008E828F83A3E6
:10561C00E060030257388E828F83A3A3A3A3A3E079
:10562C00A2E040030257389007F2E0F8A3E0F9E853
:10563C004960030257387C0E7D007900AA18AB191B
:10564C001215FA8A0A8B0BAA0AAB0BEE240CF58204
:10565C00E43FF583E0F8A3E0F9E8496036750A0603
:10566C00750B00780A121E4AEE240CF582E43FF505
:10567C0083E02410FCA3E03400FD7402121C2512FC
:10568C0015E27402121BDD8A0A8B0B850A82850BCC
:10569C0083804F8E828F83A3A3A3E0FAA3E0FB1237
:1056AC000BE08A0E8B0F850E0A850F0BE50A450B56
:1056BC00602D750E06750F00780E121E4AE50A2431
:1056CC0005FCE4350BFD7402121C251215E2740264
:1056DC00121BDD8A0E8B0F850E82850F83800302D1
:1056EC0059AC8E828F83A3A3A3A3A3E0A2E25004A0
:1056FC00D2F08002C2F0A2F0E433F87900740C12FC
:10570C001C13E048F0A3E049F0EEFCEFFDAA18AB47
:10571C001912124CE970127A027B0090073EE0F9E4
:10572C00121636E979000259AE750815900758E043
:10573C00F8A3E0F9E849606F900758E0F8A3E0F5AA
:10574C00838882A3A3E0F8A3E0F9E84960598E822C
:10575C008F83A3E0FC79018E828F83A3A3A3E0FA4D
:10576C00A3E0FB900758E0F8A3E0F5838882A3A39D
:10577C00E0F8A3E0F5838882121C35E5086028ACBC
:10578C000879038E828F83A3A3A3E0FAA3E0FB9096
:10579C000758E0F8A3E0F5838882A3A3E0F8A3E020
:1057AC00F5838882121C350259ACAE0CAF0D9007F4
:1057BC0058E0F8A3E0F9E8496045900758E0F8A3F1
:1057CC00E0F5838882A3A3E0F8A3E0F9E849602F11
:1057DC00850C82850D83A3E0FC79028E828F83A3D6
:1057EC00A3A3E0FAA3E0FB900758E0F8A3E0F5834D
:1057FC008882A3A3E0F8A3E0F5838882121C35020B
:10580C0059ACAE0CAF0D7C007D00EE2404FAE43FE5
:10581C00FB8E828F83A3A3A3E0F9121216E9F5087D
:10582C00E508C3940A5017EE240AFCE43FFD7A0401
:10583C0075F006E508A42425F912172CE9F802598D
:10584C00ACAE0CAF0D900753E06019901848E0F91E
:10585C008E828F83A3A3A3E0FAA3E0FB120712E9C5
:10586C00F80259AC901845E0701679058E828F833A
:10587C00A3A3A3E0FAA3E0FB120712E9F80259ACC8
:10588C008E828F83A3A3A3E0FAA3E0FB120BE08A22
:10589C000A8B0B850A08850B09E50845097003027C
:1058AC0059AC8E828F83A3A3A3A3A3A3A3E0A2E0EE
:1058BC00506D850882850983A3A3A3A3E060608E45
:1058CC00828F83A3A3A3A3A3A3A3A3A3E0F50AA3FB
:1058DC00E0F50B7409780A121BA5E50A5401F8E5EA
:1058EC000B5400F9E8A2E04036740E121C2DE508AA
:1058FC002405FAE43509FB850882850983A3A3A353
:10590C00A3E0F9121216E9701679038E828F83A325
:10591C00A3A3E0FAA3E0FB120712E9F80259ACEEDC
:10592C002405FCE43FFD850882850983A3A3A3A37A
:10593C00E0F98E828F83A3A3A3E0FAA3E0FB1212FB
:10594C00B8900758E0F8A3E0F9E84960539007587D
:10595C00E0F8A3E0F5838882A3A3E0F8A3E0F9E8DC
:10596C0049603D7C0079008E828F83A3A3A3E0FA6B
:10597C00A3E0FB900758E0F8A3E0F5838882A3A38B
:10598C00E0F8A3E0F5838882121C358013AE0CAFCF
:10599C000D8E828F83A3A3A3E0FAA3E0FB12121057
:1059AC0079017414121BDD7F08021D0974F5121C99
:1059BC003774F2121BC78909EAFEEBFF8C0AAC188C
:1059CC00AD197A0E75F006E509A42420F9121732E8
:1059DC00E9705F7C0679FFAA18AB1912165AE970A8
:1059EC0051740C121C13E0F8A3E0F9E8F508E50A71
:1059FC006005EE42088004EEF45208A808790074A1
:105A0C000C121C13E0687003A3E0696021A80879EC
:105A1C0000740C121C13E8F0A3E9F0AC18AD197A61
:105A2C000E75F006E509A42420F912172CE979016A
:105A3C0080027900740E121BDD7F03021D0974F0C5
:105A4C00121C3774E6121BC7890B8A0C8B0DECFEEB
:105A5C00EDFF740C121C2D7A0E75F006E50BA424C8
:105A6C0020F9121732E96003025B7A7C0679FF7425
:105A7C000C121C2512165AE96003025B7AAC18ADA5
:105A8C00197A0C7470250BF9121732E96003025B5A
:105A9C0076750A00AA18AB19121246E50C450D7062
:105AAC002E7C0C7900AA18AB1912165AE960030265
:105ABC005B5C7C0C7D007900AA18AB191215FA8A74
:105ACC00088B09850882850983750A01025B5CAC29
:105ADC0018AD19AA0CAB0D1212408A0E8B0F850E45
:105AEC0008850F09E50845097030EE4F601BAC18AE
:105AFC00AD197A007B001212408A0E8B0FA80EA9EA
:105B0C000F88088909E84970047900806385088248
:105B1C00850983E50CF0A3E50DF0850882850983E2
:105B2C00A3A3E0F87900EE687002EF696022EEC082
