:020000040000FA
:0600000002011A022E3D70
:03002B000235B9E2
:0300330002359102
:03005300022EB3C7
:03006B0002353823
:03007B00023560EB
:10008300022C93E5C754F84401F5C7790122000017
:100093000080FB120086B90003020104E479217891
:1000A30008B800028004F709D8FCE479297802B87B
:1000B30000028004F709D8FCE4900281785F791488
:1000C3008002F0A3D8FCD9FA781A90014A7A01BACF
:1000D30000028007E493A3F608DAF97ADF7B159030
:1000E300014B787879058015E493A3AD82AE838ABA
:1000F300828B83F0A3AA82AB838D828E83D8E9D9C6
:10010300E775823A7583AA740412012C758291757E
:100113008300740012012C75D00075813F7518811E
:10012300751902759F00020096C09FF59FE473D076
:100133009F22D083D082C09FE493C0E0740193C018
:10014300E0740293F59F2201FF0000B40000280031
:100153002800283075A000A000A000A0000008001F
:1001630008E001F000100010001000100010001053
:100173000050005000500010001000D00700000095
:100183000000000F0001000500307507001000019A
:100193000081FF00000000FFFFFFE4070208EA07F9
:1001A3002608FF02020208025000A0000000E80334
:1001B30002708A010000478A026E8A0100003A1623
:1001C30002668A010000BF02026E8A0100003B162C
:1001D30002648A010000D502026E8A0100003C1607
:1001E30002628A010000D702026E8A0100003D16F6
:1001F30002608A080000D802026E8A0100003E16DF
:10020300025C8A0100003F16FF0100FF2002708A92
:10021300010000448A026E8A010000A31602588A74
:100223000000000000026A8A03000006031700862C
:100233000E860E860E860E860E860E860E860E861B
:100243000E860E860E860E860E3E11501138111242
:10025300080802708A010000418A026E8A010000C8
:10026300E616105D880100002507026A8A03000074
:100273002B07026E8A010000E716107D880200003A
:100283002D07026E8A010000E81610BD88020000E7
:1002930035070202023132333435363738393031DB
:1002A300320002302E322E3933302E303300020228
:1002B30002020202010D000000100102708A010017
:1002C300003E8A026E8A010000291702888A010013
:1002D300003607026E8A0100002A1702868A01008F
:1002E30000AE89026E8A0100002B1702848A010086
:1002F300002C17026E8A010000451702828A010052
:10030300003E89026E8A010000461702808A0100BE
:1003130000B689026E8A0100003917027E8A010045
:10032300003A17026E8A0100004717027C8A010017
:1003330000D987026E8A0100004817027A8A0100F9
:10034300003B88026C8A0100004C88026E8A01001F
:1003530000491702788A010000EA88026E8A0100C8
:10036300004A1702768A0100004B1701E80305775C
:10037300100A01014856145C14621468146E147454
:10038300147A14801486148C14921498149E14A452
:1003930014AA14B014160C02708A0100004A8A02CF
:1003A3006E8A0100002D1802DE890200004B08024C
:1003B3006C8A0100001089026E8A0100002C180269
:1003C300E0890300005E08026A8A030000710802E4
:1003D3006C8A0100005C8968FFFFFF000130750330
:1003E3000201060000000000000000000000000001
:1003F300000000000000000000000000000000FFFB
:10040300FF0600800CE803037B034CCD6C03AB03B6
:1004130036567600680402CB47A202180400058B07
:10042300C1010C0400000000037F060CC92C979740
:1004330097038903264666006C02200002400400ED
:100443000000000244040000000002480400000011
:1004530000024C04000000000250040000000002EF
:1004630054040000000002580400000000025C0471
:100473000000000002BC040000000001EC040000C6
:100483004000037F060CC92C9797970402030D3590
:100493005D040904872D353D00A301000000000120
:1004A300078601FE074105F120283038077E013019
:1004B3000746019A074704F1283038076C04F128EE
:1004C3003038021602000101B202FFFF0190040955
:1004D30023A135016A020600016008000000000044
:1004E3000000000060044000000001620200000000
:1004F3006004004000000B0956756C747572654505
:10050300676705122F013F01020A00020106030279
:10051300F0FF56756C7475726545676700204E0071
:100523000070110100D0072A000A18000016181CD9
:1005330018104B657920507265737320537461747E
:10054300650002708A0100004D8A026E8A01000074
:10055300C819028E8A000000DC15026A8A030000B3
:10056300DD15026C8A010000C9193031323334358C
:100573003637383941424344454600286E756C6C22
:1005830020706F696E7465722900303132333435EF
:1005930036373839616263646566003F3F3F000068
:1005A30000807F0000803F00000000F9021550B773
:1005B30043BA510000204100E7DB2E0000A04012A7
:1005C3000135D08304120135E38304120135148409
:1005D300041201354E8404120135A7840412013537
:1005E300EE84041201353685041201356585041243
:1005F3000135948504120135CB8504120135128629
:10060300041201352B86041201358086041201354C
:10061300998604120135E7860412013521870412F5
:1006230001357A9C031201357D9D03120135B69D78
:1006330003120135D99D03120135EB9D03120135D8
:10064300299E03120135A59E031201356D9F0312E6
:1006530001358F9F0312013526A00312013578A0BF
:1006630003120135A9A003120135B6A00312013507
:1006730020A10312013577A1031201357AA10312D8
:100683000135B3A103120135B6A103120135C0A18F
:100693000312013514A20312013555A203120135C9
:1006A30088A203120135C5A203120135C7A30312A1
:1006B30001356BA403120135D4A40312013512A52D
:1006C30003120135B4F603120135DCF603120135CA
:1006D30009F70312013541F7031201359FF703129E
:1006E3000135EBF70312013552F80312013592F885
:1006F30003120135CFF803120135FDF8031201355A
:10070300A7F903120135B1F903120135BEF903123A
:100713000135F1F903120135FDF90312013515FA1B
:10072300031201351FFA03120135A7A7041201357D
:10073300B5A704120135CDA704120135E4A70412AD
:100743000135008002120135AA8002120135BD81F4
:100753000212013539820212013557830212013523
:100763009383021201352E8402120135128502127F
:100773000135DE85021201356C8702120135DD87F2
:100783000212013597880212013589890212013557
:10079300C989021201357D8A02120135AF8A02121C
:1007A3000135A58C02120135E78C02120135058D46
:1007B300021201356B8D021201353A8E0212013598
:1007C300FE8E021201351D9102120135FDB4031292
:1007D3000135E7B50312013592B603120135E3B6CD
:1007E3000312013593B70312013504B8031201351F
:1007F300E9B8031201351DB90312013516BA031204
:10080300013553BA031201352FBB031201356EBBF9
:10081300031201358ABB03120135DF95041201353A
:100823006396041201358E9604120135A8970412BB
:100833000135ADFA03120135C3FA03120135E1FAAA
:1008430003120135F2FB03120135FCFB03120135E0
:1008530027FD031201351EFE031201358BFE031221
:100863000135EBD2031201351BD40312013552D4E7
:10087300031201359CD4031201355FD603120135EF
:1008830071CE01120135FDCE0112013561D0011285
:1008930001356DD001120135A8D00112013517D1F0
:1008A3000112013520D20112013529D3011201357C
:1008B300F0D3011201354DD5011201356BD501126B
:1008C300013588D50112013535D601120135B2D66D
:1008D30001120135DAD601120135A4D9011201350D
:1008E300A9D901120135C2DB0112013510DC011255
:1008F300013580DC01120135BEDC011201359ADDC0
:10090300011201355ADE01120135A6DE011201354D
:10091300A9DE01120135EDDE0112013535DF0112C9
:10092300013574DF0112013596DF01120135CADF8B
:10093300011201352DE001120135F2FA02120135DF
:1009430000FB0212013553FB0212013572FB021246
:100953000135B7FB02120135FBFC0212013596FD8E
:1009630002120135DAFD0212013504FE02120135CD
:1009730073FE02120135B9FE0212013530FF021275
:100983000135E1FF02120135F03500120135003661
:1009930000120135A13600120135FD360012013572
:1009A300BA3700120135D638001201350839001262
:1009B3000135373900120135E43A001201355B3D48
:1009C30000120135CB3F00120135BD400012013545
:1009D300B64100120135BD4300120135B146001284
:1009E3000135E04700120135E44900120135F44AAC
:1009F30000120135834C00120135744D001201358C
:100A0300C24D00120135314E00120135554E001210
:100A13000135A64E001201354753001201354854E3
:100A230000120135A95400120135D45400120135C6
:100A33009A5500120135ABEE03120135B5EE0312E0
:100A43000135FAEE031201350EEF031201359EEF65
:100A530003120135D7EF0312013512F003120135EA
:100A63003BF0031201358FF003120135A4F003129A
:100A73000135C6F003120135DBF003120135EFF047
:100A83000312013504F1031201353EF1031201355E
:100A93006AF103120135F1F10312013534F2031245
:100AA30001355EF20312013589F203120135BCA24E
:100AB3000412013593DC0212013576DD0212013591
:100AC300F1DD021201352CDE021201357DDF021247
:100AD30001350BE0021201359DE2021201354FE3AD
:100AE300021201355BE402120135CEE50212013533
:100AF30027E60212013519E6031201355CE60312FB
:100B03000135E0E603120135B7E9031201356D93B0
:100B1300041201351F94041201351B95041201358B
:100B23005A9504120135B49504120135BA99041289
:100B330001351D9A04120135BA9A04120135EF9A50
:100B4300041201351F9B041201355A9B041201350F
:100B53007A9B041201352ED803120135BAD8031239
:100B6300013579D90312013591DA03120135ABDC72
:100B730003120135CC7300120135F17300120135F4
:100B8300BE7400120135927500120135FF75001213
:100B930001353F7600120135DB76001201350F78FF
:100BA30000120135EA780012013549790012013546
:100BB300D57900120135437A00120135CF7A00123C
:100BC3000135157B00120135877B00120135197C35
:100BD30000120135BA7C00120135DA7C00120135AE
:100BE300227D001201356B7D00120135877D0012D5
:100BF3000135AD7D00120135277E00120135357EAA
:100C030000120135C47E001201352D7F001201351B
:100C130083E10312013508E2031201354AE20312AC
:100C230001352EE3031201359BE303120135DFE3A4
:100C33000312013523E40312013550E40312013595
:100C430078E403120135B0E403120135EEE4031234
:100C5300013515E5031201358FE503120135D9E599
:100C63000312013590A1021201352FA3021201359F
:100C730067A502120135BBA502120135E6A50212D2
:100C83000135C2A602120135F2A60212013521A7CF
:100C93000212013534A70212013575A7021201357C
:100CA300A2A702120135F0A7021201352CA80212E5
:100CB300013571A802120135BEA80212013538A907
:100CC3000212013579AB0212013563AD021201350F
:100CD3009FAD021201352EAF0212013573AF02121E
:100CE3000135E6AF021201353BB0021201359FB068
:100CF30002120135BEB102120135CFB10212013524
:100D03000080031201357980031201353386031203
:100D130001353E8703120135E788031201357589D2
:100D23000312013559BA01120135DABA011201353C
:100D330007BB0112013550BB0112013551BC011231
:100D43000135AABC0112013526BE01120135A8BE28
:100D530001120135C3BE0112013534BF0112013541
:100D6300F1BF01120135B4C00112013542C10112B4
:100D73000135F9C1011201350CC201120135A5C2B9
:100D8300011201353CC30112013563C30112013560
:100D9300CCC30112013516C40112013564C401121A
:100DA30001350BC501120135A9C50112013536C63E
:100DB30001120135A7C601120135EEC60112013534
:100DC30046C70112013578C70112013539C801122E
:100DD30001353CC90112013585C901120135A2C98A
:100DE30001120135C1C901120135F4CA01120135DD
:100DF300ABCB01120135D0CB01120135E5CB01128A
:100E0300013555CC0112013596CC01120135BACD0D
:100E1300011201353BCE011201359F8903120135C1
:100E2300EA8903120135F68903120135CA8A0312CE
:100E33000135E18A031201351E8B031201354F8BF5
:100E430003120135878B03120135DD8B0312013544
:100E5300F38B031201352F8C03120135428C0312DD
:100E63000135698C031201359D8C03120135C38D45
:100E7300031201350D8F0312013509900312013559
:100E83001F9103120135F37F001201357FC0021257
:100E93000135AEC00212013500C40212013557C537
:100EA3000212013516C6021201357DC9021201353F
:100EB30069CA02120135BBCA02120135D5CA021230
:100EC300013507CB0212013512CB021201351BCBC0
:100ED30002120135CDCB021201359DCC0212013530
:100EE300E4CC021201354ACD02120135BCCD021207
:100EF300013505E10112013545E4011201354BE4E9
:100F0300011201350AEB011201352FEF01120135F0
:100F13008987041201351F880412013535880412AC
:100F230001358E8804120135D288041201350C89EB
:100F330004120135A48904120135138A0412013500
:100F43001C8A04120135288A04120135428A0412CC
:100F530001356C8A04120135818A04120135E38A52
:100F6300041201350A8B0412013569EA03120135B3
:100F730076EA0312013590EA03120135C3EA03123C
:100F8300013501EB0312013566EB031201357BEBEF
:100F93000312013586EB0312013593EB031201357E
:100FA300AAEB03120135B8EB03120135C3EB0312AD
:100FB3000135CFEB03120135DEEB03120135E9EB0B
:100FC300031201350CEC03120135B0EC03120135A9
:100FD300C0EC03120135DAEC03120135F7EC03120E
:100FE300013512ED0312013537ED0312013542EDE0
:100FF3000312013557ED031201356BED0312013571
:10100300CCED03120135D2ED03120135D8ED0312F5
:101013000135DEED03120135F6ED0312013529EE3C
:101023000312013510CF02120135A7CF0212013589
:101033003FD0021201352FD10212013566D10212BF
:10104300013579D102120135E7D10212013582D37C
:1010530002120135A9D3021201354BD40212013514
:1010630080D40212013591D4021201350AD502123D
:1010730001352BD50212013543D5021201359BD61A
:1010830002120135A4D802120135F4DA0212013535
:10109300F7DB0212013546DC02120135F2B102120E
:1010A3000135EFB202120135DAB302120135E4B3AE
:1010B3000212013506B40212013512B402120135CF
:1010C30064B50212013593B502120135C3B602129B
:1010D300013505B70212013531B80212013507B9DE
:1010E3000212013559B902120135B8B9021201359C
:1010F300EFB9021201352ABA02120135C5BD021237
:101103000135DEBD0212013560BE021201356EBE2D
:1011130002120135C3BE02120135D1BE02120135DE
:101123003EBF02120135B0BF02120135F6BF0212F3
:10113300013585F201120135A7F20112013591F44F
:101143000112013536F80112013579F90112013521
:1011530053FA01120135889B04120135AD9B041229
:1011630001351E9C0412013538A50312013541A532
:10117300031201354AA5031201357BA6031201357B
:101183009AA803120135D0A8031201350AA9031244
:10119300013540A9031201357AA903120135AEA91D
:1011A30003120135DAA90312013523AA031201350B
:1011B3005DAA03120135A5AA03120135FBAA031286
:1011C300013530AB031201358BAB03120135C5ABCF
:1011D3000312013516AC031201354CAC0312013571
:1011E30086AC03120135B4AC03120135D7AC03123C
:1011F300013574A804120135A0A804120135FBA817
:101203000412013505A90412013515A9041201358B
:10121300B1F203120135E8F20312013505F30312AB
:101223000135E9F3031201356AF40312013541F57F
:1012330003120135B5C703120135DCC703120135AB
:101243003AC803120135B5A9041201350656001236
:101253000135165900120135AB5A00120135265BD0
:1012630000120135D25B00120135755C00120135A5
:101273000D5D001201353C5D00120135D461001291
:101283000135666200120135A263001201350C6458
:1012930000120135C0640012013576670012013572
:1012A300B067001201351A68001201357768001221
:1012B3000135D468001201353169001201351C6A09
:1012C30000120135626A00120135AD6A0012013560
:1012D300D06A00120135176C001201352B6C001215
:1012E30001359A6D00120135D96D00120135196E61
:1012F300001201356C6E001201358D6E001201353E
:10130300CB6E001201350971001201354A710012CA
:101313000135E571001201355772001201359873DA
:101323000012013514C203120135BAC2031201358A
:10133300FFC30312013588C40312013575C50312B7
:101343000135B4C5031201351EC6031201358CC61F
:1013530003120135D6FF03120135D0A30412013560
:10136300E0A304120135EEA304120135D1A4041243
:101373000135388B04120135E08B04120135228EBE
:1013830004120135DCA50412013516A60412013539
:101393002AA60412013560A60412013572A60412AE
:1013A3000135A7A6041201353E9D041201358D9D1A
:1013B30004120135BF9D04120135519E04120135FB
:1013C300CD9E04120135F9FF01120135FCFF011214
:1013D300013557AB0412013569AB041201356CAB0F
:1013E30004120135DF9E041201350D9F04120135ED
:1013F300329F04120135F99F04120135A8A104128A
:101403000135F7A1041201353CA204120135F87F1E
:1014130000120135D59004120135B392041201353F
:101423001F93041201356A93041201353C9303128E
:1014330001356793031201356795031201356797E9
:1014430003120135169803120135C89B03120135A7
:10145300339C0312013556CD03120135A0CD03127F
:101463000135F0CD0312013596CE0312013544CF79
:101473000312013563CF0312013582CF0312013505
:10148300B0CF03120135E3CF031201355AD0031253
:101493000135DAD00312013574D10312013529D293
:1014A300031201355AD2031201358AD203120135D0
:1014B300B8D203120135E2DC031201354FDD03120A
:1014C300013532DE03120135DFDF0312013509E195
:1014D3000312013526E103120135D0E6021201356C
:1014E300F4E6021201351CE70212013544E7021249
:1014F30001356CE70212013590E702120135B4E7BA
:1015030002120135D8E702120135FCE70212013558
:101513002EE80212013552E8021201357CE802126C
:10152300013518E9021201353EE90212013564E979
:101533000212013589E902120135AEE902120135C1
:10154300D3E902120135F9E90212013521EA021247
:1015530001355FEA021201358BEA02120135B7EA5F
:1015630002120135DDEA0212013516EB02120135D2
:101573003EEB0212013577EB021201359FEB0212AB
:101583000135D8EB0212013500EC0212013526ECCD
:10159300021201354BEC021201358AEC02120135BD
:1015A300AEEC02120135D8EC02120135A7ED02129E
:1015B30001353FEF021201358FEF02120135A3F01F
:1015C30002120135C2F002120135E6F002120135B2
:1015D300D797041201350898041201353298041282
:1015E3000135F3980412013551990412013565ADA3
:1015F300031201357AAD03120135D6AD031201355D
:1016030041AE0312013589AE03120135FBAE03125D
:10161300013524AF0312013532AF0312013594AF04
:1016230003120135D2AF03120135EDAF03120135B9
:1016330088B00312013531B103120135B4B103127D
:101643000135EDB10312013578B203120135CFB282
:10165300031201352DB3031201353FB303120135D4
:1016630065B3031201356EB303120135C9B4031216
:10167300013595FD01120135FCFD01120135B9FE5D
:101683000112013537FF01120135008004120135C3
:10169300338004120135658104120135A9810412D6
:1016A30001358582041201356EA0041201354CA167
:1016B300041201353D8E04120135828E0412013568
:1016C300C88E04120135919004120135CBA6041281
:1016D3000135E6A604120135F6A6041201355BA70F
:1016E30004120135507F001201350AF1021201354F
:1016F300E6F1021201352DF2021201356AF20212ED
:101703000135D8F20212013532F302120135A2F388
:101713000212013572F40212013561F5021201352C
:10172300D8F50212013574F70212013501F80212DD
:10173300013574F802120135F0F80212013507F988
:10174300021201352CFA0212013586FA0212013512
:10175300EBBB031201350BBC0312013511BD0312A0
:1017630001355DBD031201357DBD03120135D0BDC9
:10177300031201353DBE0312013583BE0312013549
:10178300E7BE0312013593C1031201353CA60112D2
:10179300013569AB011201356CAE0112013595AE0D
:1017A30001120135ACAE01120135D5AE011201357E
:1017B30087AF0112013570B101120135BBB20112BD
:1017C3000135D4B2011201350BB80112013544B809
:1017D3000112013588B80112013599B90112013599
:1017E300908A01120135E59001120135AA91011287
:1017F3000135D493011201355F9B011201358A9B98
:10180300011201357E9C01120135C09C0112013584
:10181300899E01120135FB9E01120135C89F0112F9
:10182300013556A0011201356AA00112013505A444
:101833000112013595FE0312013507FF031201352D
:10184300D7A40412013583A5041201352A9102128B
:1018530001353D96021201358FFF01120135AEAA03
:10186300041201352BAB041201351FA904120135F3
:1018730049A904120135F4AA04120135DBFF01E082
:1018830066701008A3E066700A08A3E06670040897
:10189300A3E06622C008C3E096F50808A3E09642D9
:1018A3000808A3E096420808A3E0964208A2D2657E
:1018B300D033E5087001D3D00822C3E7960809E7BF
:1018C300960809E7960809E79622C3E09608A3E07D
:1018D3009608A3E09608A3E09622C008C3E096F515
:1018E3000808A3E096420808A3E096420808A3E08C
:1018F3009645087001D3D00822080808E630E7119E
:101903001221B6121914080808C64480C6181818FC
:1019130022181818E9799EC608CAC608CBC608CC8F
:10192300C6C370207996CACBCC7019798ECBCC7094
:10193300137986CC700EF9802ACA33CACB33CBCC49
:1019430033CC331930E7F2CCCBCA3350147004EAEA
:1019530030E00DE4CA3ACACB3BCBCC3CCC500209B5
:10196300C3E913C6CC182313C6CB18C6CA18C6F9C5
:10197300221219B420F01430E72B74FFFCFBFA7425
:101983007F8022E4FCFBFA7480801AB48008BC00D8
:10199300F2BB00EF800F50EBF9E4C39AFAE49BFB30
:1019A300E49CFCE499C6CC18C6CB18C6CA18C6F981
:1019B30022E4C9C608CAC608CBC6D3330308CCC6BB
:1019C3003392F0C3947F402E94184019C9B9070489
:1019D300CACBCC225025C309CA33CACB33CBCC33B1
:1019E300CC33D9F422F4600DC9CCC313CB13CBCAC7
:1019F30013CAD9F6CC22E4FCFBFA2214FCFBFA222C
:101A0300E62618461846184622E7271947194719A4
:101A13004722181818E60846087009E626087005D4
:101A2300E633F4220822191919E70947097009E76F
:101A330027097005E733F4220922E6084608C31391
:101A43004608336002E633F422E7094709C3134724
:101A530009336002E733F422121A3D6025121A4C4F
:101A63006020121A037003021A0C080808E7667054
:101A7300101819E766700A1819E76670041819E751
:101A83006622F422121A3D601C121A4C6017121AB5
:101A9300037007121A0C7001D322C0D0121A0C70F3
:101AA30006D0D0B322C32233D0D0501430E0F6C3D3
:101AB300E7960809E7960809E7960809E796B32227
:101AC30020E0D5E6970809E6970809E6970809E6AE
:101AD30097B322121A3D601B121A4C6016121A0396
:101AE3007007121A0C600CB322C0D0121A0C7005C6
:101AF300D0D022C32233D0D0501330E0EBC3E796CB
:101B03000809E7960809E7960809E7962220E0E422
:101B1300E6970809E6970809E6970809E697220079
:101B2300121A3D604F121A4C6012E7548066F61287
:101B33001A157011121A0C703B090909F4F618F6FC
:101B430018F618F622121A297015121A0308080833
:101B530060EAE6447FF618768018E4F618F6221257
:101B63001A036016121A0C7012E4F608F608F60847
:101B7300E65480F609090918181822EAC0E0EBC0F8
:101B8300E0ECC0E0EDC0E0E687F0A4FBACF008E6D3
:101B930087F0A42CFCE435F0FA1809E687F0A42CAE
:101BA3004B60027401CA35F0FCE433FB09E687F0AD
:101BB300D2F7A42CCB35F0FC1908E687F0A42BCC84
:101BC30035F0FBE433FD0819E687F0D2E7A42C4A8D
:101BD300CB35F0CD3400FC09E687F0D2E7A42DCC59
:101BE30035F0FDE433FA0918E687F0D2F7A42CCDDB
:101BF30035F0CA3400FC08E687F0D2E7D2F7A42A0E
:101C0300CC35F07A7E20E70B0ACB33CBCD33CDCC6A
:101C130033CC33CB3350147004ED30E00ED2F1E407
:101C2300CD3DCDCC3CCC3B5005DA05C2F1EB547F26
:101C3300C63308E63392F0FBE73309E733C39A5020
:101C43002D2B70190C0D4C4D70151806E608C33377
:101C5300700D20F10AA2F013F6E418800B4024E47F
:101C6300F630F002768018F618F618F68024D33B87
:101C730014501074FFA2F013F6187680E418F618C7
:101C8300F6800FA2F013F618E63303F618ECF618F5
:101C9300EDF6D0E0FDD0E0FCD0E0FBD0E0FA22127C
:101CA3001A4C6046121A3D603DE9687008F618F652
:101CB30018F618F622748067F7121CD609090974FE
:101CC3008067F722121A3D601D121A4C700519190C
:101CD30019801A121A15701F121A29C37003E667A6
:101CE3003319191940071818182208080874FFF641
:101CF30018F618F618F622121A296017121A0C7021
:101D03002192F0121A037019501720F014080808D2
:101D1300090909E7F61819E7F61819E7F61819E794
:101D2300F622121A0360E6E869701F0808E62480A9
:101D3300F608E436F618547FB47F0CE65480600747
:101D4300F6E418F618F622181822E9C6CC08C6CD10
:101D530008C6CE08C6CFC0E0E8C0E0EAC0E0EBC0EA
:101D6300E009E9F809E7FA09E7FBE6F918E6F8C339
:101D7300EC98ED99EE9AEBC2E7F5F0EFC2E795F038
:101D8300500E600CEBCFFBEACEFAE9CDF9E8CCF8C4
:101D9300EAA2E7D2E7FAEB33FB13F5F0EEA2E7D2C0
:101DA300E7FEEF33FFC5F013A2E730E601B313C537
:101DB300F0C3C0E0C0F07F00C39BFB605E9418607B
:101DC3000F401D14601AD0E023F9D0E0F8021EA8DA
:101DD3008AF0E9486003D2F0E4AFF0FAF9F8803B07
:101DE300EB30E40D89F0EA6003D2F0E4AFF0F9CA16
:101DF300F8EB30E30D88F0EF6002D2F0AFF0E4CA05
:101E0300C9F8EB54076014FBC3EA13FAE913F9E8C2
:101E130013F8EF135002D2E0FFDBEDD0E0C0E03067
:101E2300E739C3E49FFFF5F0EC98FC42F0ED99FD30
:101E330042F0EE9AFE42F0D0E0F9D0E0F8E5F0602F
:101E43007AE923F9EE20E742D8028067C3EF33FF34
:101E5300EC33FCED33FDEE33FE80EAEC28FCED3988
:101E6300FDEE3AFED0E023F9D0E0F84002801BC338
:101E7300EE13FEED13FDEC13FCEF135002D2E0FF63
:101E830008B800067F7F74FF802EEF3350178CF065
:101E930020F00260100CBC000C0DBD00080EBE004B
:101EA3000408E860DFE933E813FFEE2313FE4F4D28
:101EB3004C8008E95480FFE4FEFDFCEE33EF33F47D
:101EC3007004FCFD7E80D0E0FBD0E0FAD0E0F8D0D7
:101ED300E0CFC618CEC618CDC618CCC6F922121A42
:101EE3003D700418181822121A4C700D74FFF6185E
:101EF30019F61819F61819F622E7548066F6121A1D
:101F030003700F121A0C70F014F608F608F608F6B0
:101F130080D1121A0C700CF608F608768008E64495
:101F23007F80EC121A2C700C121A1860BFE65480D2
:101F3300F6E480BB121A18700519191980A5E8690F
:101F4300700C763F18768018F618F6E8F922E6CD7D
:101F5300C0E018ECC0E0E633CD33CDD313F6E71978
:101F6300FCE7191933CC33C3947F400ECD9D502425
:101F730008E65480F6E418F6800FF4043D14501478
:101F830008E6447FF6187680E418F618F6D0E0FCED
:101F9300D0E0FD22CCD313CCFD18E4C6CBC0E018AF
:101FA300E4C6CAC0E00808ED08C633E613F618E431
:101FB30033C675F003C3CA97CA09CB97CB199C40A4
:101FC300047D08802EBD000302208A16B6FF050695
:101FD30006081618C3CA33CACB33CB33CA27CA0978
:101FE300CB37CB193CC37D08803E187D0820E75CC6
:101FF300C633C6CA33CACB33CB33DDF1D5F0EB30AE
:10200300E77BCA97CA09CB974ACB199C406F4B70A1
:1020130025E620E0218066187D08C3CA97CA09CB4C
:1020230097CB199CD3C633C6CA33CACB33CB3350F1
:10203300C9DDE7D5F0E1D3E4C636C608C636C6081F
:10204300C636C608C636C61818188031C3CA97CA1A
:1020530009CB97CB199CB34097C633C6CA33CACBB7
:1020630033CB33DD34D5F02EC6A2E0C640C8CA2731
:10207300CA09CB37194A70BECB3CB480B90808E60D
:102083003308E633601F181818D0E0FAD0E0FBD00D
:10209300E0FCD0E0FD22187D08CA27CA09CB37CB64
:1020A300193CD3808013F618E4B67F11F618B6FFF7
:1020B3000EF618C60470D20808768080CAF618F6A1
:1020C30018F680C5080808EAC0E0EBC0E086F0E730
:1020D300A4FA180986F0E7A42AFA180986F0E7A4F7
:1020E3002AFA180986F0E7A42AFA1986F0E7A4FB6E
:1020F300E5F02AFA190886F0E7A42BFBE5F03AFA93
:10210300190886F0E7A42BFBE5F03AFA18180986BC
:10211300F0E7A4C5F02BFBE43AFA1908E7C5F0C6CB
:10212300A426F6E5F03BFBE43AFA1886F0E7A4F6BA
:10213300E5F00826F6E43B08F6E43A08F6D0E0FBBF
:10214300D0E0FA22E4CFC0E0E4CEC0E0E4CDC0E0CA
:10215300E4CCC0E075F020E626F608E633F608E6A0
:1021630033F608E633F6181818EC33FCED33FDEEBE
:1021730033FEEF33FFC3EC9709ED9709EE9709EFB1
:1021830097191919400FFFEC97FC09ED97FD09EE1C
:1021930097FE191906D5F0BFECF709EDF709EEF72D
:1021A30009EFF7191919D0E0FCD0E0FDD0E0FED01B
:1021B300E0FF22181818E4C396F608E496F608E43C
:1021C30096F608E496F6226016080808C6C313C6F6
:1021D30018C613C618C613C618C613C6D5E0EA2216
:1021E3007009080808226016181818C6C333C608F1
:1021F300C633C608C633C608C633C6D5E0EA22E6E8
:1022030027F60809E637F60809E637F60809E63738
:10221300F622E026F608A3E036F608A3E036F60831
:10222300A3E036F622E026F008A3E036F008A3E0A8
:1022330036F008A3E036F022C3E697F60809E697DE
:10224300F60809E697F60809E697F622C3E096F042
:1022530008A3E096F008A3E096F008A3E096F02226
:10226300E056F608A3E056F608A3E056F608A3E006
:1022730056F622E056F008A3E056F008A3E056F025
:1022830008A3E056F022E647F60809E647F60809F0
:10229300E647F60809E647F622E0F608A3E0F60863
:1022A300A3E0F608A3E0F622E6F008A3E6F008A30D
:1022B300E6F008A3E6F022E0FAA3E0FBA3E0FCA328
:1022C300E0FD22EAF0A3EBF0A3ECF0A3EDF022E0B3
:1022D300F8A3E0F9A3E0FAA3E0FB22E8F0A3E9F016
:1022E300A3EAF0A3EBF022CAC0E0E6F0A308DAFA0F
:1022F300D0E0FA22CAC0E0E0A3C582CCC582C58380
:10230300CDC583F0A3C582CCC582C583CDC583DA91
:10231300E6D0E0CA22C3E498F8E499F9122359807D
:1023230026C3E49AFAE49BFBE920E7E9122359E484
:1023330098F8E499F922C3E498F8E499F912235937
:10234300E498F8E499F9C3E49AFAE49BFB22EB20BE
:10235300E7CFE920E7E0B90010BB0008E88AF08482
:10236300F8AAF022E4FBC8FA22EB70227B10C833F0
:10237300C8C933C9335007C39AC3DBF280069A50E6
:10238300012ADBEAC833F4C8C933F4C9FA2275F069
:1023930008E4C833C8C933C933C99AC99B5004C9AF
:1023A3002AC93BD5F0ECFBC833F4C8E4C9FA226070
:1023B3000D08C6A2E713C618C613C6D5E0F32260FC
:1023C3000C08C6C313C618C613C6D5E0F42270049E
:1023D30022600D18C6C333C608C633C6D5E0F41849
:1023E30022251810AF08F518400C15198008F518A8
:1023F30040021519D2AF2200C0D0251810AF08F53E
:1024030018500C05198008F51850020519D2AFD0E1
:10241300D0222518F58210AF08F518400C15198045
:1024230008F51840021519D2AF851983222518F52E
:1024330082E43519F583222518F8E43519F92225A4
:1024430018FAE43519FB222518FCE43519FD22E4BA
:10245300732518C582C0E0E51934FFC583C0E0E5E4
:1024630018C3958224F810AF0885831985821880D4
:1024730008858319858218D2AFCEF0A3E520F0A397
:102483007808E608F0A3DEFAEFF0A3E58124FAF872
:10249300E608F0A3E608F0A3E608F0A30808E608B8
:1024A300F0A3E608F0A315811581D0E0FED0E0F893
:1024B300158115811581E8C0E0EEC0E0222518C51D
:1024C30082C0E0E51934FFC583C0E0E518C39582F7
:1024D30024F910AF0885831985821880088583192C
:1024E300858218D2AFCEF0A3E520F0A37808E608E2
:1024F300F0A3DEFAEFF0A3E58124FBF8E608F0A3EE
:10250300E608F0A30808E608F0A3E608F0A315819F
:102513001581D0E0FED0E0F815811581E8C0E0EE2A
:10252300C0E022851983851882E0A3FEE0A3F5208D
:102533007808E0A3F608DFFAE0A3FFE0A3C0E0E039
:10254300A3C0E0E0A3C0E0E0A3C0E0E0A3C0E010CC
:10255300AF088582188583198008858218858319B9
:10256300D2AFD083D082020132851983851882E0ED
:10257300A3FEE0A3F5207808E0A3F608DFFAE0A3C2
:10258300FFE0A3C0E0E0A3C0E0E0A3C0E0E0A3C09D
:10259300E010AF0885821885831980088582188525
:1025A3008319D2AFD083D08222C0D02518C582C070
:1025B300E0E51934FFC583C0E0E518C3958224F331
:1025C30010AF088583198582188008858319858251
:1025D30018D2AFC8F0A3E9F0A3EAF0A3EBF0A37914
:1025E30008E709F0A3D8FAECF0A3EDF0A3EEF0A30B
:1025F300EFF0A3D0E0F0A3D0E0F0A3D0E0F0A3E5A8
:1026030020F0A3E5F0F0A322851983851882E0C0AA
:10261300E0A3E0F9A3E0FAA3E0FBA37808E0F6085F
:10262300A3DFFAE0FCA3E0FDA3E0FEA3E0FFA3E049
:10263300C0E0A3E0C0E0A3E0F5D0A3E0F520A3E071
:10264300A3F5F010AF088583198582188008858368
:1026530019858218D2AFD082D083D0E0F8D0E0328F
:1026630074048006740280027401C0E0F40412242E
:1026730015D0E01222EA227404800474028000CC94
:10268300C0E0EDC0E0E518C39CCCAD1950011D10AE
:10269300AF068C188D1980068C188D19D2AF1222B3
:1026A300F7D0E0FDD0E0FC22D083D082E9C0E0E4A3
:1026B30093A3C386F0C5F095F0F908E493A386F0DD
:1026C300C5F095F0700BE493A3C3994005E904802A
:1026D30002A3E475F002A42582F582E5F03583F5C3
:1026E30083D0E0F9E493A3C0E0E493C0E022D08375
:1026F300D082ECC0E0EDC0E0E493A3FCE493A3FD3F
:10270300ED4C600D12273DEC24FFFCED34FFFD8002
:10271300EFE493A3FCE493A3FDED4C600D12277C3F
:10272300EC24FFFCED34FFFD80EFD0E0FDD0E0FCB6
:10273300E493A3C0E0E493C0E022C0E0C3E4939633
:10274300087401939618400FE493667008087401A7
:1027530093661870007019A3A3C3E49396087401D9
:10276300939618A3A3400DD0E0D0E0D0E002272D2C
:10277300A3A3A3A3A3A3D0E022C0E0C0F088F0E406
:10278300936670080874019366187000A8F0A3A3F9
:10279300700BD0F0D0E0D0E0D0E002272DA3A3D07F
:0427A300F0D0E02270
:1027A80074F61224C0EAFEEBFF8C088D09EE24347F
:1027B800F8E43FF9E8FCE9FDEE2435122AE2FAEEE6
:1027C8002437122AE2F88508F0A4C885F00A85099A
:1027D800F0A4250AF9EA28F8E439F97A257B0012E9
:1027E8002359EA8C828D83F0FA131313541FF8EEE1
:1027F80028F8E43FF9E8245DF582E439F583E0C080
:10280800E074075AF8D0E0B800028004C313D8FC7B
:10281800A2E0EE50082434F582E43F8018243612F2
:102828002AE2F5F0EA84A8F0EE28F8E43FF9E82473
:1028380038F582E439F583E0F97F0302256C74F7F3
:102848001224C0EAFEEBFFEE2434122AE2C0E0EEC6
:102858002435F582E43FF583D0E0F08E828F83A3A0
:10286800A3A3A3A3A3A3C082C0838E828F83A3A3A1
:10287800A3A3A312294BD083D082E0C398F508A361
:10288800E099F509EE247F122AE26401705DEE24D6
:10289800801229458E828F83A3A3A3A3A3A3A31287
:1028A8002C858E828F83A3A3A3A3A3E0FAA3E0FBC6
:1028B800C3EA9CEB9D5010C3EC98ED99402DC3EAF8
:1028C80098EB995026800EC3EA98EB994007C3EC21
:1028D80098ED9940167CB07D04EEFAEFFB120DC618
:1028E800EE247FF582E43FF583E4F0AC08AD09EE11
:1028F800FAEFFB1227A8E9F912352A7F0202256CA4
:10290800C082C08385188285198312294BC3EA9C2B
:10291800EB9D5010C3EC98ED99401BC3EA98EB99D6
:102928005014800EC3EA98EB994007C3EC98ED99D0
:102938004004790180027900D083D08222F582E4B4
:102948003FF583E0F8A3E0F922EAC39CFAEB9DFB8C
:102958002274EF1224C0900376E064086005E064F6
:1029680007702A9061C8E060249003A4E0F4601D19
:10297800E0F875F00AA4C8AAF02AF974A628FE742B
:102988000339FF8E828F83A3A3A3E07003022A6713
:10299800906060E0C0E0EE2468F582E43FF583D003
:1029A800E0F0750C20750D05750800750900E5D96E
:1029B80014F50AE5D95403F50E60127403650E6028
:1029C80043E50A600AEE2467122AE27002807590D5
:1029D800051BE06401601F122ADF60047A0480028C
:1029E8007A00E50AC39AFA95E0FB120C768A088BFE
:1029F80009EA450970051210068064122ADF70047E
:102A08008A0C8B0DE50A6012850C82850D83F50B07
:102A1800E5D9F0A3150BE50B70F6122ADF604474B4
:102A2800FC250AF50A780C122667AC0AA90EEEFAFC
:102A3800EFFB120E8074021223FAE97026AA08AB83
:102A480009121678793D8E828F83A3A3A3A3E0FA97
:102A58007B00120AD8EEFAEFFB120DEA120E9279F9
:102A680000806F7403650E6051850A107511007837
:102A780010122667AC0CAD0DAA08AB09120E4474EF
:102A8800021223FAEE2468122AE264807004747F2A
:102A98008001E0F50C780C12266BE50EF50C780C2D
:102AA80012266BA90AAC08AD099003A4E0FA7B00D2
:102AB800120AAE74021223FA8013900376E06408B7
:102AC800600BAC0CAD0DEEFAEFFB120F04121012F6
:102AD80079017F0A02256CEE2482F582E43FF583B2
:102AE800E02274F21224C074FC1223E4EAFEEBFF25
:102AF8008909A2AFE433F508C2AF022BA6E0601B38
:102B0800780C122667AC0BA90EEEFAEFFB120E7AC0
:102B180074021223FA7404250BF50B7401250BF5C6
:102B2800D9850ED9E50B6018F50A850C82850D83C9
:102B3800E0F5D9A385820C85830D150AE50A70EAAC
:102B480075E195EE2463F8E43FF97A007B00A2AFC3
:102B5800E433F50BC2AF122C81EC4D6032888289C8
:102B680083E0FAA3E0FB8A828B83122C8588828912
:102B780083ECF0A3EDF08A828B83E4F0A3F0122CAF
:102B880081EC4D700A88828983A3A3E4F0A3F0E561
:102B98000BA2E092AF1216789004B7E004F0EE248E
:102BA80063122945E8496064EE2463122AE224028C
:102BB800F8A3E03400F988828983E5822402F50CC1
:102BC800E43583F50DE0F50BA3E0F50EEE24621273
:102BD8002AE2640170369061D0E0F8122ADF6004BE
:102BE8007C0480027C007480C398FA95E0FBE50BB6
:102BF8002CF8E43400F9E82402F8500109C3EA98F3
:102C0800EB99A2D265D0334003022B059004B7E0BC
:102C1800604D9004B8E0F89004B7E0C398500C7485
:102C2800026509703A9004B9E060348E828F83A3FC
:102C3800A3A3A3E0851882851983122C7774021246
:102C48002430E8122C779004B6E028F0740212249D
:102C58004AAA18AB197901120B029004B7E4F0E5FF
:102C680008A2E092AF74041223FA7F0702256CF0E1
:102C7800A3E4F09004B7E0F82288828983E0FCA3FB
:102C8800E0FD22008521878522C622C0E074EB1270
:102C980025ACA2AFE433F508C2AF759B0090618202
:102CA800E0A2E05030E591A2E0502A7591FE74014F
:102CB80065217021122E26120F52122E1412267A16
:102CC8001232D474041223FAE964017005790112EE
:102CD8000F9A122959906182E0A2E5505DE591A210
:102CE800E550577591DF900376E064076005E0646E
:102CF80008702F122E2674016521703E120F521291
:102D08002E1412267A1232D474041223FAE96401BA
:102D180070057901120F9A7901EEFAEFFB122AEA8F
:102D28008018E0640D7013900398E004F064287034
:102D380002E4F07A00E0F9121018906182E0A2E64D
:102D48004003022DE9E591A2E64003022DE97591C1
:102D5800BF900376E064057008120F3A120F4680A0
:102D680003120F40752100120FA6E9900377F0793E
:102D780000120F9A120D367A017B00900375E0F964
:102D8800121648907803E06442705690051FE014CC
:102D9800F0704EC2AF122DA000782AD0E0F618D0FD
:102DA800E0F6E59F5407F87005750DFF8003750D73
:102DB8007FC4C0E07829E6F50A08E6550DF50B74DE
:102DC8000B780A1223C2D0E0250AF8906270E0A2BC
:102DD800E740F8E8C333906272F0906270E0D2E0A6
:102DE800F0906181E0A2E35009E5E9A2E3500375A0
:102DF800E9F7A3E0A2E75009E591A2E7500375912E
:102E08007FE508A2E092AF7F0802260B8E828F83AF
:102E1800E0F8A3E0C82416F582E438F5832290038D
:102E2800A4E0F875F00AA4C8AAF02AF974A628FE46
:102E3800740339FF22C0E0C0D0C082C08390618390
:102E4800E0A2E05009E5BFA2E0500375BFFEE0A292
:102E5800E15009E5BFA2E1500375BFFDE0A2E250D1
:102E680009E5BFA2E2500375BFFBE0A2E35009E504
:102E7800BFA2E3500375BFF7E0A2E45009E5BFA283
:102E8800E4500375BFEFE0A2E55009E5BFA2E550A5
:102E98000375BFDFE0A2E65009E5BFA2E65003755F
:102EA800BFBFD083D082D0D0D0E032C0E074F2125D
:102EB80025ACE5A7A2E6500FE5A1A2E6500953A765
:102EC800BF75A1BF122F07E5A7A2E5500CE5A1A287
:102ED800E5500653A7DF75A1DFE5A7A2E15009E594
:102EE800A1A2E1500375A1FDE5A7A2E2500CE5A15E
:102EF800A2E2500653A7FB75A1FB7F0102260B74C3
:102F0800F71224C0752101900376E064067015124B
:102F18000EB68A828B83A3A3A3A3A3A3E0FAA3E09C
:102F2800FB120F28A2AFE433FED2AF90037CE0641B
:102F38000170187A207B00900375E0F91217747AF3
:102F4800207B00900375E0F912164E906182E0D262
:102F5800E6F090051CE0602185C622801690037B70
:102F6800E064017008E5C654F84405F5C653BEFC94
:102F7800122C8C7401652160E4EEA2E092AF7F020E
:102F880002256C008E238F24858228858327851847
:102F980082851983E0CEA3E0CF852882852783EB3D
:102FA800C9EAC8EDCBECCA75F010C3E833C8E933F9
:102FB800C9EA33CAEB33CBC3EA9EF526EB9FF52566
:102FC800B35004AB25AA26EC33CCED33CDD5F0DADB
:102FD800AE23AF242274E91224C074FA1223E4EA5F
:102FE800FEEBFF8C0A8D0B120F5EEAF8EBF9ECFA98
:102FF800EDFB8E828F831222DE900376E024F7C3E6
:1030080094055006751401023144120EB68A088BD5
:1030180009EA45097003023141EEFCEFFDAA18AB3D
:1030280019120F58850882850983A3A3780C1222E8
:103038009C90896E780C1222638518828519837892
:103048001012229C90896E7810122263780C7910E5
:103058001218BD501F780C791012223B9089CA783B
:103068000C1218DD4047850C14850D15850E168544
:103078000F1780459089CA85101485111585121679
:103088008513177814790C12223B78141218DD5026
:103098001C751400751500751600751701781479DC
:1030A8001012223B7814790C122202800C7514013C
:1030B800751500751600751700740978141221E348
:1030C8009089C6780C12229C7814790C12214785B5
:1030D8000882850983A3A3A3A3A3A31231621223A1
:1030E80059880C890DE4F50EF50F7814790C122225
:1030F800027404122430123162122359E8FA8A0C3D
:10310800E4F50D7814790C1218BD50077814790C71
:1031180012223B900376E06408600AE064066005CA
:10312800E0640570209089BE78141218DD5016905E
:1031380089BA7814122215800C751400751500755B
:103148001600751700850A82850B8378141222AB46
:1031580074061223FA7F1002256CE0F8A3E0F97ACE
:10316800D07B032274F71224C0120F7090051AE066
:1031780064017010906245E4F0A3F053F4F343FE49
:103188000C5390F3120F16E5C654B84441F5C6E542
:103198009E5447644170F8906185740FF09005184B
:1031A800E0F47002A3E0604E900519E06008146036
:1031B8001B14602E8040750801750900900518E001
:1031C80078081223D1E508F45280802A7508017521
:1031D8000900900518E078081223D1E508F4529008
:1031E8008014750801750900900518E07808122305
:1031F800D1E508F452A079007F0202256C74F71219
:1032080024C0E9FEEAFF120F7074016E700C7A8018
:103218007B00900375E0F91216489035E8E493F4C2
:103228006008E493F9120D2A800953C6B8E59E5444
:103238004770FA120F1C90051AE064017003120D12
:1032480048900518E0F47002A3E0604B900519E07F
:10325800600814601A14602C803D75080175090017
:10326800900518E078081223D1E508428080287577
:103278000801750900900518E078081223D1E508BF
:1032880042908013750801750900900518E07808C8
:103298001223D1E50842A0120EB68A088B09A808A5
:1032A800A909E8496014E5E170FCE82414F582E412
:1032B80039F583E0F46003E0F5E174016F700A7A90
:1032C80001900375E0F91216D802320074F1122445
:1032D800C08A088B098C0A8D0B90896E7808122297
:1032E80063740F122430780C12229C90896E780C2B
:1032F8001222637808790C1218BD9089CA50107888
:1033080008790C12223B78081218DD4014800E78D8
:103318000C790812223B780C1218DD5004790180D0
:103328000279007F0802256C74ED1224C08A088B8C
:10333800098C0A8D0B90896E780812226374131217
:103348002430780C12229C90896E780C12226378B3
:103358000C79081218BD40117808790C12223BAA82
:1033680008AB09AC0AAD0B80227510007511007509
:1033780012007513017810790C12223B7810790825
:10338800122202AA10AB11AC12AD137F0C02256CED
:1033980090896E780812229C8A828B837808122280
:1033A800767F0402256C74F51224C08C828D837894
:1033B8000812229C8A828B83780812224F123406C4
:1033C800C3E09CF0A3E09D1233F84022908A36783F
:1033D8000812229C8A828B8378081222288A828B80
:1033E80083A3A3A3A3E02420F0A3E0344EF080A09D
:1033F800F088828983C3E09420A3E0944E22EA24D3
:1034080004F8E43BF98C828D83A3A3A3A3E0FCA377
:10341800E0FD888289832274F51224C0E9FE9004B5
:10342800D2E0FAA3E0FBEE29F8E433F974AD28F50D
:1034380082748839F583E02AF508A3E03BF509781A
:10344800081226679089D21222BA122F8C7402129F
:1034580023FA8A088B098C0A8D0B741078081221BC
:10346800CAAA08AB097F0402256C74F11224C08A29
:103478000C8B0D8C0E8D0F741112243012267E7455
:1034880011122430E02401F508A3E03400F509E422
:10349800F50AF50B780C79081220C79089AA7808E4
:1034A80012229C780C79081220C7AA0CAB0DAC0E1E
:1034B800AD0F122F8C74021223FA8B09EA450960AA
:1034C800047A0180027A00EC2AFCE43DFD741312B0
:1034D8002430E0F8A3E0F9E8FEE9FFECF8EDF97A2A
:1034E800717B0212235988088909E4F50AF50B8EC5
:1034F800828F8378081222ABECF8EDF97A717B029F
:103508001223598A088B09740578081223D18E82F0
:103518008F83A3A3A3A3E508F0A3E509F07F08021E
:10352800256CC082C083E9906000F0D083D08222ED
:10353800C0E074F21225ACA2AFE433FED2AFE58945
:10354800A2E050031213CC758900C2C5EEF8EEA2B2
:10355800E092AF7F0102260BC0E074F21225ACA204
:10356800AFE433FED2AFE58AA2E64006E58AA2E7D9
:1035780050031213CC758A00758A00C2EBEEF8EE80
:10358800A2E092AF7F0102260BC0E0C0D0E8C0E005
:10359800E9C0E0A2AFE433F8D2AF758B00C2E8E827
:1035A800F9E8A2E092AFD0E0F9D0E0F8D0D0D0E0CE
:1035B80032C0E0C0D0E8C0E0E9C0E0A2AFE433F830
:1035C800D2AFC2C7751A00E8F9E8A2E092AFD0E01E
:0F35D800F9D0E0F8D0D0D0E032C2AF020000222C
:1035E800FFFFFFFFFFFFFFFFC082C083E99016A225
:1035F800F0D083D08202013274F6122454E990028A
:10360800E8F0900348E0F50875090074027808129C
:1036180023D1AA08AB091216C09002E9123FB39051
:1036280002E91243A0606F900348E075F003A4FA22
:10363800ABF01216C0900306123FB3900306124374
:10364800A0700B9002E91243711216C680489003CD
:10365800061253057AFF7BFF1213247A0080198A19
:1036680008750900740278081223D1124DAD74FF51
:103678001237B3E4F0A3F00A900348E0F8EAC398DD
:1036880040DD79051209A09002E8E0F912088C7A69
:103698002A7B0A120C16024E5074F41224548A081B
:1036A8008B09EB548060479002E8E0F91216308AE3
:1036B8000A8B0BAE0AAF0BEE4F602A8E828F83E027
:1036C80064B0701A1209B2E960148E828F83A3A3C2
:1036D800A3A3E0F9EE2405FAE43FFB120982EEFA0F
:1036E800EFFB12161EAA08E5096480FB80047A0025
:1036F8007B0002390374F212245474FB1223E4EAA7
:10370800FEEBFFEE4F60457403122430EEF0A3EF9A
:10371800F0851882851983ECF0A3EDF07402122469
:1037280030E9F0AA18AB19120886E9F50870757423
:1037380013122430E0F50AA3E0F50BE50A450B6007
:10374800638E828F83123D3CEE4F700575080280B0
:10375800537A067B001216C08A0C8B0DA80CA90D93
:10376800E8497005750813803B88828983E412371D
:10377800B3EEF0A3EF1238CFE50AF0A3E50BF09013
:1037880002EC1238C89002EC6017E0FCA3E080035A
:10379800EAFCEBFD8C828D831238C870F38C828D25
:1037A800831249C8A9087405025585F0A31252E787
:1037B800A32274F21224548908890C750D0074032D
:1037C800780C1223D1850C0A850D0B9002EBF09032
:1037D80002E91247D31238C6602E1216C679008045
:1037E8001D890C750D007402780C1223D19002E922
:1037F800124C6C8882F583A3A3E4F0A3F00990032C
:1038080048E0F8E9C39840D9900348E0FA850AF0FF
:10381800A4CAA8F0850BF0A428FB1216C08A0C8B4A
:103828000DAE0CAF0DEE4F70030238BC900348E0AC
:10383800FC850AF0A4CCA8F0850BF0A428FD79003B
:1038480012160C7C0080318D0C750D007403780CF9
:103858001223D18A828B831238C188828983E4F04B
:103868001238CEA3A3F0A3F00DEDC3950840D8EE0F
:10387800250AFEEF350BFF0C900348E0F8ECC398DF
:1038880050288C0C750D007402780C1223D190020C
:10389800E91238C1E82402500109FAE9FB8A828B4F
:1038A80083EEF0A3EFF07D0080BFE5089002EBF017
:1038B800790080027913025588124C70F922A3A36B
:1038C800124375EA4B22A31252E7A3A3A32274F46E
:1038D8001224547900EAA2E0501F75086875098916
:1038E800780812266779107C047D007AA47B16126A
:1038F800099A74021223FAE9F980007F0402252646
:10390800C082C0839002EC1243A0601C8882898325
:10391800A3A3E06A7003A3E06B8882898370E8A39D
:10392800A3A3A312437180047A007B000235F974C3
:10393800F212245474FD1223E4EAFEEBFF85188288
:10394800851983E4F0A3F074021224307401F01294
:10395800439D7014120B501216C09002EF123FB321
:1039680012439D7003023AC91240B3EE2404F50ACB
:10397800E43FF50B850A82F583E024FE603C24FCD5
:10398800607424FE607E24FE7003023A1924FE70DF
:1039980003023A2624FE7003023A3324FE7003021F
:1039A8003A4024FE7003023A4D24FC7003023A6E3A
:1039B80024FE7003023A86023AC2120B509002F1BA
:1039C800EAF0A3EB123AD51205CEE96003023AC237
:1039D8009002F112267E8E828F83A3A3A3A3A31243
:1039E800530585088285098312437112096A740296
:1039F8001223FA023AC2AC18AD19EEFAEFFB12091B
:103A0800B8023A91AC18AD19EEFAEFFB1209BE8074
:103A180078AC18AD19EEFAEFFB1209C4806BAC183C
:103A2800AD19EEFAEFFB1209CA805EAC18AD19EEBB
:103A3800FAEFFB1209D08051AC18AD19EEFAEFFB82
:103A48001209D68044740212243A880C890D780C25
:103A5800122667740212244AEEFAEFFB1209DC748C
:103A6800021223FA8023AC18AD19EEFAEFFB120903
:103A7800E2E9F870167402122430E4F0803CAC18C5
:103A8800AD19EEFAEFFB1209E8E9F8E8602C8E822E
:103A98008F83A3E064146022850A82850B83E090FB
:103AA80002F1F08518828519831243719002F2128F
:103AB8003FB3E8A3123AD51205C8EEFAEFFB120994
:103AC800407402122430E0F97403025585F07CF149
:103AD8007D028508828509831243752274E81224C1
:103AE8005474FA1223E47404122430ECF0A3EDF0B9
:103AF8008A128B13EA2405F50EE43513F50FEA2430
:103B080002F510E43513F511851082F5831243711F
:103B18001206BE8A0A8B0B7508007C037D007900AB
:103B28007AF17B0212160CE50E2402F516E4350F25
:103B3800F517740212243A880C890D780C1226673E
:103B4800850E82850F83A3A3A3A3E0F50C750D0052
:103B5800780C122667E50E2405F50CE4350FF50DF3
:103B6800780C122667851682851783124678120804
:103B7800A474061223FA8A0C8B0DE50C450D70030C
:103B8800023D058020851882851983E08882898313
:103B9800F00508851882851983A3E0C0E0123D4628
:103BA800D0E0F00508E50A24FBFAE50B34FFFBC377
:103BB800E5089AE49B4003023D057E007F008512DC
:103BC80082851383A3A3A3A3E0F509780912266BC2
:103BD800E4F514F51578141226677514EE751502B8
:103BE80078141226679002EF12267E740912243088
:103BF80012267EE50A24F9F9AC0CAD0D85108285F4
:103C08001183124371120A1274091223FAE960032C
:103C1800023CA6850E82850F83A3A3A3A3A3A3A317
:103C2800E0F89002EEE0687075E0F5148E157814EF
:103C3800122667125302850E82850F83A3A3A3A3BE
:103C4800A3A3A3A312437112160674021223FAE95E
:103C5800604C9002F21243A0703BE4F51478141201
:103C680026677CFF7DFF79078510828511831243C3
:103C78007112097C74021223FA1243A67017850E7A
:103C880082850F8312549F7404122430124D6012DF
:103C980046A9023D39850C82850D83123D3CA81842
:103CA800A919881489157814122667740412243007
:103CB80012267E851682851783123FA91208B074D2
:103CC800041223FA8A0C8B0DEE4F7003023B82120A
:103CD8003D46EE123D5112465FEF123D51F8A3E00A
:103CE8003400F9E50C450D6003023B8D8882898319
:103CF80074FFF00508123D4674FFF00508E50860FA
:103D08001A1313543F123FB91205DAE960099002F9
:103D1800F212437112167879008016850E82850F8B
:103D28008312549F7404122430124D601249C879CA
:103D38000A024632A3A3A3A3E0FEA3E0FF22A80839
:103D48009002F2E02812465F22F00508089002F27D
:103D5800E0282274E812245474FA1223E47402123C
:103D68002430123FB37404122430ECF0A3EDF07445
:103D780002122430E02405124648E0F50CA3E0F5D1
:103D88000D7402122430E02402F510A3E03400F58B
:103D980011851082F5831243711206BE75080075ED
:103DA8000900EA24FCFEEB34FFFF8008050CE50C53
:103DB8007002050DA808C3EE98EF94005003023F67
:103DC80065A818A919880E890F780E122667851418
:103DD80082851583A3A3A3A3125309122667E514AA
:103DE8002405F50EE43515F50F780E1226678514AF
:103DF80082851583123FA71208A474061223FA8A33
:103E08000E8B0FEA450F7003023F65EA2404F5168E
:103E1800E4350FF517851682F583E0F50CA3E0F578
:103E28000D8518828519831253058A828B83A3A373
:103E3800A3E0F9851082851183124371120892E973
:103E4800F5096003023F65740212243012466FF5CB
:103E580009780912266BE4F512F513781212266711
:103E68007512EE75130278121226679002EF122669
:103E78007E740712243012267EEEF9AC0EAD0F8543
:103E88001082851183124371120A1274091223FADF
:103E9800E9F5096003023F65E508703FE4F50EF5B2
:103EA8000F780E1226677CFF7DFF790985108285C1
:103EB800118312437112097C74021223FA12469577
:103EC800700D7404122430123F9C7911023F9990AE
:103ED80002EEE024029002F2F080149002F2E0FA7E
:103EE8009002EEE0790024025001096A497072A834
:103EF800089002EEE0FAE82AFAE43400FBEE9AEFC2
:103F08009B405A851682851783E0C0E09002F31221
:103F18003D4BD0E0F00508851682851783A3E0C0E5
:103F2800E0089002F3123D4BD0E0F005089002EE55
:103F3800125309122667125302A80812463C12159A
:103F4800F474021223FA9002EEE02508F50874FFD3
:103F5800650C700474FF650D6003023DB4E50860EC
:103F68001F9002F2E0F5F0E50884123FB91205E06F
:103F7800E960099002F312437112167879008011F2
:103F8800E509700375090A7404122430123F9CA9CC
:103F9800090246321247D7E50CF0A3E50DF022A33B
:103FA800A3125594AA0CAB0D22A3A3EAF0A3EBF03D
:103FB800229002F1F07CF17D028510828511831236
:103FC80043752274EC12245474FC1223E4124AD868
:103FD800740212244A12436B1208AA8A0C8B0DEA47
:103FE800450D70030240A31240B3A818A919881000
:103FF800891178101226677CFF7DFF790B8508826E
:1040080085098312437112097C74021223FA124142
:10401800A9700C850A82850B831246A60240B08ED1
:10402800828F83A3A3A3A3E0F512781212266BE470
:10403800F512F51378121226677512F175130278C6
:104048001212266778101226677409122430122675
:104058007E7409122430E0F9AC0CAD0D8508828518
:104068000983124371120A1274091223FAE9FE70C5
:10407800157CF17D0285088285098312437112053A
:10408800E6E97009802074166E70027E009002F2D4
:10409800124371121678EE7004800B7E01850A8235
:1040A800850B831249C5EEF90249DAEE2402F508B8
:1040B800E43FF5092274EC12245474FC1223E4EA58
:1040C800FEEBFF8C0E8D0FEE2405F508E43FF50995
:1040D800740212244A8508828509831243711208E2
:1040E800AA8A0C8B0DEA450D7003024199EE240251
:1040F800F50AE43FF50BA818A9198810891178105A
:104108001226677CFF7DFF790D12436B12097C74C0
:10411800021223FA1241A9700B85088285098312BD
:1041280046A6807A8E828F83A3A3A3A3E0F5127894
:104138001212266B850882850983A3A312267E7531
:1041480012F1751302781212266778101226677416
:104158000912243012267E7409122430E0F9124321
:1041680067120A1274091223FAE9FE700F7CF17DB6
:104178000212436B1205ECE97009802074166E7008
:10418800027E009002F2124371121678EE700480DB
:104198000B7E018508828509831249C5EEF902491B
:1041A800DA1243B0F510A3E0F511EA45112274E8DC
:1041B80012245474FE1223E48A168B178C148D155E
:1041C800EA2405F50CE43517F50DEA2402F50EE4AA
:1041D8003517F50F850E82F5831243711206BE8AD4
:1041E800088B09750B007C037D0079007AF17B024E
:1041F80012160C750A00E50814F5100424FFF508DA
:10420800E50934FFF50980549002F1E0FA9002EED6
:10421800E0F8EA28F8E43400F9E50898E509995047
:104228000D9002F1E0F8E510C3989002EEF0E0F589
:104238001275130078121226671253029002F2E0E8
:104248002AFAA3E03400FB1215F474021223FA9040
:1042580002EEE0F89002F1E028F0050A850C82856C
:104268000D83A3A3124C7C400302434C9002F1E05F
:10427800C39508E49509400302434CAE0AEE2EFEAE
:10428800E433FF12438BAC18AD1912531DE439FB0C
:104298001208AA8A128B13AC12AD13EC4D701B7561
:1042A8000B0112437B1249C99002F21238C860030D
:1042B800121678A90B740202463485168285178374
:1042C800A3A3A3A3E0F50B780B12266BE4F512F574
:1042D8001378121226677512EE75130278121226D9
:1042E800679002EF12267E740712243012267EA9E8
:1042F80010850E82850F83124371120A12740912F7
:1043080023FAE9F50B709B9002F21243A0600302B6
:104318004210E4F512F51378121226677CFF7DFF30
:10432800790F850E82850F8312437112097C7402FE
:104338001223FA1243A6600302421012437B12466C
:10434800AA0242BD7CF17D02850E82850F8312434D
:10435800711205F2E960030242B079000242BDAC75
:104368000CAD0D850A82850B8312437522E0FAA3F2
:10437800E0FB2212438BE0FAA3E0F9EA8514828578
:10438800158322850C82850D83E02EF8A3E03FF982
:1043980088828983229002EF1254A3E849221243AB
:1043A800B0F8A3E0F9E849229002F2EAF0A3EBF0B2
:1043B8009002F2E02274E812245474FA1223E4748E
:1043C80004122430123FB38C168D17740412243053
:1043D800E02405F50EA3E03400F50F740412243030
:1043E800E024021246481243711206BE8A0A8B0B59
:1043F8007F007E00A818A91988088909780812265C
:1044080067850E82850F83A3A3A3A3E0F5088E0911
:104418007808122667E50E2405F508E4350FF50936
:104428007808122667850E82850F83A3A312467823
:104438001208A474061223FA8A0C8B0D80291246DE
:1044480069F00F124669F00F9002EE1249B4122675
:1044580067125302EFF812463C1215F47402122345
:10446800FA9002EEE02FFFE50C450D70030244F8C8
:10447800851882851983124AEAA3A3A3E0F9851453
:1044880082851583124371120892E9FEE50C240413
:10449800F510E4350DF511EE705074041224301245
:1044A800466FF508780812266BE4F508F5097808D0
:1044B8001226677508EE75090278081226679002B9
:1044C800EF12267E740712243012267EE50A24FA9B
:1044D800F9AC0CAD0D851482851583124371120A4F
:1044E8001274091223FAE9FE60391246851249C886
:1044F800EF700302461F9002F2E0F5F0EF8490029D
:10450800F1F07CF17D0285148285158312437112C6
:1045180005F8E960099002F31243711216787900E0
:104528000246328F08EF703BE4F512F51378121249
:1045380026677CFF7DFF79118514828515831243D8
:104548007112097C74021223FA12469570091246F8
:10455800851246A90246329002EEE024049002F247
:10456800F080359002EEE0F89002F2E0FAE82404D8
:10457800FCE43400FDEC6A4D60030244FEE50A24C5
:10458800FAFAE50B34FFFBE50828F8E43400F9EA09
:1045980098EB9950030244FE851082851183E0C090
:1045A800E09002F3E02FF8A3E034008882F583D08E
:1045B800E0F00F851082851183A3E0C0E012465613
:1045C800D0E0F00F740212243A880889097808129A
:1045D8002667740212243012267E850E82850F8388
:1045E800123FA71208B074041223FA8A0C8B0DEA42
:1045F800450D70030244467402122430E0C0E012F4
:104608004656D0E0F00F7402122430A3E0C0E01246
:104618004656D0E002444EEE70027E0A850E828530
:104628000F8312468B1249C8EEF974061223FA7FDB
:10463800100225269002F3E028FAA3E03400FB22BA
:10464800F514A3E03400F515851482F5832212468B
:104658005A229002F3E02FFAA3E034008A82F5830D
:104668002212465A74FF221247D7A3A3A3A3E0221B
:10467800125594850E82850F831243752285108208
:104688008511831254A3851682851783229002F31D
:10469800EAF0A3EBF09002F31254A3E8492212497E
:1046A800CEE8F0A3E9F079112274EA12245474FEDA
:1046B8001223E48A088B098C128D13EA2405FEE480
:1046C8003509FFAC18AD198E828F83124371120819
:1046D800AA8A0C8B0DEE2406F50EE43FF50FEA4589
:1046E8000D70030247A9E5082402F50AE43509F527
:1046F8000B8A828B83A3A3A3E0A2E55028851882A6
:10470800851983124371120A068A108B11EA451122
:104718006020791212436785108285118312245212
:10472800E9F50C707F850E82850F83E06009795268
:104738008011750C0E806D850882850983A3A3A35B
:10474800A3E0F9E4F508F50978081226678E828F48
:1047580083A3A3E0F50878081226678E828F83A3C7
:10476800A3A312267E8E828F8312530512436B12E7
:104778000A1874061223FAE9F50C7011850E828561
:104788000F83E0702D12436B1205FE8025741665A9
:104798000C7011750C0074181224301247D3E48081
:1047A80010750C0112549B851282851383E8F0A3BF
:1047B800E9F0850E82850F83E0600479008002A904
:1047C8000C74021223FA7F0E0225261247D722E024
:1047D800F8A3E0F58388822274EC12245474F7124B
:1047E80023E48A0A8B0B8C108D11EA2405FEE4352C
:1047F8000BFF750C00AC18AD198E828F83124371B4
:104808001208AA8A088B09EA4509700302499FE53C
:104818000A2402F50A5002050B8A828B83A3A3A3FC
:10482800E0A2E5502F851882851983124371120A78
:10483800068A0C8B0DEA450D604F7912AC08AD095C
:1048480012436B850C82850D83122452E9F50C60A6
:10485800030249A2850A82850B83E0F508A3E0F5E7
:1048680009AA08FB1209FAEA4B70197AFF7BFF12B2
:1048780009FAEA4B70030249958A828B83E508F0AE
:10488800A3E509F07508008008750C0E0249A20519
:10489800089002EBE0F8E508C398400302499585C3
:1048A800080E750F007403780E1223D18A828B8349
:1048B800A3A3E0250EF8A3E0350F124D6970D08E42
:1048C800828F831249BD123FB38E828F83A3A312B6
:1048D80049BD123FB1EE2404F508E43FF509850807
:1048E80082F583E088828983A3A3A3A3F0A3E4F0DD
:1048F800EE2405F50EE43FF50F850E82F583124987
:10490800BDA3A3A3A3123FB17512077513007812B4
:10491800122667EEFCEFFD74041224421215F4749B
:10492800021223FAE4F512781212266785088285A6
:104938000983E0FC7D00791712436B12097C74022D
:104948001223FA7407122430123FB374071224306A
:10495800E0FA4B603D8508828509831249B4122626
:1049680067850E82850F831253051215F47402129F
:1049780023FA740212244A12436B120604E96026D1
:1049880074071224301243711216788019750C09B5
:104998008008750C118003750C0112549B851082D8
:1049A8008511831249C8A90C74098028E0F5087597
:1049B800090078082212437588828983221249CE19
:1049C800E8F0A3E9F022E0F8A3E0F9850E82850F6C
:1049D800832274041223FA7F0C02252674EC122415
:1049E80054124AD8751000EE2402F50CE43FF50D78
:1049F800850C82F5831243711209FA8A088B09EA39
:104A080045097003024ABC850A82850B83E064016C
:104A18006003024AB1AC08AD09AA0AAB0B1209EE51
:104A2800E9606E850882850983123D3EEE2406F50D
:104A38000AE43FF50B8E828F83A3A312267E8E8213
:104A48008F83A3A3A3A312267E850A82850B8312D4
:104A5800267E79188E828F83124AEA124371120ACF
:104A68001874061223FAE9F8741668700B850A821E
:104A7800850B83E4F0A38014E860128E828F831282
:104A88004371850E82850F83EAF0A3EBF0881080CE
:104A980018780E122667AC08AD09EEFAEFFB12097A
:104AA800F474021223FAE9F510AA08AB09120A00F5
:104AB800E510700E850C82850D8312437112060A6B
:104AC8008009741665107003751000A9100249DF7B
:104AD800EAFEEBFF8C0E8D0FEE2405F50AE43FF598
:104AE8000B22125594850C82850D832274EA1224B8
:104AF800547508007509007E007F00750A00EC24D3
:104B080002F510E43DF5118035EC65087003ED659C
:104B1800096003024BA988828983A3A3E06A700312
:104B2800A3E06B707C88828983A3A3A3A312549FFC
:104B3800EE28FEEF39FFEA28FAEB39FB050A124C9A
:104B480079503A850A0C750D007403780C1223D13C
:104B5800851082851183124C6C124D69601FE5081F
:104B6800450970A58C088D0988828983123D3C8887
:104B7800828983A3A3E02EFAA3E03F80BEE50AC39F
:104B880094025003024C67750800750900EE4F60E7
:104B980010EEFAEFFB1216728A0E8B0FEA450F70B1
:104BA800057900024C69750B00024C3C850B0C75AD
:104BB8000D007403780C1223D1851082851183E0CF
:104BC800250CF50CA3E0350DF50DE50C2406F514C0
:104BD800E4350DF515851482F583124D6E6042E5B6
:104BE8000C2404F512E4350DF513851282F58312B1
:104BF800267EE50E2508FAE50F3509FB1215F47433
:104C0800021223FA851282851383E02508F508A38A
:104C1800E03509F50985148285158312437112164A
:104C280078E50B600D7C087D007900AA0CAB0D12AD
:104C3800160C050BE50BC3950A5003024BB48510FF
:104C48008285118312549F88828983A3A3A3A3A377
:104C5800A3E50EF0A3E50F1238CFEEF0A3EFF0793D
:104C6800010247CE124C7022E0250CF8A3E0350D66
:104C7800229002EBE0F8E50AC3982274F01224545B
:104C88008A0E8B0F8C0A8D0B750D00750C008050E9
:104C98007916EE2406F508E43FF5098E828F83A382
:104CA800A312267E8E828F83A3A3A3A312267E85BA
:104CB800088285098312267E850E82850F83A3A329
:104CC800124371120A1874061223FAE9F50D7416C4
:104CD800650D706C850882850983E4F0A3F0050CE6
:104CE8009002EBE0F8E50CC3985066AA0C8A0875A8
:104CF8000900740378081223D1850A82850B83A3DF
:104D0800A3124DB8E8FEE9FF8E828F83124D6E60C4
:104D180040EA2401F508E43400F5099002EBE06567
:104D2800087002E509601488828983A3A3A3A3A35A
:104D3800A3A3A31243A06003024C987918024C9ACB
:104D4800E9609B12549B7410122430124D60124972
:104D5800C8A90D7F08022526E0FAA3E0F5838A8218
:104D680022F988828983125594EC4D2274F6122414
:104D7800547C0080010C900348E0F8ECC398501E66
:104D88008C08750900740278081223D1124DADE021
:104D98006A7003A3E06B70DDE8FAE9FB80047A002F
:104DA8007B00024E509002E9124DB8888289832216
:104DB800E02508F8A3E03509F92274F21224548A90
:104DC800088B09750A0080278E828F83A3A3A3A36B
:104DD8001238C660031216787C087D007900EEFA56
:104DE800EFFB12160C8E828F83E4F0A3F0050A12F3
:104DF8004C795027850A0C750D007403780C122322
:104E0800D1850882850983A3A3E0250CFEA3E0359C
:104E18000DFF8E828F831243A070AD8508828509AD
:104E28008374FFF0A3F002558874F6122454120913
:104E3800AC8A828B83E582458370067A007B00808A
:104E480007A3A3A3A31243717F0202252674F412B9
:104E5800245489088C828D83E06402703C12543E8D
:104E6800FEA3E0F9EEF874026870037429697029EA
:104E7800750A02750B00780A12266774101224301E
:104E880012267E741012243012267EA908121336B8
:104E980074061223FAE9F98002790102390374E8E9
:104EA80012245474FB1223E4E9851882851983F0CF
:104EB8008A168B17ECFEEDFF7510008E828F83A388
:104EC800A3A3E0A2E4502D741D12243012437112E2
:104ED8000A068A828B83E582458370030252DD7954
:104EE8000AEEFCEFFDAA16AB17122452E9F5106082
:104EF800030252E0741F122430E0F508A3E0F5091C
:104F08007421122430E0F50AA3E0F50B742312246F
:104F180030E0F50EA3E0F50F8E828F83E064026027
:104F28000302527EA312549F850882850983A385B4
:104F38008212858313EE2406F50CE43FF50D888272
:104F4800898312531DF514E439F51578141226F1E6
:104F5800010000280128804F070002284550032837
:104F6800B34F0029745101299F5102294051032947
:104F78007451042918527E52E50E450F60030252FF
:104F880079850C82850D8312549FE8FAE9FB8A82A1
:104F98008B83E0850A82850B831253281226678A41
:104FA800828B83A3E0FCA3E0025202E50E450F606A
:104FB80003025279850A82850B837401F012531219
:104FC800850882850983F07C007D008E828F83A30B
:104FD800A3A3A3E02401FAA3E03400FB1208AAEA81
:104FE8004B60408A828B83E02402F8850A82850B15
:104FF80083E028F0EA2404F8E43BF988828983E016
:105008008512828513831253361253281226678A13
:10501800828B83A3125305E5082403FAE43509FBC0
:10502800025207850A82850B83E02404F07C047D04
:10503800007900AA12AB1312160C0252E0E50E45D5
:105048000F6003025279125312FEA3E0FF850A8211
:10505800850B837404F0EE850882850983F0EF855B
:105068001282851383F0740312244AEEFAEFFB12BE
:1050780008AA8A0C8B0DEA450D70030251238A8217
:105088008B83A3A3123D3C740112243A880E890F26
:10509800780E122667740512243012267E7CFF7D56
:1050A800FF1208B074041223FA8B0FEA450F70330D
:1050B800850C82850D83125309122667850C82851B
:1050C8000D83A312267E7C027D007A507B8A12060D
:1050D800AC74041223FAE9700A740112243074FFC4
:1050E800F0A3F08E828F83E064027039750C02752C
:1050F8000D00780C1226678E828F83A3125305E564
:10510800082404FAE43509FB1215F474021223FA90
:10511800850A82850B83E0240280097401122430F9
:10512800EEF0A3EFF074011224301252F77401125A
:1051380024301252EE025273E50E450F60030252FC
:1051480079850C82850D8312558DAA16AB1712131B
:105158003C850A82850B837402F085088285098361
:10516800EAF0851282851383EB025276E50E450F2D
:105178006003025279125312F8A3E0F9850A828576
:105188000B837402F0E8850882850983F0E98512AB
:1051980082851383025276850C82850D83124371B2
:1051A8001215EEEAFAF8C3950EE4950F405CE8652F
:1051B8000E450F70047A008021851882851983E0D6
:1051C800FCE50E2CFCE4350FFDC3EC98ED94005083
:1051D80003E08005E50ECAC39AFAEA850A82850BC0
:1051E80083F08A0A750B00780A122667850C828577
:1051F8000D83E0250EFCA3E0350FFDAA08AB0912CC
:1052080015F474021223FA0252E07510070252E0F4
:10521800E50E450F705B850C82850D8312549F85C2
:105228000A82850B837407F0888289831252EF12F1
:1052380052E7E0851282851383F0E82402FAE43904
:10524800FB8A828B831252F78A828B831252EEA3D7
:10525800A31238CE1252FCF0E82405F85001098850
:105268008289831252FCA3125336A3A3A3A3F0800E
:105278006775100B8062741D122430124371120975
:10528800AC8A828B83E5824583604A12549F880CDE
:10529800890DE8450D603E7425122430E0F510783C
:1052A8001012266B780E122667780A12266778087D
:1052B8001226677407122430E0F9EEFCEFFDAA16F7
:1052C800AB17850C82850D8312245274071223FABA
:1052D800E9F510800375100EA9107405024634F024
:1052E80088828983A322A3E0850882850983221204
:1052F800533DF02212533DA3A3229002EF1255947E
:1053080022E0F50E750F00780E22850C82850D833C
:105318001247D7E022E0FAA3E0F8E4C8F9EA282225
:10532800F08A828B83E0F50A750B00780A22125204
:10533800E712533D22E0850882850983A3A32274DE
:10534800EE12245474FE1223E48A088B09ECFEED55
:10535800FF890AAC18AD19EEFAEFFB1208AA8A0CFD
:105368008B0DEA450D700302542F85188285198329
:105378001243711209AC8A828B83E58245837003DC
:1053880002542AA3A312549F880E890FE8450F7070
:105398000302542A7414122430E0F510A3E0F51126
:1053A800E50AF50B780B12266B74191224301226B5
:1053B8007E7810122667741B122430E0F9AC0CAD0D
:1053C8000DAA08AB09850E82850F83122452740535
:1053D8001223FAE9F50B705274FE650A604C850CCD
:1053E80082850D83E06402704112543EFAA3E0F90D
:1053F800EAF87402687003742969702E8510828532
:10540800118312531DF50CE439F50D780C1226673B
:10541800EEFCEFFDAA08AB09120A3074021223FA57
:105428008008750B0E8003750B01A90B74021223FB
:10543800FA7F0A022526A31254A388828983E022D0
:1054480074F612245474FE1223E4740C12243012DD
:10545800549FE8851882851983F07401122430E975
:10546800F0E4F508F5097808122667750802780847
:10547800122667740412243A8808890978081226C3
:105488006779FE120A1874061223FA74021223FAB4
:10549800024E508E828F831254A322E0F8A3E0F9C3
:1054A8002274F7122454EAFEEBFF890890030612CF
:1054B800530512133CEA5402600BA908EEFAEFFBFD
:1054C80012089E800279017F0102252674F21224B7
:1054D8005474FE1223E4EAFEEBFF890A7401650A9C
:1054E80060147402650A60030255837901120C3452
:1054F800E96003025583EEFAEFFB1209FAEA4B6002
:1055080003120A00A818A919880889097808122618
:1055180067750802750900780812266775086A75A4
:10552800098A78081226677CFF7DFF7A017B0012C2
:1055380008A474061223FA8038850882850983A393
:10554800A3A3A3A3A312558DEEFAEFFB121324E431
:10555800F50CF50D780C1226677402122430122609
:105568007E7CFF7DFFAA08AB091208B074041223E1
:10557800FA8A088B09E508450970BE74021223FAF5
:105588007F060225261247D712559422E0FCA3E095
:10559800FD2274F41224548A088B09ECFEEDFF9066
:1055A80016A2E0F4604B7A097B00121618EA4B60E9
:1055B800408A828B8374B1F0A3E41255FCF08A828E
:1055C8008B83A3A3E508F0A3E5091255FCA3EEF02D
:1055D800A3EFF0740C12243012549F8A828B83A399
:1055E800A3A3A3A3A3A31249C89016A2E0F9121675
:1055F80024023903F08A828B83A3A3A3A32274EE27
:1056080012245474FA1223E48A0A8B0BE9FF8C08DB
:105618008D097E00850A0C850B0D780C1226AB00CF
:105628000410E2584E5671569056B356D656F9564F
:105638002A574D5764579457435866588958B7584E
:10564800E258E258BD5774016F70198508828509C0
:1056580083E0C39403500D850882850983E0901880
:1056680002F080027E1802590A74026F70158508CC
:1056780082850983E0F8A3E0F9901803E8F0A3E92C
:10568800F080027E1802590A74016F701985088229
:10569800850983E0C39402500D850882850983E05B
:1056A80090073FF080027E1802590A74016F701942
:1056B800850882850983E0C39405500D8508828595
:1056C8000983E0900740F080027E1802590A7401AD
:1056D8006F7019850882850983E0C39402500D858F
:1056E8000882850983E0900741F080027E180259FC
:1056F8000A74106F7027750C10750D00780C12263F
:1057080067AC08AD097A427B071215F474021223BC
:10571800FA8A0C8B0D850C82850D8380027E180217
:10572800590A74016F7019850882850983E0C3944A
:1057380002500D850882850983E0900752F08002A7
:105748007E1802590A74016F700D850882850983D5
:10575800E0901806F080027E1802590A74046F70EF
:10576800269089D2780C12229C8508828509837834
:105778000C1218CD50118508828509831222D29007
:1057880007541222DE80027E1802590AEF70211295
:105798000844E970131212CAE9F50D795012174A34
:1057A800E9F50C1212B8800A9007E77401F080023C
:1057B8007E1802590A74076F707C750E06750F0003
:1057C800780E122667850882850983A3AC82AD838B
:1057D80074021224421215FA74021223FA8A108BE8
:1057E8001185100E85110F7C007D00AA18AB198554
:1057F8000882850983E0F912125EE9F50CE50CC30D
:10580800940A502E120844E97015A90C1212D0E916
:10581800F50E795012174AE9F50D1212B88019A839
:105828000C790074E828F582740739F5837401F05F
:1058380080067E0280027E1802590A74016F701970
:10584800850882850983E0C39402500D8508828506
:105858000983E0900753F080027E1802590A740108
:105868006F7019850882850983E0C3940A500D85F5
:105878000882850983E0901805F080027E18025995
:105888000A74016F7025850882850983E0C394072F
:105898004019850882850983E0C39411500D850855
:1058A80082850983E0901807F080577E188053742A
:1058B800016F70229007E6E0F50C85088285098360
:1058C800E09007E6F0E50C70399007E6E0640170B7
:1058D800311212B8802C7E188028C3E50A9427E577
:1058E8000B9400501B74026F70168508828509831B
:1058F800E0FCA3E0FDAA0AAB0B1206C4E9FE800295
:105908007E02EEF974061223FA7F0A02252674EC49
:1059180012245474DA1223E4890D8A128B138C0A28
:105928008D0B743A122430E0F50C90894AAC18AD0E
:105938001974061222F7AC18AD19AA12AB13A90DE7
:1059480012125EE9FEEEC3940A4003025A8AEEF987
:1059580012129AE9FF901802E06402700474018040
:10596800027400F508780812266BAD0CEFFCEEF90E
:10597800AA0AAB0B12130C74011223FA7C147D00D3
:105988007900741212244212160C8A0E8B0F850E9F
:1059980008850F09741212244A7A1075F006EEA4CD
:1059A8002424F9121744E9703C7C1079FF74121210
:1059B800244212166CE9702D7422122430AC82AD88
:1059C800837A0475F006EEA42425F9121744E9F544
:1059D80008741212244AEFA2E0E433F9AA0AAB0BC6
:1059E80012074EE9F8740612244A7A0C74702EF9DC
:1059F800121744E97079740612244212128E750E39
:105A080000E50EC394045067A80E7900E875F0030A
:105A1800A4C8AAF075F000A42AFA75F003E9A42A2C
:105A2800F97406122430E58228F508E58339F5096A
:105A3800850882850983E0F8A3E0F9E849602C85A8
:105A48000882850983A3A3E0F51075110078101268
:105A58002667850882850983E0FCA3E0FDAA0AABD6
:105A68000B120A1E74021223FAE9F8050E8092EF4F
:105A7800A2E1500E90073EE0F9AA0AAB0B120A24E5
:105A8800E9F87404650C700F901802E0640270075E
:105A9800AA0AAB0B121306790074261223FA7F0C9C
:105AA80002252674F7122454EAFEEBFF120844E993
:105AB80070679007E7E06401701B1212CAE9F508E5
:105AC8009007E77400F07C0A7D0079007AE87B078C
:105AD80012160C8039750800E508C3940A502FA8DF
:105AE80008790074E828F582740739F583E06401C1
:105AF8007018A9081212D0E9FAA808790074E828E1
:105B0800F582740739F5837400F0050880CA795066
:105B180012174AE9F5081212B87F0102252674F215
:105B2800122454890BEAFEEBFF8C088D09750A0ACA
