:020000040000FA
:0600000002011A022605B0
:03002B00022D8122
:03003300022D5942
:0300530002267B07
:03006B00022D0063
:03007B00022D282B
:1000830002245BE5C754F84401F5C7790122000057
:100093000080FB120086B90003020104E479217891
:1000A30008B800028004F709D8FCE479297802B87B
:1000B30000028004F709D8FCE490028178AD79143A
:1000C3008002F0A3D8FCD9FA781A90014A7A01BACF
:1000D30000028007E493A3F608DAF97A2D7B1690E1
:1000E300014B781479058015E493A3AD82AE838A1E
:1000F300828B83F0A3AA82AB838D828E83D8E9D9C6
:10010300E775821B758395740412012C75829175B2
:100113008300740012012C75D00075813F7518811E
:10012300751902759F00020096C09FF59FE473D076
:100133009F22D083D082C09FE493C0E0740193C018
:10014300E0740293F59F2201FF0000B40000280031
:100153002800283075A000A000A000A0000008001F
:1001630008E001F000100010001000100010001053
:100173000050005000500010001000D00700000095
:100183000000000F0001000500307507001000019A
:100193000081FF00000000FFFFFF80079E07860726
:1001A300C207FF02020208025000A0000000E80399
:1001B30002628A010000348A025C8A010000881608
:1001C30002528A010000BF02025C8A010000891604
:1001D30002508A010000D502025C8A0100008A16DF
:1001E300024E8A010000D702025C8A0100008B16CE
:1001F300024A8A080000D802025C8A0100008C16B9
:1002030002488A0100008D16FF0100FF2002628A66
:10021300010000318A025C8A010000F11602468A5D
:10022300000000000002548A0300000603170022A6
:100233000E220E220E220E220E220E220E220E223B
:100243000E220E220E220E220EDA10EC10D4101201
:10025300080802628A0100002E8A025C8A010000FB
:10026300341710D888010000250702548A030000C0
:100273002B07025C8A010000351710C888020000B2
:100283002D07025C8A010000361710B888020000AF
:1002930035070202023132333435363738393031DB
:1002A300320002020202020202010D0000001001EC
:1002B30002628A0100003A8A025C8A010000771711
:1002C30002788A0100003607025C8A010000781771
:1002D30002768A010000AE89025C8A010000791768
:1002E30002748A0100007A17025C8A0100008817F1
:1002F30002728A0100005289025C8A010000891798
:1003030002708A010000BA89025C8A010000871723
:10031300026E8A0100005088025C8A0100008A177D
:10032300026C8A0100000188025C8A0100008B17BD
:10033300026A8A0100007788025A8A0100006688EF
:10034300025C8A0100008C1702688A01000006899A
:10035300025C8A0100008D1702668A0100008E1775
:1003630001E8030577100A01014828142E143414F8
:100373003A14401446144C14521458145E14641462
:100383006A14701476147C148214100C02628A01AD
:100393000000378A025C8A0100007018022A8A0270
:1003A30000007708025A8A0100002189025C8A0151
:1003B30000006F18022C8A0200009F0802548A036F
:1003C3000000C708025A8A0100005E8968FFFFFF28
:1003D3000001307503020106000000000000000068
:1003E300000000000000000000000000000000000A
:1003F30000000000FFFF0600800CE803037B034CB2
:10040300CD6C03AB0336567600680402CB47A202D9
:10041300180400058BC1010C0400000000037F06D3
:100423000CC92C979797038903264666006C022014
:100433000002400400000000024404000000000227
:10044300480400000000024C0400000000025004B5
:1004530000000000025404000000000258040000E1
:100463000000025C040000000002BC040000000065
:1004730001EC0400004000037F060CC92C979797FA
:100483000402030D355D040904872D353D00A301E6
:100493000000000001078601FE074105F120283016
:1004A30038077E01300746019A074704F1283038A0
:1004B300076C04F1283038021602000101B202FF72
:1004C300FF0190040923A135016A020600016008B7
:1004D3000000000000000000006004400000000174
:1004E30062020000006004004000000B0956756CB6
:1004F30074757265456767051218012801020A00C1
:1005030002010656756C7475726545676700204E67
:10051300000070110100D0072A00E2170000F41751
:10052300FA17104B65792050726573732053746109
:1005330074650002628A0100003D8A025C8A010040
:1005430000071A024C8A0000002A1602548A03008C
:10055300002B16025A8A010000081A12013509E716
:10056300031201351CE7031201354DE70312013570
:1005730087E703120135E0E70312013527E8031289
:1005830001356FE8031201359EE803120135CDE80A
:100593000312013504E9031201354BE90312013556
:1005A30064E903120135B9E903120135D2E90312F3
:1005B300013520EA031201355AEA0312013500809E
:1005C300031201350381031201353C810312013506
:1005D3005F8103120135718103120135AF8103126B
:1005E30001352B8203120135F38203120135158382
:1005F30003120135AC8303120135FE830312013567
:100603002F84031201353C8403120135A68403129F
:100613000135FD8403120135008503120135398547
:10062300031201353C85031201354685031201355A
:100633009A8503120135DB85031201350E860312F9
:1006430001354B86031201354D8703120135F187BE
:10065300031201355A8803120135988803120135B4
:1006630040DF0312013568DF0312013595DF031202
:100673000135CDDF031201352BE00312013577E09D
:1006830003120135DEE0031201351EE103120135C9
:100693005BE10312013589E10312013533E20312F1
:1006A30001353DE2031201354AE2031201357DE2D1
:1006B3000312013589E203120135A1E20312013568
:1006C300ABE2031201357B920412013589920412C5
:1006D3000135A19204120135B8920412013562DD8D
:1006E300011201350CDE011201351FDF0112013544
:1006F3009BDF01120135B9E001120135F5E001126A
:10070300013590E10112013574E20112013540E334
:1007130001120135CEE4011201353FE50112013525
:10072300F9E501120135EBE6011201352BE7011260
:100733000135DFE70112013511E80112013507EA3E
:100743000112013549EA0112013567EA0112013547
:10075300CDEA011201359CEB0112013560EC011267
:1007630001357FEE011201358398031201356D992E
:1007730003120135189A03120135699A03120135E0
:10078300199B031201358A9B031201356F9C0312D7
:100793000135A39C031201359C9D03120135D99D9C
:1007A30003120135B59E03120135F49E0312013580
:1007B300109F031201350080041201358480041256
:1007C3000135AF8004120135C981041201350EFCD5
:1007D3000212013524FC0212013542FC02120135DA
:1007E30053FD021201355DFD0212013588FE02122E
:1007F30001357FFF02120135ECFF0212013582B68B
:1008030003120135B2B703120135E9B703120135FB
:1008130033B803120135F6B9031201354EB901128B
:100823000135DAB9011201353EBB011201354ABB6C
:100833000112013585BB01120135F4BB01120135EB
:10084300FDBC0112013506BE01120135CDBE0112F8
:1008530001352AC00112013548C00112013565C0B6
:100863000112013512C1011201358FC10112013587
:10087300B7C10112013581C40112013586C40112C9
:1008830001359FC601120135EDC6011201355DC761
:10089300011201359BC70112013577C801120135D9
:1008A30037C90112013583C90112013586C9011205
:1008B3000135CAC90112013512CA0112013551CAE3
:1008C3000112013573CA01120135A7CA011201359C
:1008D3000ACB01120135C5BB03120135D3BB031289
:1008E300013526BC0312013545BC031201358ABC10
:1008F30003120135CEBD0312013569BE0312013562
:10090300ADBE03120135D7BE0312013546BF031234
:1009130001358CBF0312013503C003120135B4C086
:1009230003120135B82D00120135C82D001201350F
:10093300692E00120135C52E00120135822F0012D7
:1009430001359E3000120135D03000120135FF30E1
:1009530000120135AC320012013523350012013586
:100963009337001201358538001201357E390012A4
:100973000135853B00120135793E00120135A83F50
:1009830000120135AC4100120135BC4200120135A1
:100993004B44001201353C45001201358A450012D3
:1009A3000135F945001201351D46001201356E4629
:1009B300001201350F4B00120135104C00120135A6
:1009C300714C001201359C4C00120135624D00122E
:1009D300013537D70312013541D70312013586D7C5
:1009E300031201359AD7031201352AD803120135B0
:1009F30063D8031201359ED803120135C7D80312F9
:100A030001351BD90312013530D90312013552D9EF
:100A13000312013567D9031201357BD9031201355E
:100A230090D903120135CAD903120135F6D903123D
:100A330001357DDA03120135C0DA03120135EADA32
:100A43000312013515DB031201359C8F04120135A6
:100A530035C10212013518C20212013593C20212C6
:100A63000135CEC2021201351FC402120135ADC4D5
:100A7300021201353FC702120135F1C702120135D7
:100A8300FDC80212013570CA02120135C9CA021229
:100A93000135A5CE03120135E8CE031201356CCF23
:100AA3000312013543D20312013518FA031201353B
:100AB300CAFA03120135C6FB0312013505FC031202
:100AC30001355FFC03120135DB83041201353E84DB
:100AD30004120135DB84041201351085041201353B
:100AE3004085041201357B85041201359B85041270
:100AF3000135C6C00312013552C10312013511C2BB
:100B03000312013529C30312013543C5031201350D
:100B1300A1AA02120135C6AA0212013593AB021231
:100B2300013567AC02120135D4AC0212013514ADA4
:100B330002120135B0AD02120135E4AE02120135E5
:100B4300BFAF021201351EB002120135AAB0021264
:100B5300013518B102120135A4B102120135EAB10F
:100B6300021201355CB202120135EEB202120135F6
:100B73008FB302120135AFB302120135F7B302127C
:100B8300013540B4021201355CB40212013582B45E
:100B930002120135FCB4021201350AB50212013505
:100BA30099B50212013502B6021201357AC5031254
:100BB3000135FFC50312013541C60312013525C7AF
:100BC3000312013592C703120135D6C7031201354B
:100BD3001AC80312013547C8031201356FC803123F
:100BE3000135A7C803120135E5C8031201350CC945
:100BF3000312013586C903120135D0C90312013529
:100C03008CEE011201352BF00112013563F2011252
:100C13000135B7F201120135E2F201120135BEF3DB
:100C230001120135EEF3011201351DF401120135F4
:100C330030F40112013571F4011201359EF40112F1
:100C43000135ECF40112013528F5011201356DF57A
:100C530001120135BAF50112013534F601120135DD
:100C630075F8011201355FFA011201359BFA011281
:100C730001352AFC011201356FFC01120135E2FC3A
:100C83000112013537FD011201359BFD01120135BA
:100C9300BAFE01120135CBFE0112013594DF0212B7
:100CA30001350DE002120135C7E502120135D2E626
:100CB300021201357BE80212013509E902120135FE
:100CC30036A501120135B7A501120135E4A50112BC
:100CD30001352DA6011201352EA70112013587A773
:100CE3000112013503A90112013585A9011201354C
:100CF300A0A90112013511AA01120135CEAA0112D0
:100D0300013591AB011201351FAC01120135D6AC8F
:100D130001120135E9AC0112013582AD0112013531
:100D230019AE0112013540AE01120135A9AE01120F
:100D33000135F3AE0112013541AF01120135E8AFC0
:100D43000112013586B00112013513B101120135CB
:100D530084B101120135CBB10112013523B2011265
:100D6300013555B20112013516B30112013519B41B
:100D73000112013562B4011201357FB4011201354C
:100D83009EB401120135D1B50112013588B60112A5
:100D93000135ADB601120135C2B60112013532B7C4
:100DA3000112013573B70112013597B801120135EC
:100DB30018B90112013533E9021201357EE9021235
:100DC30001358AE9021201355EEA0212013575EA3C
:100DD30002120135B2EA02120135E3EA02120135C9
:100DE3001BEB0212013571EB0212013587EB021284
:100DF3000135C3EB02120135D6EB02120135FDEBCF
:100E03000212013531EC0212013557ED02120135A0
:100E1300A1EE021201359DEF02120135B3F0021269
:100E23000135F3FF011201358D8E02120135BC8E9F
:100E3300021201350E920212013565930212013539
:100E43002494021201358B9702120135779802120E
:100E53000135C99802120135E3980212013515993B
:100E63000212013520990212013529990212013526
:100E7300DB9902120135AB9A02120135F29A021282
:100E83000135589B02120135CA9B02120135E2CB90
:100E93000112013522CF0112013528CF011201358C
:100EA300E7D5011201350CDA01120135C2EA03124A
:100EB300013558EB031201356EEB03120135C7EB15
:100EC300031201350BEC0312013545EC0312013516
:100ED300DDEC031201354CED0312013555ED031220
:100EE300013561ED031201357BED03120135A5EDEB
:100EF30003120135BAED031201351CEE031201355D
:100F030043EE03120135F5D20312013502D3031266
:100F130001351CD3031201354FD3031201358DD391
:100F230003120135F2D30312013507D4031201353D
:100F330012D4031201351FD40312013536D4031220
:100F4300013544D4031201354FD4031201355BD468
:100F5300031201356AD40312013575D40312013526
:100F630098D4031201353CD5031201354CD5031235
:100F7300013566D50312013583D5031201359ED59C
:100F830003120135C3D503120135CED50312013542
:100F9300E3D503120135F7D50312013558D60312F1
:100FA30001355ED60312013564D6031201356AD6C4
:100FB3000312013582D603120135B5D6031201356A
:100FC3001E9D02120135B59D021201354D9E02127E
:100FD30001353D9F02120135749F02120135879F2F
:100FE30002120135F59F0212013590A1021201355B
:100FF300B7A10212013559A2021201358EA20212C3
:1010030001359FA20212013518A30212013539A33B
:101013000212013551A302120135A9A402120135AE
:10102300B2A60212013502A90212013505AA021263
:10103300013554AA02120135008002120135FD80E8
:1010430002120135E88102120135F28102120135E3
:1010530014820212013520820212013572830212B8
:101063000135A18302120135D184021201351385A2
:10107300021201353F86021201351587021201352E
:10108300678702120135C68702120135FD870212F6
:101093000135388802120135D38B02120135EC8BEE
:1010A300021201356E8C021201357C8C021201355D
:1010B300D18C02120135DF8C021201354C8D0212E4
:1010C3000135BE8D02120135048E0212013525B69B
:1010D3000212013547B60212013531B80212013549
:1010E300D6BB0212013519BD02120135F3BD02123E
:1010F3000135A98504120135CE85041201353F86D9
:1011030004120135BE8803120135C7880312013565
:10111300D08803120135018A03120135208C031292
:101123000135568C03120135908C03120135C68CA0
:1011330003120135008D03120135348D031201357D
:10114300608D03120135A98D03120135E38D03125E
:1011530001352B8E03120135818E03120135B68EB4
:1011630003120135118F031201354B8F0312013521
:101173009C8F03120135D28F031201350C90031299
:1011830001353A90031201355D90031201354893FE
:1011930004120135749304120135CF9304120135FF
:1011A300D99304120135E993041201353DDB03128F
:1011B300013574DB0312013591DB0312013575DC54
:1011C30003120135F6DC03120135CDDD03120135BF
:1011D300ABA503120135D2A50312013530A60312C4
:1011E3000135969404120135CE4D00120135DE50BF
:1011F30000120135735200120135EE52001201350F
:101203009A53001201353D5400120135D554001292
:1012130001350455001201359C59001201352E5A2F
:10122300001201356A5B00120135D45B00120135EF
:10123300885C001201353E5F00120135785F0012B1
:101243000135E25F001201353F60001201359C60F9
:1012530000120135F96000120135E4610012013515
:101263002A6200120135756200120135986200127C
:101273000135DF6300120135F36300120135626546
:1012830000120135A16500120135E1650012013537
:10129300346600120135556600120135936600125B
:1012A3000135D16800120135126900120135AD69AB
:1012B300001201351F6A00120135606B00120135FF
:1012C3004CAB03120135F2AB0312013537AD0312F8
:1012D3000135C0AD03120135ADAE03120135ECAEDD
:1012E3000312013556AF03120135C4AF03120135A2
:1012F3004E9604120135568D04120135668D041283
:1013030001357A8D04120135828E04120135DBF129
:101313000312013583F203120135C5F403120135BB
:10132300B09004120135EA9004120135FE900412C4
:1013330001353491041201354691041201357B9134
:10134300041201355F8704120135AE87041201359B
:10135300E08704120135728804120135EE88041205
:1013630001358F8A04120135C28A041201353E8B7E
:10137300041201355E8B04120135C38B041201354F
:101383000B8C041201350E8C0412013510CA0312A2
:10139300013529CA03120135BFCA03120135B0CB87
:1013A3000312013505CE0312013545CE0312013573
:1013B30087CE031201350089041201352E890412E8
:1013C30001355389041201351A8A04120135888EB6
:1013D30004120135D78E041201351C8F0412013516
:1013E300F87F00120135E0F403120135C6F603124B
:1013F300013532F7031201357DF703120135D0F2BF
:1014030002120135FBF202120135FBF4021201351F
:10141300FBF602120135AAF7021201355CFB021238
:101423000135C7FB02120135EDB00312013537B1A7
:101433000312013587B1031201352DB203120135B1
:10144300DBB203120135FAB20312013519B30312E9
:10145300013547B3031201357AB303120135F1B3F2
:101463000312013571B4031201350BB503120135B3
:10147300C0B503120135F1B50312013521B60312CC
:1014830001354FB60312013571EE03120135DEEE5D
:1014930003120135FFEE0312013537F00312013554
:1014A30061F1031201357EF10312013572CB021291
:1014B300013596CB02120135BECB02120135E6CBC4
:1014C300021201350ECC0212013532CC0212013563
:1014D30056CC021201357ACC021201359ECC02128F
:1014E3000135D0CC02120135F4CC021201351ECDE8
:1014F30002120135BACD02120135E0CD02120135D7
:1015030006CE021201352BCE0212013550CE021245
:10151300013575CE021201359BCE02120135C3CEC1
:101523000212013501CF021201352DCF021201350E
:1015330059CF021201357FCF02120135B8CF021203
:101543000135E0CF0212013519D00212013541D025
:10155300021201357AD002120135A2D002120135EE
:10156300C8D002120135EDD0021201352CD102127E
:10157300013550D1021201357AD10212013549D217
:1015830002120135E1D30212013531D402120135C1
:1015930045D50212013564D50212013588D50212F0
:1015A3000135F88104120135298204120135538271
:1015B30004120135148304120135728304120135B8
:1015C300EB90031201350091031201355C91031274
:1015D3000135C791031201350F9203120135819230
:1015E30003120135AA9203120135B8920312013591
:1015F3001A9303120135589303120135739303129F
:1016030001350E9403120135B794031201353A954F
:1016130003120135739503120135FE95031201354B
:10162300559603120135B39603120135C59603127D
:101633000135EB9603120135F496031201354F98E9
:10164300031201358AFC03120135F1FC0312013543
:10165300AEFD031201352CFE0312013539E30312EB
:1016630001356CE3031201359EE403120135E2E414
:1016730003120135BEE5031201351C8C041201353A
:10168300FA8C0412013580F703120135C5F70312F2
:1016930001350BF803120135D4F9031201359F917B
:1016A30004120135BA9104120135CA9104120135AD
:1016B3002F9204120135F39304120135ACD50212B3
:1016C300013588D602120135CFD6021201350CD767
:1016D300021201357AD702120135D4D7021201352D
:1016E30044D80212013514D90212013503DA021269
:1016F30001357ADA0212013516DC02120135A3DC58
:101703000212013516DD0212013592DD0212013596
:10171300A9DD02120135CEDE0212013528DF0212E5
:101723000135719F03120135919F0312013597A073
:1017330003120135E3A00312013503A1031201359E
:1017430056A103120135C3A10312013509A20312E5
:1017530001356DA20312013519A5031201359AA5AE
:1017630003120135946B00120135C170001201356B
:10177300C47300120135ED730012013504740012B5
:1017830001352D7400120135DF7400120135C8765E
:10179300001201351378001201352C78001201353F
:1017A300637D001201359C7D00120135E07D00123E
:1017B3000135F17E00120135818A01120135B190A4
:1017C30001120135769101120135A0930112013501
:1017D300419A011201356C9A01120135609B011285
:1017E3000135A29B011201356E9D01120135E09D69
:1017F30001120135B19E011201357E9F011201359F
:101803000CA00112013520A001120135FFA2011223
:10181300013584FE03120135F6FE03120135EEFE97
:10182300011201359AFF011201358F95041201351A
:10183300B17F00120135DB9504120135C5FF031298
:101843000135079604120135309604E066701008DE
:10185300A3E066700A08A3E066700408A3E06622AA
:10186300C3E7960809E7960809E7960809E7962269
:10187300C3E09608A3E09608A3E09608A3E09622A7
:10188300C008C3E096F50808A3E096420808A3E061
:1018930096420808A3E09645087001D3D0082208B1
:1018A3000808EAC0E0EBC0E086F0E7A4FA1809866E
:1018B300F0E7A42AFA180986F0E7A42AFA18098699
:1018C300F0E7A42AFA1986F0E7A4FBE5F02AFA194F
:1018D3000886F0E7A42BFBE5F03AFA190886F0E74F
:1018E300A42BFBE5F03AFA18180986F0E7A4C5F033
:1018F3002BFBE43AFA1908E7C5F0C6A426F6E5F08F
:101903003BFBE43AFA1886F0E7A4F6E5F00826F67E
:10191300E43B08F6E43A08F6D0E0FBD0E0FA22E430
:10192300CFC0E0E4CEC0E0E4CDC0E0E4CCC0E075DD
:10193300F020E626F608E633F608E633F608E63343
:10194300F6181818EC33FCED33FDEE33FEEF33FFDE
:10195300C3EC9709ED9709EE9709EF971919194009
:101963000FFFEC97FC09ED97FD09EE97FE19190699
:10197300D5F0BFECF709EDF709EEF709EFF7191901
:1019830019D0E0FCD0E0FDD0E0FED0E0FF226016ED
:10199300080808C6C313C618C613C618C613C61844
:1019A300C613C6D5E0EA2270090808082260161893
:1019B3001818C6C333C608C633C608C633C608C616
:1019C30033C6D5E0EA22E627F60809E637F6080922
:1019D300E637F60809E637F622E026F608A3E036EE
:1019E300F608A3E036F608A3E036F622E026F00870
:1019F300A3E036F008A3E036F008A3E036F022C3F4
:101A0300E697F60809E697F60809E697F60809E661
:101A130097F622C3E096F008A3E096F008A3E096B9
:101A2300F008A3E096F022E056F608A3E056F60885
:101A3300A3E056F608A3E056F622E056F008A3E02A
:101A430056F008A3E056F008A3E056F022E647F666
:101A53000809E647F60809E647F60809E647F622C5
:101A6300E0F608A3E0F608A3E0F608A3E0F622E612
:101A7300F008A3E6F008A3E6F008A3E6F022E0FAF4
:101A8300A3E0FBA3E0FCA3E0FD22EAF0A3EBF0A3B9
:101A9300ECF0A3EDF022E0F8A3E0F9A3E0FAA3E071
:101AA300FB22E8F0A3E9F0A3EAF0A3EBF022CAC01B
:101AB300E0E6F0A308DAFAD0E0FA22CAC0E0E0A335
:101AC300C582CCC582C583CDC583F0A3C582CCC5F1
:101AD30082C583CDC583DAE6D0E0CA22C3E498F891
:101AE300E499F9121B208026C3E49AFAE49BFBE9EC
:101AF30020E7E9121B20E498F8E499F922C3E4985B
:101B0300F8E499F9121B20E498F8E499F9C3E49AEC
:101B1300FAE49BFB22EB20E7CFE920E7E0B90010D2
:101B2300BB0008E88AF084F8AAF022E4FBC8FA2292
:101B3300EB70227B10C833C8C933C9335007C39A2B
:101B4300C3DBF280069A50012ADBEAC833F4C8C922
:101B530033F4C9FA2275F008E4C833C8C933C9336A
:101B6300C99AC99B5004C92AC93BD5F0ECFBC833B9
:101B7300F4C8E4C9FA22600D08C6A2E713C618C662
:101B830013C6D5E0F322600C08C6C313C618C613E8
:101B9300C6D5E0F422700422600D18C6C333C6080C
:101BA300C633C6D5E0F41822251810AF08F518403F
:101BB3000C15198008F51840021519D2AF2200C080
:101BC300D0251810AF08F518500C05198008F51822
:101BD30050020519D2AFD0D0222518F58210AF08D4
:101BE300F518400C15198008F51840021519D2AFE5
:101BF300851983222518F582E43519F583222518E2
:101C0300F8E43519F9222518FAE43519FB222518C9
:101C1300FCE43519FD22E4732518C582C0E0E519FB
:101C230034FFC583C0E0E518C3958224F810AF08DC
:101C33008583198582188008858319858218D2AF18
:101C4300CEF0A3E520F0A37808E608F0A3DEFAEFD0
:101C5300F0A3E58124FAF8E608F0A3E608F0A3E68A
:101C630008F0A30808E608F0A3E608F0A315811519
:101C730081D0E0FED0E0F8158115811581E8C0E040
:101C8300EEC0E0222518C582C0E0E51934FFC58304
:101C9300C0E0E518C3958224F910AF088583198540
:101CA30082188008858319858218D2AFCEF0A3E508
:101CB30020F0A37808E608F0A3DEFAEFF0A3E581AD
:101CC30024FBF8E608F0A3E608F0A30808E608F00A
:101CD300A3E608F0A315811581D0E0FED0E0F81546
:101CE300811581E8C0E0EEC0E02285198385188262
:101CF300E0A3FEE0A3F5207808E0A3F608DFFAE00E
:101D0300A3FFE0A3C0E0E0A3C0E0E0A3C0E0E0A342
:101D1300C0E0E0A3C0E010AF088582188583198076
:101D230008858218858319D2AFD083D0820201320D
:101D3300851983851882E0A3FEE0A3F5207808E0E7
:101D4300A3F608DFFAE0A3FFE0A3C0E0E0A3C0E04E
:101D5300E0A3C0E0E0A3C0E010AF0885821885834C
:101D6300198008858218858319D2AFD083D0822247
:101D7300C0D02518C582C0E0E51934FFC583C0E093
:101D8300E518C3958224F310AF088583198582185B
:101D93008008858319858218D2AFC8F0A3E9F0A320
:101DA300EAF0A3EBF0A37908E709F0A3D8FAECF083
:101DB300A3EDF0A3EEF0A3EFF0A3D0E0F0A3D0E007
:101DC300F0A3D0E0F0A3E520F0A3E5F0F0A3228593
:101DD3001983851882E0C0E0A3E0F9A3E0FAA3E049
:101DE300FBA37808E0F608A3DFFAE0FCA3E0FDA379
:101DF300E0FEA3E0FFA3E0C0E0A3E0C0E0A3E0F5C2
:101E0300D0A3E0F520A3E0A3F5F010AF0885831974
:101E13008582188008858319858218D2AFD082D035
:101E230083D0E0F8D0E03274048006740280027438
:101E330001C0E0F404121BDCD0E0121AB1227404D6
:101E4300800474028000CCC0E0EDC0E0E518C39CC0
:101E5300CCAD1950011D10AF068C188D1980068C5E
:101E6300188D19D2AF121ABED0E0FDD0E0FC22D0FB
:101E730083D082E9C0E0E493A3C386F0C5F095F074
:101E8300F908E493A386F0C5F095F0700BE493A3EF
:101E9300C3994005E9048002A3E475F002A42582F6
:101EA300F582E5F03583F583D0E0F9E493A3C0E050
:101EB300E493C0E022D083D082ECC0E0EDC0E0E444
:101EC30093A3FCE493A3FDED4C600D121F04EC24DB
:101ED300FFFCED34FFFD80EFE493A3FCE493A3FD4B
:101EE300ED4C600D121F43EC24FFFCED34FFFD802D
:101EF300EFD0E0FDD0E0FCE493A3C0E0E493C0E0C6
:101F030022C0E0C3E49396087401939618400FE44B
:101F13009366700808740193661870007019A3A380
:101F2300C3E49396087401939618A3A3400DD0E0DD
:101F3300D0E0D0E0021EF4A3A3A3A3A3A3D0E02286
:101F4300C0E0C0F088F0E4936670080874019366FB
:101F5300187000A8F0A3A3700BD0F0D0E0D0E0D0AD
:0B1F6300E0021EF4A3A3D0F0D0E022A7
:101F700074F6121C87EAFEEBFF8C088D09EE243400
:101F8000F8E43FF9E8FCE9FDEE24351222AAFAEE66
:101F900024371222AAF88508F0A4C885F00A85091A
:101FA000F0A4250AF9EA28F8E439F97A257B001229
:101FB0001B20EA8C828D83F0FA131313541FF8EE62
:101FC00028F8E43FF9E8245DF582E439F583E0C0C0
:101FD000E074075AF8D0E0B800028004C313D8FCBC
:101FE000A2E0EE50082434F582E43F801824361233
:101FF00022AAF5F0EA84A8F0EE28F8E43FF9E824F4
:1020000038F582E439F583E0F97F03021D3374F774
:10201000121C87EAFEEBFFEE24341222AAC0E0EE87
:102020002435F582E43FF583D0E0F08E828F83A3E0
:10203000A3A3A3A3A3A3C082C0838E828F83A3A3E1
:10204000A3A3A3122113D083D082E0C398F508A3E1
:10205000E099F509EE247F1222AA6401705DEE2456
:102060008012210D8E828F83A3A3A3A3A3A3A31207
:10207000244D8E828F83A3A3A3A3A3E0FAA3E0FB46
:10208000C3EA9CEB9D5010C3EC98ED99402DC3EA38
:1020900098EB995026800EC3EA98EB994007C3EC61
:1020A00098ED9940167CB07D04EEFAEFFB120D62BC
:1020B000EE247FF582E43FF583E4F0AC08AD09EE51
:1020C000FAEFFB121F70E9F9122CF27F02021D33A6
:1020D000C082C083851882851983122113C3EA9CAC
:1020E000EB9D5010C3EC98ED99401BC3EA98EB9917
:1020F0005014800EC3EA98EB994007C3EC98ED9911
:102100004004790180027900D083D08222F582E4F4
:102110003FF583E0F8A3E0F922EAC39CFAEB9DFBCC
:102120002274EF121C87900376E064086005E06477
:1021300007702A9061C8E060249003A4E0F4601D59
:10214000E0F875F00AA4C8AAF02AF974A628FE746B
:102150000339FF8E828F83A3A3A3E0700302222F93
:10216000906060E0C0E0EE2468F582E43FF583D043
:10217000E0F0750C20750D05750800750900E5D9AE
:1021800014F50AE5D95403F50E60127403650E6068
:1021900043E50A600AEE24671222AA700280759055
:1021A000051BE06401601F1222A760047A0480020C
:1021B0007A00E50AC39AFA95E0FB120C128A088BA2
:1021C00009EA45097005120FA280641222A7700463
:1021D0008A0C8B0DE50A6012850C82850D83F50B48
:1021E000E5D9F0A3150BE50B70F61222A760447435
:1021F000FC250AF50A780C121E2EAC0AA90EEEFA7E
:10220000EFFB120E1C7402121BC1E97026AA08AB68
:102210000912164A793D8E828F83A3A3A3A3E0FA05
:102220007B00120A74EEFAEFFB120D86120E2E7965
:1022300000806F7403650E6051850A107511007877
:1022400010121E2EAC0CAD0DAA08AB09120DE074D5
:1022500002121BC1EE24681222AA64807004747FEB
:102260008001E0F50C780C121E32E50EF50C780CAE
:10227000121E32A90AAC08AD099003A4E0FA7B0053
:10228000120A4A7402121BC18013900376E064089C
:10229000600BAC0CAD0DEEFAEFFB120EA0120FAE00
:1022A00079017F0A021D33EE2482F582E43FF58333
:1022B000E02274F2121C8774FC121BABEAFEEBFFE7
:1022C0008909A2AFE433F508C2AF02236EE0601BB8
:1022D000780C121E2EAC0BA90EEEFAEFFB120E16A6
:1022E0007402121BC17404250BF50B7401250BF548
:1022F000D9850ED9E50B6018F50A850C82850D830A
:10230000E0F5D9A385820C85830D150AE50A70EAEC
:1023100075E195EE2463F8E43FF97A007B00A2AF03
:10232000E433F50BC2AF122449EC4D603288828948
:1023300083E0FAA3E0FB8A828B8312244D88828992
:1023400083ECF0A3EDF08A828B83E4F0A3F01224F7
:1023500049EC4D700A88828983A3A3E4F0A3F0E5D9
:102360000BA2E092AF12164A9004B7E004F0EE24FC
:102370006312210DE8496064EE24631222AA24024C
:10238000F8A3E03400F988828983E5822402F50C01
:10239000E43583F50DE0F50BA3E0F50EEE246212B3
:1023A00022AA640170369061D0E0F81222A760047E
:1023B0007C0480027C007480C398FA95E0FBE50BF6
:1023C0002CF8E43400F9E82402F8500109C3EA9833
:1023D000EB99A2D265D03340030222CD9004B7E03E
:1023E000604D9004B8E0F89004B7E0C398500C74C6
:1023F000026509703A9004B9E060348E828F83A33D
:10240000A3A3A3E085188285198312243F740212C6
:102410001BF7E812243F9004B6E028F07402121C67
:1024200011AA18AB197901120A9E9004B7E4F0E5DD
:1024300008A2E092AF7404121BC17F07021D33F0A3
:10244000A3E4F09004B7E0F82288828983E0FCA33B
:10245000E0FD22008521878522C622C0E074EB12B0
:102460001D73A2AFE433F508C2AF759B0090618283
:10247000E0A2E05030E591A2E0502A7591FE74018F
:10248000652170211225EE120EEE1225DC121E417E
:10249000122A9C7404121BC1E964017005790112AF
:1024A0000F36122121906182E0A2E5505DE591A2F4
:1024B000E550577591DF900376E064076005E064AE
:1024C00008702F1225EE74016521703E120EEE1277
:1024D00025DC121E41122A9C7404121BC1E96401FE
:1024E00070057901120F367901EEFAEFFB1222B274
:1024F0008018E0640D7013900398E004F064287075
:1025000002E4F07A00E0F9120FB4906182E0A2E6F2
:1025100040030225B1E591A2E640030225B1759181
:10252000BF900376E064057008120ED6120EE280AA
:1025300003120EDC752100120F42E9900377F07947
:1025400000120F36120CD27A017B00900375E0F96D
:1025500012161A907803E06442705690051FE0143A
:10256000F0704EC2AF12256800782AD0E0F618D07D
:10257000E0F6E59F5407F87005750DFF8003750DB3
:102580007FC4C0E07829E6F50A08E6550DF50B741E
:102590000B780A121B89D0E0250AF8906270E0A23D
:1025A000E740F8E8C333906272F0906270E0D2E0E6
:1025B000F0906181E0A2E35009E5E9A2E3500375E0
:1025C000E9F7A3E0A2E75009E591A2E7500375916E
:1025D0007FE508A2E092AF7F08021DD28E828F8332
:1025E000E0F8A3E0C82416F582E438F583229003CE
:1025F000A4E0F875F00AA4C8AAF02AF974A628FE87
:10260000740339FF22C0E0C0D0C082C083906183D0
:10261000E0A2E05009E5BFA2E0500375BFFEE0A2D2
:10262000E15009E5BFA2E1500375BFFDE0A2E25011
:1026300009E5BFA2E2500375BFFBE0A2E35009E544
:10264000BFA2E3500375BFF7E0A2E45009E5BFA2C3
:10265000E4500375BFEFE0A2E55009E5BFA2E550E5
:102660000375BFDFE0A2E65009E5BFA2E65003759F
:10267000BFBFD083D082D0D0D0E032C0E074F2129D
:102680001D73E5A7A2E6500FE5A1A2E6500953A7E6
:10269000BF75A1BF1226CFE5A7A2E5500CE5A1A208
:1026A000E5500653A7DF75A1DFE5A7A2E15009E5D4
:1026B000A1A2E1500375A1FDE5A7A2E2500CE5A19E
:1026C000A2E2500653A7FB75A1FB7F01021DD27445
:1026D000F7121C87752101900376E06406701512CD
:1026E0000E528A828B83A3A3A3A3A3A3E0FAA3E041
:1026F000FB120EC4A2AFE433FED2AF90037CE064C1
:102700000170187A207B00900375E0F91217467A61
:10271000207B00900375E0F9121620906182E0D2D0
:10272000E6F090051CE0602185C622801690037BB0
:10273000E064017008E5C654F84405F5C653BEFCD4
:102740001224547401652160E4EEA2E092AF7F028E
:10275000021D33008E238F248582288583278518C8
:1027600082851983E0CEA3E0CF852882852783EB7D
:10277000C9EAC8EDCBECCA75F010C3E833C8E93339
:10278000C9EA33CAEB33CBC3EA9EF526EB9FF525A6
:10279000B35004AB25AA26EC33CCED33CDD5F0DA1B
:1027A000AE23AF242274E9121C8774FA121BABEA21
:1027B000FEEBFF8C0A8D0B120EFAEAF8EBF9ECFA3D
:1027C000EDFB8E828F83121AA5900376E024F7C367
:1027D0009405500675140102290C120E528A088BBA
:1027E00009EA45097003022909EEFCEFFDAA18ABBE
:1027F00019120EF4850882850983A3A3780C121A96
:10280000639089C6780C121A2A85188285198378F4
:1028100010121A639089C67810121A2A780C79104F
:10282000121863501F780C7910121A029089EE78F2
:102830000C1218834047850C14850D15850E1685DE
:102840000F1780459089EE85101485111585121695
:102850008513177814790C121A0278141218835001
:102860001C7514007515007516007517017814791C
:1028700010121A027814790C1219C9800C751401FF
:10288000751500751600751700740978141219AAC9
:10289000908A16780C121A637814790C1219228512
:1028A0000882850983A3A3A3A3A3A312292A121B29
:1028B00020880C890DE4F50EF50F7814790C1219A7
:1028C000C97404121BF712292A121B20E8FA8A0C79
:1028D000E4F50D7814790C12186350077814790C0C
:1028E000121A02900376E06408600AE0640660054C
:1028F000E0640570209089E67814121883501690D1
:1029000089D278141219DC800C75140075150075C5
:102910001600751700850A82850B837814121A72C7
:102920007406121BC17F10021D33E0F8A3E0F97A90
:10293000D07B032274F7121C87120F0C90051AE04B
:1029400064017010906245E4F0A3F053F4F343FE89
:102950000C5390F3120EB2E5C654B84441F5C6E5E7
:102960009E5447644170F8906185740FF09005188B
:10297000E0F47002A3E0604E900519E06008146076
:102980001B14602E8040750801750900900518E041
:102990007808121B98E508F45280802A75080175A2
:1029A0000900900518E07808121B98E508F4529089
:1029B0008014750801750900900518E07808121B4D
:1029C00098E508F452A079007F02021D3374F712D3
:1029D0001C87E9FEEAFF120F0C74016E700C7A80FE
:1029E0007B00900375E0F912161A902DB0E493F471
:1029F0006008E493F9120CC6800953C6B8E59E54EA
:102A00004770FA120EB890051AE064017003120CB8
:102A1000E4900518E0F47002A3E0604B900519E023
:102A2000600814601A14602C803D75080175090057
:102A3000900518E07808121B98E5084280802875F8
:102A40000801750900900518E07808121B98E50840
:102A500042908013750801750900900518E0780808
:102A6000121B98E50842A0120E528A088B09A8088A
:102A7000A909E8496014E5E170FCE82414F582E452
:102A800039F583E0F46003E0F5E174016F700A7AD0
:102A900001900375E0F91216AA0229C874F1121CFC
:102AA000878A088B098C0A8D0B9089C67808121AC0
:102AB0002A740F121BF7780C121A639089C6780CCF
:102AC000121A2A7808790C1218639089EE5010783F
:102AD00008790C121A0278081218834014800E78B4
:102AE0000C7908121A02780C1218835004790180AC
:102AF0000279007F08021D3374ED121C878A088B4F
:102B0000098C0A8D0B9089C67808121A2A74131240
:102B10001BF7780C121A639089C6780C121A2A785F
:102B20000C790812186340117808790C121A02AA5D
:102B300008AB09AC0AAD0B80227510007511007549
:102B400012007513017810790C121A0278107908A6
:102B50001219C9AA10AB11AC12AD137F0C021D33B0
:102B60009089C67808121A638A828B837808121AB1
:102B70003D7F04021D3374F5121C878C828D83788F
:102B800008121A638A828B837808121A16122BCEC7
:102B9000C3E09CF0A3E09D122BC040229089FA78FC
:102BA00008121A638A828B8378081219EF8A828B43
:102BB00083A3A3A3A3E02420F0A3E0344EF080A0DD
:102BC000F088828983C3E09420A3E0944E22EA2413
:102BD00004F8E43BF98C828D83A3A3A3A3E0FCA3B8
:102BE000E0FD888289832274F5121C87E9FE900437
:102BF000D2E0FAA3E0FBEE29F8E433F974E828F513
:102C000082748839F583E02AF508A3E03BF509785A
:102C100008121E2E9089D6121A811227547402129D
:102C20001BC18A088B098C0A8D0B74107808121945
:102C300091AA08AB097F04021D3374F1121C878A24
:102C40000C8B0D8C0E8D0F7411121BF7121E457418
:102C500011121BF7E02401F508A3E03400F509E4A4
:102C6000F50AF50B780C79081218A29089B6780845
:102C7000121A63780C79081218A2AA0CAB0DAC0ECC
:102C8000AD0F1227547402121BC18B09EA4509606B
:102C9000047A0180027A00EC2AFCE43DFD741312F0
:102CA0001BF7E0F8A3E0F9E8FEE9FFECF8EDF97AAC
:102CB000717B02121B2088088909E4F50AF50B8E46
:102CC000828F837808121A72ECF8EDF97A717B0220
:102CD000121B208A088B0974057808121B988E82B3
:102CE0008F83A3A3A3A3E508F0A3E509F07F08025F
:102CF0001D33C082C083E9906000F0D083D082226F
:102D0000C0E074F2121D73A2AFE433FED2AFE589C6
:102D1000A2E0500312137A758900C2C5EEF8EEA244
:102D2000E092AF7F01021DD2C0E074F2121D73A2C7
:102D3000AFE433FED2AFE58AA2E64006E58AA2E719
:102D4000500312137A758A00758A00C2EBEEF8EE12
:102D5000A2E092AF7F01021DD2C0E0C0D0E8C0E087
:102D6000E9C0E0A2AFE433F8D2AF758B00C2E8E867
:102D7000F9E8A2E092AFD0E0F9D0E0F8D0D0D0E00E
:102D800032C0E0C0D0E8C0E0E9C0E0A2AFE433F870
:102D9000D2AFC2C7751A00E8F9E8A2E092AFD0E05E
:0F2DA000F9D0E0F8D0D0D0E032C2AF020000226C
:102DB000FFFFFFFFFFFFFFFFC082C083E99016F017
:102DC000F0D083D08202013274F6121C1BE990020B
:102DD000E8F0900348E0F5087509007402780812DD
:102DE0001B98AA08AB091216929002E912377B9041
:102DF00002E9123B68606F900348E075F003A4FAA3
:102E0000ABF012169290030612377B900306123B2A
:102E100068700B9002E9123B3912169880489003B3
:102E200006124ACD7AFF7BFF1212C07A0080198AFF
:102E30000875090074027808121B9812457574FF12
:102E4000122F7BE4F0A3F00A900348E0F8EAC3985D
:102E500040DD790512093C9002E8E0F91208287A71
:102E6000C67B09120BB202461874F4121C1B8A08A6
:102E70008B09EB548060479002E8E0F91216028A51
:102E80000A8B0BAE0AAF0BEE4F602A8E828F83E067
:102E900064B0701A12094EE960148E828F83A3A366
:102EA000A3A3E0F9EE2405FAE43FFB12091EEEFAB3
:102EB000EFFB1215F0AA08E5096480FB80047A0094
:102EC0007B000230CB74F2121C1B74FB121BABEAAA
:102ED000FEEBFFEE4F60457403121BF7EEF0A3EF1D
:102EE000F0851882851983ECF0A3EDF07402121BB3
:102EF000F7E9F0AA18AB19120822E9F50870757401
:102F000013121BF7E0F50AA3E0F50BE50A450B6089
:102F1000638E828F83123504EE4F70057508028030
:102F2000537A067B001216928A0C8B0DA80CA90D01
:102F3000E8497005750813803B88828983E4122F65
:102F40007BEEF0A3EF123097E50AF0A3E50BF090CB
:102F500002EC1230909002EC6017E0FCA3E08003DA
:102F6000EAFCEBFD8C828D8312309070F38C828DA5
:102F700083124190A9087405024D4DF0A3124AAF87
:102F8000A32274F2121C1B8908890C750D007403AE
:102F9000780C121B98850C0A850D0B9002EBF090B3
:102FA00002E9123F9B12308E602E12169879008033
:102FB0001D890C750D007402780C121B989002E9A3
:102FC0001244348882F583A3A3E4F0A3F0099003AC
:102FD00048E0F8E9C39840D9900348E0FA850AF040
:102FE000A4CAA8F0850BF0A428FB1216928A0C8BB9
:102FF0000DAE0CAF0DEE4F7003023084900348E02D
:10300000FC850AF0A4CCA8F0850BF0A428FD79007B
:103010001215DE7C0080318D0C750D007403780C68
:10302000121B988A828B8312308988828983E4F00C
:10303000123096A3A3F0A3F00DEDC3950840D8EE8F
:10304000250AFEEF350BFF0C900348E0F8ECC3981F
:1030500050288C0C750D007402780C121B9890028D
:10306000E9123089E82402500109FAE9FB8A828BCF
:1030700083EEF0A3EFF07D0080BFE5089002EBF057
:10308000790080027913024D50124438F922A3A32B
:10309000123B3DEA4B22A3124AAFA3A3A32274F42E
:1030A000121C1B7900EAA2E0501F750846750989B9
:1030B0007808121E2E79107C047D007AF27B16129D
:1030C00009367402121BC1E9F980007F04021CED6D
:1030D000C082C0839002EC123B68601C88828983A6
:1030E000A3A3E06A7003A3E06B8882898370E8A3DE
:1030F000A3A3A3123B3980047A007B00022DC17484
:10310000F2121C1B74FD121BABEAFEEBFF8518824A
:10311000851983E4F0A3F07402121BF77401F01216
:103120003B657014120AEC1216929002EF12377B74
:10313000123B65700302329112387BEE2404F50ACB
:10314000E43FF50B850A82F583E024FE603C24FC15
:10315000607424FE607E24FE70030231E124FE7060
:10316000030231EE24FE70030231FB24FE700302E1
:10317000320824FE700302321524FC70030232363A
:1031800024FE700302324E02328A120AEC9002F1DF
:10319000EAF0A3EB12329D12056AE9600302328A5B
:1031A0009002F1121E458E828F83A3A3A3A3A312C4
:1031B0004ACD850882850983123B391209067402BB
:1031C000121BC102328AAC18AD19EEFAEFFB1209DC
:1031D00054023259AC18AD19EEFAEFFB12095A80BD
:1031E00078AC18AD19EEFAEFFB120960806BAC18E1
:1031F000AD19EEFAEFFB120966805EAC18AD19EE60
:10320000FAEFFB12096C8051AC18AD19EEFAEFFB26
:1032100012097280447402121C01880C890D780C0A
:10322000121E2E7402121C11EEFAEFFB12097874B2
:1032300002121BC18023AC18AD19EEFAEFFB120984
:103240007EE9F870167402121BF7E4F0803CAC18AB
:10325000AD19EEFAEFFB120984E9F8E8602C8E82D2
:103260008F83A3E064146022850A82850B83E0903B
:1032700002F1F0851882851983123B399002F2120F
:10328000377BE8A312329D120564EEFAEFFB1208B9
:10329000DC7402121BF7E0F97403024D4DF07CF16F
:1032A0007D02850882850983123B3D2274E8121C49
:1032B0001B74FA121BAB7404121BF7ECF0A3EDF0B5
:1032C0008A128B13EA2405F50EE43513F50FEA2470
:1032D00002F510E43513F511851082F583123B39A0
:1032E00012065A8A0A8B0B7508007C037D00790050
:1032F0007AF17B021215DEE50E2402F516E4350F95
:10330000F5177402121C01880C890D780C121E2E00
:10331000850E82850F83A3A3A3A3E0F50C750D0092
:10332000780C121E2EE50E2405F50CE4350FF50D74
:10333000780C121E2E851682851783123E401208C5
:10334000407406121BC18A0C8B0DE50C450D7003F1
:103350000234CD8020851882851983E08882898394
:10336000F00508851882851983A3E0C0E012350EA8
:10337000D0E0F00508E50A24FBFAE50B34FFFBC3B7
:10338000E5089AE49B40030234CD7E007F0085125D
:1033900082851383A3A3A3A3E0F5097809121E3243
:1033A000E4F514F5157814121E2E7514EE75150239
:1033B0007814121E2E9002EF121E457409121BF78C
:1033C000121E45E50A24F9F9AC0CAD0D8510828575
:1033D0001183123B391209AE7409121BC1E9600353
:1033E00002346E850E82850F83A3A3A3A3A3A3A398
:1033F000E0F89002EEE0687075E0F5148E15781430
:10340000121E2E124ACA850E82850F83A3A3A3A380
:10341000A3A3A3A3123B391215D87402121BC1E94E
:10342000604C9002F2123B68703BE4F51478141281
:103430001E2E7CFF7DFF7907851082851183123B4C
:10344000391209187402121BC1123B6E7017850ED7
:1034500082850F83124C677404121BF712452812E1
:103460003E71023501850C82850D83123504A81842
:10347000A919881489157814121E2E7404121BF7CA
:10348000121E4585168285178312377112084C74F7
:1034900004121BC18A0C8B0DEE4F700302334A12CB
:1034A000350EEE123519123E27EF123519F8A3E04A
:1034B0003400F9E50C450D60030233558882898399
:1034C00074FFF0050812350E74FFF00508E508607A
:1034D0001A1313543F123781120576E960099002DE
:1034E000F2123B3912164A79008016850E82850F3A
:1034F00083124C677404121BF7124528124190790D
:103500000A023DFAA3A3A3A3E0FEA3E0FF22A808BA
:103510009002F2E028123E2722F00508089002F2FD
:10352000E0282274E8121C1B74FA121BAB740212FE
:103530001BF712377B7404121BF7ECF0A3EDF07449
:1035400002121BF7E02405123E10E0F50CA3E0F593
:103550000D7402121BF7E02402F510A3E03400F50D
:1035600011851082F583123B3912065A75080075D1
:103570000900EA24FCFEEB34FFFF8008050CE50C93
:103580007002050DA808C3EE98EF940050030237AF
:103590002DA818A919880E890F780E121E2E8514D1
:1035A00082851583A3A3A3A3124AD1121E2EE5146C
:1035B0002405F50EE43515F50F780E121E2E851430
:1035C0008285158312376F1208407406121BC18A58
:1035D0000E8B0FEA450F700302372DEA2404F5160F
:1035E000E4350FF517851682F583E0F50CA3E0F5B9
:1035F0000D851882851983124ACD8A828B83A3A3F5
:10360000A3E0F9851082851183123B3912082EE957
:10361000F509600302372D7402121BF7123E37F5CD
:10362000097809121E32E4F512F5137812121E2ED3
:103630007512EE7513027812121E2E9002EF121EF2
:10364000457407121BF7121E45EEF9AC0EAD0F853F
:103650001082851183123B391209AE7409121BC105
:10366000E9F509600302372DE508703FE4F50EF532
:103670000F780E121E2E7CFF7DFF79098510828542
:103680001183123B391209187402121BC1123E5DDC
:10369000700D7404121BF7123764791102376190B0
:1036A00002EEE024029002F2F080149002F2E0FABE
:1036B0009002EEE0790024025001096A497072A874
:1036C000089002EEE0FAE82AFAE43400FBEE9AEF02
:1036D0009B405A851682851783E0C0E09002F31262
:1036E0003513D0E0F00508851682851783A3E0C066
:1036F000E0089002F3123513D0E0F005089002EED6
:10370000124AD1121E2E124ACAA808123E041215DD
:10371000C67402121BC19002EEE02508F50874FF82
:10372000650C700474FF650D600302357CE508606C
:103730001F9002F2E0F5F0E5088412378112057C53
:10374000E960099002F3123B3912164A79008011A0
:10375000E509700375090A7404121BF7123764A98E
:1037600009023DFA123F9FE50CF0A3E50DF022A3FC
:10377000A3124D5CAA0CAB0D22A3A3EAF0A3EBF0BD
:10378000229002F1F07CF17D028510828511831276
:103790003B3D2274EC121C1B74FC121BAB1242A0AA
:1037A0007402121C11123B331208468A0C8B0DEA6C
:1037B000450D700302386B12387BA818A9198810C0
:1037C00089117810121E2E7CFF7DFF790B850882EF
:1037D000850983123B391209187402121BC1123970
:1037E00071700C850A82850B83123E6E0238788ECA
:1037F000828F83A3A3A3A3E0F5127812121E32E4F2
:10380000F512F5137812121E2E7512F17513027847
:1038100012121E2E7810121E2E7409121BF7121E81
:10382000457409121BF7E0F9AC0CAD0D85088285D3
:103830000983123B391209AE7409121BC1E9FE70EB
:10384000157CF17D02850882850983123B391205BA
:1038500082E97009802074166E70027E009002F278
:10386000123B3912164AEE7004800B7E01850A82E3
:10387000850B8312418DEEF90241A2EE2402F50878
:10388000E43FF5092274EC121C1B74FC121BABEA1A
:10389000FEEBFF8C0E8D0FEE2405F508E43FF509D5
:1038A0007402121C11850882850983123B391208A3
:1038B000468A0C8B0DEA450D7003023961EE240235
:1038C000F50AE43FF50BA818A9198810891178109A
:1038D000121E2E7CFF7DFF790D123B3312091874E6
:1038E00002121BC1123971700B850882850983127F
:1038F0003E6E807A8E828F83A3A3A3A3E0F5127815
:1039000012121E32850882850983A3A3121E4575F3
:1039100012F17513027812121E2E7810121E2E74D8
:1039200009121BF7121E457409121BF7E0F9123B2E
:103930002F1209AE7409121BC1E9FE700F7CF17DD4
:1039400002123B33120588E97009802074166E70EC
:10395000027E009002F2123B3912164AEE70048089
:103960000B7E0185088285098312418DEEF90241A3
:10397000A2123B78F510A3E0F511EA45112274E894
:10398000121C1B74FE121BAB8A168B178C148D1520
:10399000EA2405F50CE43517F50DEA2402F50EE4EA
:1039A0003517F50F850E82F583123B3912065A8AB8
:1039B000088B09750B007C037D0079007AF17B028E
:1039C0001215DE750A00E50814F5100424FFF50849
:1039D000E50934FFF50980549002F1E0FA9002EE17
:1039E000E0F8EA28F8E43400F9E50898E509995088
:1039F0000D9002F1E0F8E510C3989002EEF0E0F5CA
:103A0000127513007812121E2E124ACA9002F2E0AA
:103A10002AFAA3E03400FB1215C67402121BC190EF
:103A200002EEE0F89002F1E028F0050A850C8285AC
:103A30000D83A3A31244444003023B149002F1E01F
:103A4000C39508E495094003023B14AE0AEE2EFE2E
:103A5000E433FF123B53AC18AD19124AE5E439FBCD
:103A60001208468A128B13AC12AD13EC4D701B7505
:103A70000B01123B431241919002F212309060030D
:103A800012164AA90B7402023DFC85168285178323
:103A9000A3A3A3A3E0F50B780B121E32E4F512F5F5
:103AA000137812121E2E7512EE7513027812121E62
:103AB0002E9002EF121E457407121BF7121E45A925
:103AC00010850E82850F83123B391209AE740912DC
:103AD0001BC1E9F50B709B9002F2123B6860030278
:103AE00039D8E4F512F5137812121E2E7CFF7DFFF3
:103AF000790F850E82850F83123B391209187402E3
:103B0000121BC1123B6E60030239D8123B43123EB6
:103B100072023A857CF17D02850E82850F83123B0D
:103B20003912058EE96003023A787900023A85ACD1
:103B30000CAD0D850A82850B83123B3D22E0FAA372
:103B4000E0FB22123B53E0FAA3E0F9EA85148285F8
:103B5000158322850C82850D83E02EF8A3E03FF9C2
:103B600088828983229002EF124C6BE84922123B33
:103B700078F8A3E0F9E849229002F2EAF0A3EBF02A
:103B80009002F2E02274E8121C1B74FA121BAB7450
:103B900004121BF712377B8C168D177404121BF757
:103BA000E02405F50EA3E03400F50F7404121BF7B2
:103BB000E02402123E10123B3912065A8A0A8B0B7D
:103BC0007F007E00A818A919880889097808121EA4
:103BD0002E850E82850F83A3A3A3A3E0F5088E098B
:103BE0007808121E2EE50E2405F508E4350FF509B8
:103BF0007808121E2E850E82850F83A3A3123E40E5
:103C00001208407406121BC18A0C8B0D8029123ECB
:103C100031F00F123E31F00F9002EE12417C121E75
:103C20002E124ACAEFF8123E041215C67402121B75
:103C3000C19002EEE02FFFE50C450D7003023CC081
:103C40008518828519831242B2A3A3A3E0F98514D3
:103C500082851583123B3912082EE9FEE50C2404F7
:103C6000F510E4350DF511EE70507404121BF712C7
:103C70003E37F5087808121E32E4F508F509780891
:103C8000121E2E7508EE7509027808121E2E90027B
:103C9000EF121E457407121BF7121E45E50A24FA9F
:103CA000F9AC0CAD0D851482851583123B391209D0
:103CB000AE7409121BC1E9FE6039123E4D124190EB
:103CC000EF7003023DE79002F2E0F5F0EF8490021E
:103CD000F1F07CF17D02851482851583123B391247
:103CE0000594E960099002F3123B3912164A7900F3
:103CF000023DFA8F08EF703BE4F512F513781212CB
:103D00001E2E7CFF7DFF7911851482851583123B61
:103D1000391209187402121BC1123E5D7009123E5D
:103D20004D123E71023DFA9002EEE024049002F240
:103D3000F080359002EEE0F89002F2E0FAE8240418
:103D4000FCE43400FDEC6A4D6003023CC6E50A2445
:103D5000FAFAE50B34FFFBE50828F8E43400F9EA49
:103D600098EB995003023CC6851082851183E0C010
:103D7000E09002F3E02FF8A3E034008882F583D0CE
:103D8000E0F00F851082851183A3E0C0E0123E1E93
:103D9000D0E0F00F7402121C01880889097808121B
:103DA0001E2E7402121BF7121E45850E82850F838C
:103DB00012376F12084C7404121BC18A0C8B0DEA67
:103DC000450D7003023C0E7402121BF7E0C0E012B6
:103DD0003E1ED0E0F00F7402121BF7A3E0C0E01209
:103DE0003E1ED0E0023C16EE70027E0A850E8285F1
:103DF0000F83123E53124190EEF97406121BC17FDD
:103E000010021CED9002F3E028FAA3E03400FB223C
:103E1000F514A3E03400F515851482F58322123ED3
:103E200022229002F3E02FFAA3E034008A82F58385
:103E300022123E2274FF22123F9FA3A3A3A3E022DB
:103E4000124D5C850E82850F83123B3D22851082C8
:103E5000851183124C6B851682851783229002F39D
:103E6000EAF0A3EBF09002F3124C6BE84922124106
:103E700096E8F0A3E9F079112274EA121C1B74FE93
:103E8000121BAB8A088B098C128D13EA2405FEE401
:103E90003509FFAC18AD198E828F83123B39120899
:103EA000468A0C8B0DEE2406F50EE43FF50FEA452D
:103EB0000D7003023F71E5082402F50AE43509F5A7
:103EC0000B8A828B83A3A3A3E0A2E55028851882E6
:103ED000851983123B391209A28A108B11EA451108
:103EE00060207912123B2F851082851183121C19D4
:103EF000E9F50C707F850E82850F83E060097952A9
:103F00008011750C0E806D850882850983A3A3A39B
:103F1000A3E0F9E4F508F5097808121E2E8E828FC9
:103F200083A3A3E0F5087808121E2E8E828F83A348
:103F3000A3A3121E458E828F83124ACD123B3312E9
:103F400009B47406121BC1E9F50C7011850E828547
:103F50000F83E0702D123B3312059A80257416658D
:103F60000C7011750C007418121BF7123F9BE48043
:103F700010750C01124C63851282851383E8F0A33F
:103F8000E9F0850E82850F83E0600479008002A944
:103F90000C7402121BC17F0E021CED123F9F22E027
:103FA000F8A3E0F58388822274EC121C1B74F712CC
:103FB0001BAB8A0A8B0B8C108D11EA2405FEE435AD
:103FC0000BFF750C00AC18AD198E828F83123B3934
:103FD0001208468A088B09EA45097003024167E521
:103FE0000A2402F50A5002050B8A828B83A3A3A33D
:103FF000E0A2E5502F851882851983123B391209FA
:10400000A28A0C8B0DEA450D604F7912AC08AD0900
:10401000123B33850C82850D83121C19E9F50C6067
:104020000302416A850A82850B83E0F508A3E0F567
:1040300009AA08FB120996EA4B70197AFF7BFF1256
:104040000996EA4B700302415D8A828B83E508F092
:10405000A3E509F07508008008750C0E02416A0599
:10406000089002EBE0F8E508C398400302415D8543
:10407000080E750F007403780E121B988A828B83CA
:10408000A3A3E0250EF8A3E0350F12453170D08EC2
:10409000828F8312418512377B8E828F83A3A31276
:1040A0004185123779EE2404F508E43FF5098508C7
:1040B00082F583E088828983A3A3A3A3F0A3E4F01D
:1040C000EE2405F50EE43FF50F850E82F5831241CF
:1040D00085A3A3A3A312377975120775130078126D
:1040E000121E2EEEFCEFFD7404121C091215C6748C
:1040F00002121BC1E4F5127812121E2E8508828569
:104100000983E0FC7D007917123B33120918740211
:10411000121BC17407121BF712377B7407121BF7AF
:10412000E0FA4B603D85088285098312417C121EAE
:104130002E850E82850F83124ACD1215C674021287
:104140001BC17402121C11123B331205A0E9602638
:104150007407121BF7123B3912164A8019750C09A5
:104160008008750C118003750C01124C6385108258
:10417000851183124190A90C74098028E0F5087517
:104180000900780822123B3D8882898322124196D9
:10419000E8F0A3E9F022E0F8A3E0F9850E82850FAC
:1041A00083227404121BC17F0C021CED74EC121CE0
:1041B0001B1242A0751000EE2402F50CE43FF50D31
:1041C000850C82F583123B391209968A088B09EA1D
:1041D00045097003024284850A82850B83E06401ED
:1041E0006003024279AC08AD09AA0AAB0B12098A36
:1041F000E9606E850882850983123506EE2406F58E
:104200000AE43FF50B8E828F83A3A3121E458E8294
:104210008F83A3A3A3A3121E45850A82850B831255
:104220001E4579188E828F831242B2123B391209D1
:10423000B47406121BC1E9F8741668700B850A8203
:10424000850B83E4F0A38014E860128E828F8312C2
:104250003B39850E82850F83EAF0A3EBF08810804E
:1042600018780E121E2EAC08AD09EEFAEFFB1209FB
:10427000907402121BC1E9F510AA08AB0912099C3F
:10428000E510700E850C82850D83123B391205A650
:104290008009741665107003751000A9100241A7FB
:1042A000EAFEEBFF8C0E8D0FEE2405F50AE43FF5D8
:1042B0000B22124D5C850C82850D832274EA121C40
:1042C0001B7508007509007E007F00750A00EC244C
:1042D00002F510E43DF5118035EC65087003ED65DD
:1042E00009600302437188828983A3A3E06A700393
:1042F000A3E06B707C88828983A3A3A3A3124C677D
:10430000EE28FEEF39FFEA28FAEB39FB050A1244E2
:1043100041503A850A0C750D007403780C121B98F5
:10432000851082851183124434124531601FE508DF
:10433000450970A58C088D09888289831235048807
:10434000828983A3A3E02EFAA3E03F80BEE50AC3DF
:104350009402500302442F750800750900EE4F6067
:1043600010EEFAEFFB1216448A0E8B0FEA450F701F
:10437000057900024431750B00024404850B0C756D
:104380000D007403780C121B98851082851183E050
:10439000250CF50CA3E0350DF50DE50C2406F51400
:1043A000E4350DF515851482F5831245366042E536
:1043B0000C2404F512E4350DF513851282F58312F1
:1043C0001E45E50E2508FAE50F3509FB1215C674E2
:1043D00002121BC1851282851383E02508F508A30C
:1043E000E03509F509851482851583123B391216CB
:1043F0004AE50B600D7C087D007900AA0CAB0D121C
:1044000015DE050BE50BC3950A500302437C8510AE
:1044100082851183124C6788828983A3A3A3A3A3F7
:10442000A3E50EF0A3E50F123097EEF0A3EFF079BD
:1044300001023F9612443822E0250CF8A3E0350D26
:10444000229002EBE0F8E50AC3982274F0121C1BDC
:104450008A0E8B0F8C0A8D0B750D00750C00805029
:104460007916EE2406F508E43FF5098E828F83A3C2
:10447000A3121E458E828F83A3A3A3A3121E45857C
:104480000882850983121E45850E82850F83A3A3AA
:10449000123B391209B47406121BC1E9F50D7416EA
:1044A000650D706C850882850983E4F0A3F0050C26
:1044B0009002EBE0F8E50CC3985066AA0C8A0875E8
:1044C000090074037808121B98850A82850B83A360
:1044D000A3124580E8FEE9FF8E828F831245366085
:1044E00040EA2401F508E43400F5099002EBE065A8
:1044F000087002E509601488828983A3A3A3A3A39B
:10450000A3A3A3123B6860030244607918024462CB
:10451000E9609B124C637410121BF712452812417C
:1045200090A90D7F08021CEDE0FAA3E0F5838A82D2
:1045300022F988828983124D5CEC4D2274F6121C9C
:104540001B7C0080010C900348E0F8ECC398501EDF
:104550008C0875090074027808121B98124575E0E2
:104560006A7003A3E06B70DDE8FAE9FB80047A006F
:104570007B000246189002E91245808882898322D6
:10458000E02508F8A3E03509F92274F2121C1B8A11
:10459000088B09750A0080278E828F83A3A3A3A3AB
:1045A00012308E600312164A7C087D007900EEFA04
:1045B000EFFB1215DE8E828F83E4F0A3F0050A1262
:1045C00044415027850A0C750D007403780C121BAA
:1045D00098850882850983A3A3E0250CFEA3E03516
:1045E0000DFF8E828F83123B6870AD85088285092E
:1045F0008374FFF0A3F0024D5074F6121C1B1209D5
:10460000488A828B83E582458370067A007B00802E
:1046100007A3A3A3A3123B397F02021CED74F4127B
:104620001C1B89088C828D83E06402703C124C064E
:10463000FEA3E0F9EEF8740268700374296970292A
:10464000750A02750B00780A121E2E7410121BF7E1
:10465000121E457410121BF7121E45A9081212D221
:104660007406121BC1E9F9800279010230CB74E8AB
:10467000121C1B74FB121BABE9851882851983F091
:104680008A168B17ECFEEDFF7510008E828F83A3C8
:10469000A3A3E0A2E4502D741D121BF7123B3912A4
:1046A00009A28A828B83E58245837003024AA57939
:1046B0000AEEFCEFFDAA16AB17121C19E9F5106003
:1046C00003024AA8741F121BF7E0F508A3E0F509DE
:1046D0007421121BF7E0F50AA3E0F50B7423121BFB
:1046E000F7E0F50EA3E0F50F8E828F83E0640260A1
:1046F00003024A46A3124C67850882850983A38575
:104700008212858313EE2406F50CE43FF50D8882B2
:104710008983124AE5F514E439F5157814121EB8A8
:104720000100002801284847070002280D480328F7
:104730007B4700293C490129674902290849032987
:104740003C490429E049464AE50E450F6003024A08
:1047500041850C82850D83124C67E8FAE9FB8A8259
:104760008B83E0850A82850B83124AF0121E2E8A03
:10477000828B83A3E0FCA3E00249CAE50E450F60EB
:1047800003024A41850A82850B837401F0124ADADA
:10479000850882850983F07C007D008E828F83A34B
:1047A000A3A3A3E02401FAA3E03400FB120846EA25
:1047B0004B60408A828B83E02402F8850A82850B55
:1047C00083E028F0EA2404F8E43BF988828983E056
:1047D000851282851383124AFE124AF0121E2E8A17
:1047E000828B83A3124ACDE5082403FAE43509FB42
:1047F0000249CF850A82850B83E02404F07C047D86
:10480000007900AA12AB131215DE024AA8E50E4584
:104810000F6003024A41124ADAFEA3E0FF850A82D2
:10482000850B837404F0EE850882850983F0EF859B
:104830001282851383F07403121C11EEFAEFFB123F
:1048400008468A0C8B0DEA450D70030248EB8A82FC
:104850008B83A3A31235047401121C01880E890FE7
:10486000780E121E2E7405121BF7121E457CFF7D5A
:10487000FF12084C7404121BC18B0FEA450F7033F2
:10488000850C82850D83124AD1121E2E850C8285DD
:104890000D83A3121E457C027D007A607B8A12067E
:1048A000487404121BC1E9700A7401121BF774FFEB
:1048B000F0A3F08E828F83E064027039750C02756C
:1048C0000D00780C121E2E8E828F83A3124ACDE526
:1048D000082404FAE43509FB1215C67402121BC140
:1048E000850A82850B83E0240280097401121BF77C
:1048F000EEF0A3EFF07401121BF7124ABF7401121D
:104900001BF7124AB6024A3BE50E450F6003024A06
:1049100041850C82850D83124D55AA16AB171212D4
:10492000D8850A82850B837402F085088285098305
:10493000EAF0851282851383EB024A3EE50E450FAD
:104940006003024A41124ADAF8A3E0F9850A828537
:104950000B837402F0E8850882850983F0E98512EB
:1049600082851383024A3E850C82850D83123B3972
:104970001215C0EAFAF8C3950EE4950F405CE8659D
:104980000E450F70047A008021851882851983E016
:10499000FCE50E2CFCE4350FFDC3EC98ED940050C3
:1049A00003E08005E50ECAC39AFAEA850A82850B00
:1049B00083F08A0A750B00780A121E2E850C8285F8
:1049C0000D83E0250EFCA3E0350FFDAA08AB09120C
:1049D00015C67402121BC1024AA8751007024AA824
:1049E000E50E450F705B850C82850D83124C678543
:1049F0000A82850B837407F088828983124AB71272
:104A00004AAFE0851282851383F0E82402FAE43984
:104A1000FB8A828B83124ABF8A828B83124AB6A397
:104A2000A3123096124AC4F0E82405F85001098810
:104A3000828983124AC4A3124AFEA3A3A3A3F080CF
:104A40006775100B8062741D121BF7123B39120937
:104A5000488A828B83E5824583604A124C67880CC2
:104A6000890DE8450D603E7425121BF7E0F51078BE
:104A700010121E32780E121E2E780A121E2E780880
:104A8000121E2E7407121BF7E0F9EEFCEFFDAA16BA
:104A9000AB17850C82850D83121C197407121BC17C
:104AA000E9F510800375100EA9107405023DFCF0A5
:104AB00088828983A322A3E0850882850983221244
:104AC0004B05F022124B05A3A3229002EF124D5C7E
:104AD00022E0F50E750F00780E22850C82850D837D
:104AE000123F9FE022E0FAA3E0F8E4C8F9EA2822A6
:104AF000F08A828B83E0F50A750B00780A22124A4D
:104B0000AF124B0522E0850882850983A3A3227496
:104B1000EE121C1B74FE121BAB8A088B09ECFEED17
:104B2000FF890AAC18AD19EEFAEFFB1208468A0CA1
:104B30008B0DEA450D7003024BF7851882851983AA
:104B4000123B391209488A828B83E58245837003C0
:104B5000024BF2A3A3124C67880E890FE8450F7031
:104B600003024BF27414121BF7E0F510A3E0F511E9
:104B7000E50AF50B780B121E327419121BF7121E80
:104B8000457810121E2E741B121BF7E0F9AC0CAD09
:104B90000DAA08AB09850E82850F83121C197405B6
:104BA000121BC1E9F50B705274FE650A604C850C4E
:104BB00082850D83E064027041124C06FAA3E0F98D
:104BC000EAF87402687003742969702E8510828572
:104BD0001183124AE5F50CE439F50D780C121E2EFE
:104BE000EEFCEFFDAA08AB091209CC7402121BC13E
:104BF0008008750B0E8003750B01A90B7402121B44
:104C0000C17F0A021CEDA3124C6B88828983E022CB
:104C100074F6121C1B74FE121BAB740C121BF712E1
:104C20004C67E8851882851983F07401121BF7E937
:104C3000F0E4F508F5097808121E2E7508027808C8
:104C4000121E2E7404121C01880889097808121E8D
:104C50002E79FE1209B47406121BC17402121BC114
:104C60000246188E828F83124C6B22E0F8A3E0F983
:104C70002274F7121C1BEAFEEBFF89089003061250
:104C80004ACD1212D8EA5402600BA908EEFAEFFBE3
:104C900012083A800279017F01021CED74F2121CA5
:104CA0001B74FE121BABEAFEEBFF890A7401650A56
:104CB00060147402650A6003024D4B7901120BD037
:104CC000E96003024D4BEEFAEFFB120996EA4B60E6
:104CD0000312099CA818A919880889097808121EC6
:104CE0002E7508027509007808121E2E7508547575
:104CF000098A7808121E2E7CFF7DFF7A017B001244
:104D000008407406121BC18038850882850983A378
:104D1000A3A3A3A3A3124D55EEFAEFFB1212C0E416
:104D2000F50CF50D780C121E2E7402121BF7121ED4
:104D3000457CFF7DFFAA08AB0912084C7404121BC6
:104D4000C18A088B09E508450970BE7402121BC1AF
:104D50007F06021CED123F9F124D5C22E0FCA3E097
:104D6000FD2274F4121C1B8A088B09ECFEEDFF90E7
:104D700016F0E0F4604B7A097B001215EAEA4B600A
:104D8000408A828B8374B1F0A3E4124DC4F08A820E
:104D90008B83A3A3E508F0A3E509124DC4A3EEF0AD
:104DA000A3EFF0740C121BF7124C678A828B83A35B
:104DB000A3A3A3A3A3A31241909016F0E0F91215A8
:104DC000F60230CBF08A828B83A3A3A3A32274EED6
:104DD000121C1B74FA121BAB8A0A8B0BE9FF8C089E
:104DE0008D097E00850A0C850B0D780C121E720051
:104DF0000410AA50164E394E584E7B4E9E4EC14E50
:104E0000F24E154F2C4F5C4F0B502E5051507F508F
:104E1000AA50AA50854F74016F70198508828509C0
:104E200083E0C39403500D850882850983E09018C0
:104E300045F080027E180250D274026F701585080A
:104E400082850983E0F8A3E0F9901846E8F0A3E929
:104E5000F080027E180250D274016F7019850882AA
:104E6000850983E0C39402500D850882850983E09B
:104E700090073FF080027E180250D274016F7019C3
:104E8000850882850983E0C39405500D85088285D5
:104E90000983E0900740F080027E180250D274012E
:104EA0006F7019850882850983E0C39402500D85CF
:104EB0000882850983E0900741F080027E18025045
:104EC000D274106F7027750C10750D00780C121EBF
:104ED0002EAC08AD097A427B071215C67402121B6C
:104EE000C18A0C8B0D850C82850D8380027E180291
:104EF00050D274016F7019850882850983E0C394CC
:104F000002500D850882850983E0900752F08002E7
:104F10007E180250D274016F700D85088285098356
:104F2000E0901849F080027E180250D274046F702D
:104F3000269089D6780C121A6385088285098378B1
:104F40000C1218735011850882850983121A9990E2
:104F50000754121AA580027E180250D2EF70211257
:104F600007E0E97013121266E9F50D795012171C6B
:104F7000E9F50C121254800A9007E77401F08002E0
:104F80007E180250D274076F707C750E06750F0084
:104F9000780E121E2E850882850983A3AC82AD830C
:104FA0007402121C091215CC7402121BC18A108BD8
:104FB0001185100E85110F7C007D00AA18AB198594
:104FC0000882850983E0F91211FAE9F50CE50CC3B2
:104FD000940A502E1207E0E97015A90C12126CE920
:104FE000F50E795012171CE9F50D1212548019A80C
:104FF0000C790074E828F582740739F5837401F0A0
:1050000080067E0280027E180250D274016F7019F1
:10501000850882850983E0C39402500D8508828546
:105020000983E0900753F080027E180250D2740189
:105030006F7019850882850983E0C3940A500D8535
:105040000882850983E0901848F080027E1802509B
:10505000D274016F7025850882850983E0C39407A7
:105060004019850882850983E0C39411500D850895
:1050700082850983E090184AF080577E1880537427
:10508000016F70229007E6E0F50C850882850983A0
:10509000E09007E6F0E50C70399007E6E0640170F7
:1050A00031121254802C7E188028C3E50A9427E51B
:1050B0000B9400501B74026F70168508828509835B
:1050C000E0FCA3E0FDAA0AAB0B120660E9FE800239
:1050D0007E02EEF97406121BC17F0A021CED74EC0D
:1050E000121C1B74DA121BAB890D8A128B138C0AEB
:1050F0008D0B743A121BF7E0F50C90893AAC18ADA1
:10510000197406121ABEAC18AD19AA12AB13A90D68
:105110001211FAE9FEEEC3940A4003025252EEF96C
:10512000121236E9FF901845E064027004740180A1
:10513000027400F5087808121E32AD0CEFFCEEF98F
:10514000AA0AAB0B1212A87401121BC17C147D00B9
:1051500079007412121C091215DE8A0E8B0F850E4F
:1051600008850F097412121C117A1075F006EEA44E
:105170002424F9121716E9703C7C1079FF7412127E
:105180001C0912163EE9702D7422121BF7AC82AD79
:10519000837A0475F006EEA42425F9121716E9F5B2
:1051A000087412121C11EFA2E0E433F9AA0AAB0B47
:1051B0001206EAE9F87406121C117A0C74702EF9C2
:1051C000121716E970797406121C0912122A750E4C
:1051D00000E50EC394045067A80E7900E875F0034B
:1051E000A4C8AAF075F000A42AFA75F003E9A42A6D
:1051F000F97406121BF7E58228F508E58339F509ED
:10520000850882850983E0F8A3E0F9E849602C85E8
:105210000882850983A3A3E0F510751100781012A8
:105220001E2E850882850983E0FCA3E0FDAA0AAB57
:105230000B1209BA7402121BC1E9F8050E8092EF35
:10524000A2E1500E90073EE0F9AA0AAB0B1209C08A
:10525000E9F87404650C700F901845E0640270075B
:10526000AA0AAB0B1212A279007426121BC17F0C82
:10527000021CED74F7121C1BEAFEEBFF1207E0E9BB
:1052800070679007E7E06401701B121266E9F50889
:105290009007E77400F07C0A7D0079007AE87B07CC
:1052A0001215DE8039750800E508C3940A502FA84E
:1052B00008790074E828F582740739F583E0640101
:1052C0007018A90812126CE9FAA808790074E82885
:1052D000F582740739F5837400F0050880CA7950A7
:1052E00012171CE9F5081212547F01021CED74F22A
:1052F000121C1B890BEAFEEBFF8C088D09750A0A4C
:10530000E50B600C1460091460441460640253934C
:10531000EEFAEFFB121248E9F50AE50AC3940A50C7
:1053200072E5084509606C750C06750D00780C1265
:105330001E2EEEFCEFFDAA08AB091215C674021270
:105340001BC18A0C8B0D850C82850D838045EEFA7E
:10535000EFFB121242E9F50AE50AC3940A5034E55C
:10536000084509602EAA08AB09A90A12123CE98077
:1053700022EEFAEFFB12124EE9F50AE50AC3940A8F
:105380005011E5084509600BAA08AB09A90A1212D9
:105390003CE9F8A90A7F06021CED74F2121C1B8A74
:1053A0000C8B0DE9FF7E1574FF650C700474FF65AE
:1053B0000D702A750800E508C3940A5014EFFC7AB2
:1053C000027B00A908121218E960027E000508801D
:1053D000E5EF60627A907B12120BF48059AA0CAB55
:1053E0000D120BC48A0A8B0B850A08850B09E50888
:1053F000450960407C007D00E5082405FAE4350994
:10540000FB850882850983A3A3A3A3E0F91211FAFF
:10541000E9F50AE50AC3940A500EEFFC7A027B0014
:10542000A90A121218E97E00EF600BAA08AB091254
:10543000129080027E14EEF97F06021CED74EE12CB
:105440001C1B8A0E8B0F8C0A8D0B7412121BF7E03B
:10545000F50CA3E0F50D75081574FF650E70047466
:10546000FF650F701E7E00EEC3940A5061AC0CAD58
:105470000DAA0AAB0BEEF912121EE96003750800C3
:105480000E80E4AA0EAB0F120BC48A108B11AE1063
:10549000AF11EE4F60357C007D00EE2405FAE43F4D
:1054A000FB8E828F83A3A3A3A3E0F91211FAE9F57F
:1054B00009E509C3940A5016AC0CAD0DAA0AAB0B52
:1054C000A90912121EE97508008003750814A908BD
:1054D0007F0A021CED74F7121C1BEAFEEBFF90071B
:1054E00058EEF0A3EFF090073EE0FC7D007A267BBB
:1054F00000120660E9F50890073EE0F91209247FE2
:1055000001021CED74F0121C1B74EC121BAB8A0C14
:105510008B0D850C82850D83A3A3E024FA70030212
:10552000597D24FD70030257F21470030255F414E0
:10553000601024FD700302579A1470030258310260
:105540005990AE0CAF0D900758E0F8A3E0F9E84988
:105550006066900758E0F8A3E0F5838882E0F8A33E
:10556000E0F9E8496052EE240CF582E43FF583E06F
:10557000F5087808121E32EE240BF582E43FF5831D
:10558000E0F98E828F83A3A3A3A3A3A3A3A3A3E085
:10559000FCA3E0FDEE2403FAE43FFB900758E0F89B
:1055A000A3E0F5838882E0F8A3E0F5838882121CEB
:1055B000197401121BC180398E828F83A3A3A3A308
:1055C000A3A3A3A3A3121E45900754121A81120687
:1055D000FC7402121BC1E9601879018E828F83A3CB
:1055E000A3A3A3A3A3A3A3A3E0FAA3E0FB1206F63D
:1055F000E9025990AE0CAF0D7508008E828F83A31F
:10560000E0600302571C8E828F83A3A3A3A3A3E0B1
:10561000A2E0400302571C9007F2E0F8A3E0F9E88B
:1056200049600302571C7C0E7D007900AA18AB1953
:105630001215DE8A0A8B0BAA0AAB0BEE240CF5823C
:10564000E43FF583E0F8A3E0F9E8496036750A061F
:10565000750B00780A121E2EEE240CF582E43FF53D
:1056600083E02410FCA3E03400FD7402121C091234
:1056700015C67402121BC18A0A8B0B850A82850B20
:1056800083804F8E828F83A3A3A3E0FAA3E0FB1253
:105690000BC48A0E8B0F850E0A850F0BE50A450B8E
:1056A000602D750E06750F00780E121E2EE50A2469
:1056B00005FCE4350BFD7402121C091215C67402B8
:1056C000121BC18A0E8B0F850E82850F8380030209
:1056D00059908E828F83A3A3A3A3A3E0A2E25004D8
:1056E000D2F08002C2F0A2F0E433F87900740C1218
:1056F0001BF7E048F0A3E049F0EEFCEFFDAA18AB81
:1057000019121230E970127A027B0090073EE0F91C
:1057100012161AE97900025992750815900758E097
:10572000F8A3E0F9E849606F900758E0F8A3E0F5C6
:10573000838882A3A3E0F8A3E0F9E84960598E8248
:105740008F83A3E0FC79018E828F83A3A3A3E0FA69
:10575000A3E0FB900758E0F8A3E0F5838882A3A3B9
:10576000E0F8A3E0F5838882121C19E5086028ACF4
:105770000879038E828F83A3A3A3E0FAA3E0FB90B2
:105780000758E0F8A3E0F5838882A3A3E0F8A3E03C
:10579000F5838882121C19025990AE0CAF0D900748
:1057A00058E0F8A3E0F9E8496045900758E0F8A30D
:1057B000E0F5838882A3A3E0F8A3E0F9E849602F2D
:1057C000850C82850D83A3E0FC79028E828F83A3F2
:1057D000A3A3E0FAA3E0FB900758E0F8A3E0F58369
:1057E0008882A3A3E0F8A3E0F5838882121C190243
:1057F0005990AE0CAF0D7C007D00EE2404FAE43F1E
:10580000FB8E828F83A3A3A3E0F91211FAE9F508B6
:10581000E508C3940A5017EE240AFCE43FFD7A041D
:1058200075F006E508A42425F9121710E9F80259C5
:1058300090AE0CAF0D900753E06019901848E0F956
:105840008E828F83A3A3A3E0FAA3E0FB1206F6E9FE
:10585000F8025990901845E0701679058E828F8372
:10586000A3A3A3E0FAA3E0FB1206F6E9F80259901D
:105870008E828F83A3A3A3E0FAA3E0FB120BC48A5A
:105880000A8B0B850A08850B09E508450970030298
:1058900059908E828F83A3A3A3A3A3A3A3E0A2E026
:1058A000506D850882850983A3A3A3A3E060608E61
:1058B000828F83A3A3A3A3A3A3A3A3A3E0F50AA317
:1058C000E0F50B7409780A121B89E50A5401F8E522
:1058D0000B5400F9E8A2E04036740E121C11E508E2
:1058E0002405FAE43509FB850882850983A3A3A36F
:1058F000A3E0F91211FAE9701679038E828F83A35F
:10590000A3A3E0FAA3E0FB1206F6E9F8025990EE31
:105910002405FCE43FFD850882850983A3A3A3A396
:10592000E0F98E828F83A3A3A3E0FAA3E0FB121217
:105930009C900758E0F8A3E0F9E8496053900758B5
:10594000E0F8A3E0F5838882A3A3E0F8A3E0F9E8F8
:1059500049603D7C0079008E828F83A3A3A3E0FA87
:10596000A3E0FB900758E0F8A3E0F5838882A3A3A7
:10597000E0F8A3E0F5838882121C198013AE0CAF07
:105980000D8E828F83A3A3A3E0FAA3E0FB1211F490
:1059900079017414121BC17F08021CED74F5121CEE
:1059A0001B74F2121BAB8909EAFEEBFF8C0AAC18E0
:1059B000AD197A0E75F006E509A42420F912171620
:1059C000E9705F7C0679FFAA18AB1912163EE970E0
:1059D00051740C121BF7E0F8A3E0F9E8F508E50AAA
:1059E0006005EE42088004EEF45208A808790074BD
:1059F0000C121BF7E0687003A3E0696021A8087926
:105A000000740C121BF7E8F0A3E9F0AC18AD197A9A
:105A10000E75F006E509A42420F9121710E97901A2
:105A200080027900740E121BC17F03021CED74F01A
:105A3000121C1B74E6121BAB890B8A0C8B0DECFE3F
:105A4000EDFF740C121C117A0E75F006E50BA42400
:105A500020F9121716E96003025B5E7C0679FF7479
:105A60000C121C0912163EE96003025B5EAC18AD15
:105A7000197A0C7470250BF9121716E96003025B92
:105A80005A750A00AA18AB1912122AE50C450D70B6
:105A90002E7C0C7900AA18AB1912163EE96003029D
:105AA0005B407C0C7D007900AA18AB191215DE8AC8
:105AB000088B09850882850983750A01025B40AC61
:105AC00018AD19AA0CAB0D1212248A0E8B0F850E7D
:105AD00008850F09E50845097030EE4F601BAC18CA
:105AE000AD197A007B001212248A0E8B0FA80EA922
:105AF0000F88088909E84970047900806385088265
:105B0000850983E50CF0A3E50DF0850882850983FE
:105B1000A3A3E0F87900EE687002EF696022EEC09E
:105B2000E0850882850983A3A3D0E0F0EE4F700DD5
